:02000002D0002C
:1040000000400D0000540D00000006000C000501EA
:0840100004017E050000000020
:0440180040500D0007
:10401C0009480A49884208B505D0094A824202D0AB
:10402C00121A00F0C3FF0748074A0021121A00F0C9
:10403C00C8FF014808BD00BF74E3032070530D0096
:10404C00DCE30320DCE30320F0E7032070B500F091
:10405C0013FE074C074BE41AA40800251E46A54284
:10406C0004D056F8253098470135F8E770BD00BFED
:10407C0064530D0028530D0000F014B808B500F07F
:10408C0023F8BDE8084000F0C5BD00F081B900F090
:10409C007FB90078B0FA80F04009704701230370B3
:1040AC007047000008B50748002319461A464068B7
:1040BC0000F03EF900F02CFD4FF41651BDE808401D
:1040CC0000F01ABD20E7032008B500F021FD0449DB
:1040DC0000F0BFFB4FF4FA70BDE8084000F060B987
:1040EC0054500D0000F038B808B5024B1B689B68A3
:1040FC00019308BD4802030008B5024B1B681B69FD
:10410C00019308BD4802030008B5024B1B685B69AC
:10411C00019308BD4802030008B5024B1B681B6BDA
:10412C00019308BD4802030008B5024B1B685B6C89
:10413C00019308BD4802030008B5024B1B685B687D
:10414C00019308BD1802030008B5024B1B685B699C
:10415C00019308BD1802030008B5024B1B681B68CD
:10416C00019308BD2C02030008B5024B1B685B6968
:10417C00019308BD6402030008B5024B1B689B68E1
:10418C00019308BD6802030008B5024B1B68DB688D
:10419C00019308BD6802030008B5024B1B68DB697C
:1041AC00019308BD3002030008B5024B1B681B6865
:1041BC00019308BD3C02030008B5024B1B68DB6889
:1041CC00019308BD3C02030008B5024B1B681B6938
:1041DC00019308BD3C02030008B5024B1B685B69E8
:1041EC00019308BD3C02030008B5024B1B689B6998
:1041FC00019308BD3C02030008B5024B1B68DB6948
:10420C00019308BD3C02030008B5024B1B689B6A76
:10421C00019308BD3C02030008B5024B1B681B68E8
:10422C00019308BD4C02030008B5024B1B685B6888
:10423C00019308BD4C02030008B5024B1B681B69B7
:10424C00019308BD4C02030008B5024B1B685B6967
:10425C00019308BD4C02030008B5024B1B689B6917
:10426C00019308BD4C02030008B5024B1B68DB69C7
:10427C00019308BD4C02030008B5024B1B681B6A76
:10428C00019308BD4C02030008B5024B1B685B6828
:10429C00019308BD2002030008B5024B1B685B6943
:1042AC00019308BD2002030008B5034B1B68D3F82B
:1042BC008830019308BD00002002030008B5034BB1
:1042CC001B68D3F89430019308BD00002002030052
:1042DC0008B5024B1B68DB6B019308BD440203005D
:1042EC0008B5024B1B685B68019308BD40020300D4
:1042FC0008B5024B1B689B68019308BD4002030084
:10430C0008B5024B1B68DB68019308BD4002030033
:10431C0008B5024B1B681B69019308BD40020300E2
:10432C0008B5024B1B685B69019308BD4002030092
:10433C0008B5024B1B689B69019308BD4002030042
:10434C0008B5024B1B68DB69019308BD40020300F2
:10435C0008B5024B1B681B6A019308BD40020300A1
:10436C0008B5024B1B681B6B019308BD4002030090
:10437C0008B5024B1B685B6B019308BD4002030040
:10438C0008B5024B1B681B68019308BD1C02030097
:10439C0008B5024B1B685B68019308BD1C02030047
:1043AC000021FFF779BF0000024800230360FFF7EC
:1043BC00BBBE00BFE0E3032010B58368044613B115
:1043CC00032201469847204610BD00221146406842
:1043DC00FFF7BEBF002211464068FFF7C9BF00229D
:1043EC004068FFF7BDBF002281F001014068FFF774
:1043FC00A7BF00231A4619464068FFF799BF002350
:10440C001A4619464068FFF78BBF002211464068D8
:10441C00FFF77EBF002211464068FFF769BF0022FC
:10442C0002214068FFF76CBF00231A464068FFF773
:10443C0057BF0000024B03225A60024A1A607047B1
:10444C00E4E3032068500D00704710B518210446B2
:10445C0000F053FC204610BDF0B5037D062B8DB04B
:10446C000E4600F104074FF0000402D000F10805DD
:10447C0018E00CAD394605F8304D2F232A460A209A
:10448C00FFF772FE284600F0CDFD33680246DB686C
:10449C002946304698470FE024B12E21304600F0D3
:1044AC00C9F9044415F8011D0A22304600F008FA37
:1044BC00BD420444F0D120460DB0F0BD10B5054B03
:1044CC000446112240F8043B002100F07AFD2046FE
:1044DC0010BD00BF9C500D000346074A10B543F8B1
:1044EC00042B01F1100251F8044B43F8044B914298
:1044FC00F9D10A781A7010BD9C500D0010B59DF8BA
:10450C00084044EA032343EA024242EA01610423DD
:10451C004160037510BD37B50D788B784A78C97832
:10452C0000912946FFF7EAFF03B030BD014B024A68
:10453C001A607047ECE303201B510D00002211465A
:10454C004068FFF705BF002211464068FFF710BF17
:10455C0000224068FFF704BF002281F0010140688F
:10456C00FFF7EEBE00231A4601214068FFF7E0BEBC
:10457C0000231A4619464068FFF7D2BE00221146A6
:10458C004068FFF7C5BE002211464068FFF7B0BE79
:10459C00002202214068FFF7B3BE00231A46406890
:1045AC00FFF79EBE38B5054688B104684CB1A368C8
:1045BC001BB103222146204698471021204600F0CB
:1045CC009CFB28461421BDE8384000F096BB38BD52
:1045DC0010B103685B681847704710B50368044650
:1045EC00BBB15868FFF780FD78B923685A7C12B9C3
:1045FC005868FFF781FD23685868FFF785FD206830
:10460C000023236028B1FFF7CDFF206808B1FFF726
:10461C00C9FF204610BD000038B50C4B03600446A2
:10462C00D0F8CC0108B1FFF732FDD4F8C45135B144
:10463C002846FFF7D2FF0421284600F05EFBA06855
:10464C0008B1FFF7C5FF204638BD00BF94510D00DF
:10465C0038B50E4C0E4B23600025022304F5E47094
:10466C006360A560C4F8C451C4F8C851FFF75CFD81
:10467C00084BC4F8CC5184F8D05123602046064A2C
:10468C000649BDE8384000F033BB00BFF0E303201F
:10469C00C8510D0094510D00DCE3032025460D009C
:1046AC0000231A464068FFF71BBE00220221406817
:1046BC00FFF726BE002211464068FFF719BE002204
:1046CC0011464068FFF724BE00231A46194640687D
:1046DC00FFF726BE00231A4619464068FFF728BE8E
:1046EC00002281F001014068FFF72ABE00224068D9
:1046FC00FFF736BE002211464068FFF739BE002294
:10470C0011464068FFF724BE2DE9F043002495B014
:10471C0016460D460746FFF7D1FE214620220CA86F
:10472C00009400F04EFC40230C9321466B460CAADF
:10473C003046FFF729FD0446002844D102460121EA
:10474C006868FFF7E5FD0221804622466868FFF79E
:10475C00DFFD009E81462146002E34D0002932D147
:10476C007368022B02D00A2B09D02AE0B8F1000F93
:10477C0027D0716938460431FFF7CDFE20E0B9F13E
:10478C00000F1ED07469112201A800F01AFC062338
:10479C008DF8143001AD04F1080318341868596809
:1047AC002A4603C20833A3421546F7D101A906A82D
:1047BC0007ADFFF791FE0FCD3C1D0FC42B68237086
:1047CC000121F669C8E70098FFF7D6FC384615B00A
:1047DC00BDE8F083024B034A1A6000225A6070470E
:1047EC00C4E50320C8510D00F8B506460D468F18D8
:1047FC000024BD420CD0336815F8011B9B68304671
:10480C009847002801DB0444F3E7002C08BF04465A
:10481C002046F8BD70B505460C46084649B100F077
:10482C0001FC2B68024621462846DB68BDE8704037
:10483C00184770BD03689B68184738B50D210546AD
:10484C00FFF7F8FF0A2104462846FFF7F3FF204440
:10485C0038BD38B50546FFF7DDFF04462846FFF79F
:10486C00ECFF204438BD30B58BB00B4600218DF8E1
:10487C002410012A98BF0A220DF12304B3FBF2F590
:10488C0005FB123303F0FF03092B94BF303337338E
:10489C00DBB2214604F801392B46002DEED1FFF78F
:1048AC00B9FF0BB030BD10B42AB903685DF8044BE6
:1048BC009B68C9B21847D2B25DF8044BFFF7D3BF5F
:1048CC00FFF7F1BF10B50446FFF776FD204610BD8B
:1048DC000348044A04490023836000F009BA00BF6E
:1048EC00CCE50320DCE30320D1480D00704710B564
:1048FC001021044600F001FA204610BD70B5084B9B
:10490C000360044600250E4640F80C5FFFF704FCDC
:10491C0030462671FFF740FCA560204670BD00BFF5
:10492C00FC510D00044B00204FF6FF72187058809C
:10493C009A80FFF7A9BC00BFDCE50320024B1A6884
:10494C00024B1A60704700BF74E30320E4E50320B8
:10495C0070474174704708B5007CFFF755FC20EA9E
:10496C00E07008BD08B5007CFFF72EFC20EAE07073
:10497C0008BD08B5007CFFF737FC30EA200028BFE3
:10498C004FF0FF3008BD08B5007CFFF725FC30EA7E
:10499C00200028BF4FF0FF3008BD007CFFF72CBC77
:1049AC0010B51421044600F0A8F9204610BD70B5CE
:1049BC00457C04460E4625B9007CFFF725FC0028F3
:1049CC0005DD3146207CBDE87040FFF7F5BB28467D
:1049DC0070BD000010B50446084611460022626006
:1049EC004FF47A72A260054A22600122207462742C
:1049FC001A46FFF7D9FB204610BD00BF38520D00F8
:104A0C0038B50C4D296811F0010411D12846FFF777
:104A1C0040FB68B1084A094B09482146FFF7DAFF09
:104A2C002846FFF73BFB074A0749054800F060F9A9
:104A3C00034838BD80E6032084E60320FCE5032010
:104A4C00E8E50320DCE303205D490D004174704769
:104A5C00704708B50021007CFFF7FEFB30EA200010
:104A6C0028BF4FF0FF3008BD08B50121007CFFF7CF
:104A7C00F3FB30EA200028BF4FF0FF3008BD08B52B
:104A8C00007CFFF7E1FB20EAE07008BD08B5007C74
:104A9C00FFF7D2FB20EAE07008BD007CFFF7ECBB0F
:104AAC0010B51421044600F028F9204610BD38B585
:104ABC000446007C0D46FFF7C7FB002801DC607C38
:104ACC0028B12946207CFFF7CFFB20EAE07038BDE7
:104ADC0010B50446002363604FF47A73A360054B52
:104AEC00236001230846217463741146FFF794FB7D
:104AFC00204610BD68520D000022007CFFF794BBCD
:104B0C0010B514220446002100F05BFA204610BDBB
:104B1C0030B50E4D87B001A8FFF7F2FF296811F0F0
:104B2C00010410D12846FFF7B4FA60B101AA21465E
:104B3C000748FFF7CDFF2846FFF7B0FA054A0649AC
:104B4C00034800F0D5F8024807B030BD08E7032051
:104B5C000CE70320DCE303205D4A0D000022114624
:104B6C004068FFF7D5BB002211464068FFF7F0BB49
:104B7C00002211464068FFF7FBBB00224068FFF79C
:104B8C00EFBB002281F001014068FFF7D9BB002385
:104B9C001A4619464068FFF7CBBB00231A46194644
:104BAC004068FFF7BDBB002211464068FFF7A0BB71
:104BBC00002202214068FFF7A3BB00231A4640687D
:104BCC00FFF78EBB024B04225A60024A1A607047F0
:104BDC0020E7032098520D0008B50C4B33B1FFF7BA
:104BEC0097FF03681B699847002809DC084B63B1E1
:104BFC00FFF706FF03681B699847002803DC08BD14
:104C0C00AFF30080F2E7AFF3008008BD00000000B6
:104C1C000000000008B5FFF7DFFFFFF795FA014B26
:104C2C00186008BD2CE7032007B5002300931A4633
:104C3C006FF07701FFF742FB03B05DF804FB000057
:104C4C0007B543880A2B08D0502B09D1094B1B6898
:104C5C003BB103B05DF804EB1847FFF7E5FF06E046
:104C6C00002300931A466FF07701FFF727FB03B080
:104C7C005DF804FB28E7032010B5FFF75DFA044646
:104C8C0000F0A8F9074B13B12046AFF300800021C8
:104C9C000448FFF71DFB00210348BDE81040FFF757
:104CAC0003BB00BF000000004D4C0D0070B50C4C58
:104CBC000C4E0D4D00212046FFF720FE20460B4CDC
:104CCC003246294600F014F801212046FFF716FE63
:104CDC00324629462046BDE8704000F009B800BFB6
:104CEC0030E70320DCE30320F9480D0040E7032004
:104CFC000B460146184600F04BB9FFF7C6B9000049
:104D0C00244B1A68D0075CBF01221A60224B1A6828
:104D1C00D1075CBF01221A60204B1A68D2075CBF16
:104D2C0001221A601E4B1A68D0075CBF01221A6060
:104D3C001C4B1A68D1075CBF01221A601A4B1A6807
:104D4C00D2075CBF01221A60184B1A68D0075CBFEF
:104D5C0001221A60164B1A68D1075CBF01221A6037
:104D6C00144B1A68D2075CBF01221A60124B1A68E6
:104D7C00D0075CBF01221A60104B1A68D1075CBFC8
:104D8C0001221A600E4B1A68D2075CBF01221A600E
:104D9C00704700BF7CE7032078E7032074E703200B
:104DAC0070E703206CE7032068E7032064E7032027
:104DBC0060E703205CE7032058E7032054E7032057
:104DCC0050E70320184B1A68D1075CBF01221A6008
:104DDC00164B1A68D2075CBF01221A60144B1A6872
:104DEC00D0075CBF01221A60124B1A68D1075CBF56
:104DFC0001221A60104B1A68D2075CBF01221A609C
:104E0C000E4B1A68D0075CBF01221A600C4B1A6853
:104E1C00D1075CBF01221A600A4B1A68D2075CBF2B
:104E2C0001221A60704700BF9CE7032098E703201B
:104E3C0094E7032090E703208CE7032088E7032006
:104E4C0084E7032080E70320184B1A68D1075CBF66
:104E5C0001221A60164B1A68D2075CBF01221A6035
:104E6C00144B1A68D0075CBF01221A60124B1A68E7
:104E7C00D1075CBF01221A60104B1A68D2075CBFC5
:104E8C0001221A600E4B1A68D0075CBF01221A600F
:104E9C000C4B1A68D1075CBF01221A600A4B1A68C6
:104EAC00D2075CBF01221A60704700BFBCE7032029
:104EBC00B8E70320B4E70320B0E70320ACE70320F6
:104ECC00A8E70320A4E70320A0E70320244B1A68DB
:104EDC00D0075CBF01221A60224B1A68D1075CBF55
:104EEC0001221A60204B1A68D2075CBF01221A609B
:104EFC001E4B1A68D0075CBF01221A601C4B1A6843
:104F0C00D1075CBF01221A601A4B1A68D2075CBF2A
:104F1C0001221A60184B1A68D0075CBF01221A6074
:104F2C00164B1A68D1075CBF01221A60144B1A6821
:104F3C00D2075CBF01221A60124B1A68D0075CBF03
:104F4C0001221A60104B1A68D1075CBF01221A604B
:104F5C000E4B1A68D2075CBF01221A60704700BF63
:104F6C00ECE70320E8E70320E4E70320E0E7032075
:104F7C00DCE70320D8E70320D4E70320D0E70320A5
:104F8C00CCE70320C8E70320C4E70320C0E70320D5
:104F9C0010B5054C13462CB10A4601460220AFF35E
:104FAC00008010BD204610BD0000000010B5431E4F
:104FBC000A44914204D011F8014B03F8014FF8E771
:104FCC0010BD02440346934202D003F8011BFAE7DA
:104FDC007047000038B5124B1C68A36B0546D3B95B
:104FEC001820FFF7CDF943F20E33A06303804AF685
:104FFC00CD33438041F2342383804EF26D63C38002
:10500C004DF6EC630381052343810B23838101223D
:10501C000023C0E90423A36B00221D615A6138BD33
:10502C00D8E30320034613F8012B002AFBD1181AEE
:10503C00013870471D400D0059400D0085400D0092
:10504C0089400D000000000049276D2068657265DD
:10505C0000000000000000000000000035440D00BE
:10506C002B440D0021440D0017440D000B440D0082
:10507C00FF430D00F3430D00EB430D00E1430D0026
:10508C00D7430D0015470D00000000000000000084
:10509C0065440D0055440D0057440D006261756464
:1050AC000053657269616C0053657269616C310003
:1050BC007479706500706172616D00636D64006974
:1050CC006400686E64007374726D0066696C7400C1
:1050DC006C766C0061646448616E646C657200721D
:1050EC00656D6F766548616E646C657200656E7592
:1050FC006D48616E646C657273004A534F4E537405
:10510C007265616D4C6F6748616E646C65720061AD
:10511C00707000253031307520005D200025640052
:10512C002C200028293A2000205B00636F64652046
:10513C003D200025690064657461696C73203D2015
:10514C00000D0A0066006C6E00666E00636F64658D
:10515C000064657461696C006E6F6E6500747261D9
:10516C00636500696E666F007761726E00657272BE
:10517C006F720070616E696300616C6C00000000FE
:10518C000000000000000000A7450D009D450D002B
:10519C0093450D0089450D007D450D0071450D00B1
:1051AC0065450D005D450D0053450D0049450D004D
:1051BC0015470D000000000000000000AD460D007A
:1051CC00B7460D00C1460D00CB460D00D5460D006F
:1051DC00E1460D00ED460D00F9460D0001470D00AE
:1051EC000B470D0015470D000000000000000000EB
:1051FC00F9480D00FB480D005A00252B3033643A5A
:10520C00253032750025592D256D2D2564542548E2
:10521C003A254D3A2553257A0061736374696D659F
:10522C000000000000000000000000005D490D00BF
:10523C00AD490D00BB490D00F5470D0071490D003E
:10524C0093490D007F490D00A7490D005F490D00E2
:10525C0063490D0000000000000000005D4A0D00D5
:10526C00AD4A0D00BB4A0D00F5470D00994A0D00E3
:10527C005F4A0D00754A0D00A74A0D008B4A0D00C0
:10528C00594A0D000000000000000000C74B0D0043
:10529C00BD4B0D00B34B0D00694B0D00A74B0D0022
:1052AC009B4B0D008F4B0D00874B0D007D4B0D0064
:1052BC00734B0D0015470D000000000000000000AE
:1052CC0000000000000000000000000000000000D2
:1052DC0000000000000000000000000000000000C2
:1052EC0000000000000000000000000000000000B2
:1052FC0000000000000000000000000000000000A2
:10530C000000000000000000000000000000000091
:10531C00000000000000000043000000F1400D0000
:10532C00B5430D0041440D0039450D005D460D009F
:10533C00E1470D00DD480D0031490D0049490D00D4
:10534C00D14B0D00B94C0D000D4D0D00D14D0D0084
:10535C00554E0D00D94E0D0000000000000000005D
:04536C00000000003D
:1053700025520D0000000000C4520D00E4520D0043
:1053800004530D00000000000000000000000000B9
:105390000000000024530D00000000000000000089
:1053A00000000000000000000000000000000000FD
:1053B00000000000000000000000000000000000ED
:1053C00000000000000000000000000000000000DD
:0853D0000000000078E3032057
:1053D800FFFFFFFF00000102030405060708090A92
:1053E8000B0C0D0E0F101112131415161718191A8D
:0853F8001B1C1D1E1F202800D4
:045400007856341294
:04000003D000401CCD
:00000001FF
