:02000002D0002C
:1040000000400D00F0570D00000006000C000501F7
:0840100004017E050000000020
:0440180098530D00AC
:10401C0009480A49884208B505D0094A824202D0AB
:10402C00121A01F06FF90748074A0021121A01F021
:10403C0074F9014808BD00BF54E3032060570D001C
:10404C00BCE30320BCE30320F0E7032070B500F0D1
:10405C009FFF074C074BE41AA40800251E46A542F7
:10406C0004D056F8253098470135F8E770BD00BFED
:10407C0054570D0014570D0000F014B808B500F09B
:10408C003BF8BDE8084000F051BF00F081BA00F0E9
:10409C007FBA0078B0FA80F04009704701230370B2
:1040AC007047000010B500F0BFFE4FF4165100F041
:1040BC00AFFE00F0B9FE0C490C4C00F02AFD00F0EC
:1040CC00B3FE0B4900F025FD00F0AEFE094900F0EF
:1040DC0020FD20464FF4006100F089F82046BDE831
:1040EC00104000F07DB800BFAC530D00C0E30320BE
:1040FC00B3530D00DE530D0010B50121094800F03B
:10410C0078F8044600F090FE074900F0EFFC00F050
:10411C008BFE21B20A2200F057FD6420BDE810404E
:10412C0000F03EBAC0E303201C540D0008B500F0AB
:10413C00C3F848210248BDE8084000F04AB800BF67
:10414C00C0E3032010B5044600F03CFF0368214691
:10415C009B68BDE81040184708B500F033FF0368B2
:10416C005B699847C0B208BD70B5064614460D464B
:10417C0000F028FF314600F0B7FA2846FFF7E2FFBF
:10418C00200AFFF7DFFFE0B2FFF7DCFF00F01AFFB9
:10419C00BDE8704000F0B0BA10B5044600F012FF54
:1041AC00214600F0A1FA0020FFF7CCFF00F00AFF37
:1041BC0000F0A2FA00F006FF2146022200F091FA6C
:1041CC00FFF7CAFF0446FFF7C7FF40EA042080B29E
:1041DC0010BD0022017002218280417082707047F4
:1041EC0008B500F0EFFEBDE8084000F06BBA818026
:1041FC007047032910B5044622D80229828808D0BA
:10420C00032909D0012914BF42F4834242F4A3428A
:10421C0004E042F4C34201E042F4E34242F0030200
:10422C0042F4004201212078FFF79EFF607800F0F5
:10423C00B7F92078FFF7B0FFA378184180B210BD12
:10424C00002010BD00F038B808B5024B1B689B6805
:10425C00019308BD4802030008B5024B1B681B699B
:10426C00019308BD4802030008B5024B1B685B694B
:10427C00019308BD4802030008B5024B1B681B6B79
:10428C00019308BD4802030008B5024B1B685B6C28
:10429C00019308BD4802030008B5024B1B685B681C
:1042AC00019308BD1802030008B5024B1B685B693B
:1042BC00019308BD1802030008B5024B1B681B686C
:1042CC00019308BD2C02030008B5024B1B68DB6888
:1042DC00019308BD2802030008B5024B1B685B69FB
:1042EC00019308BD2802030008B5024B1B689B69AB
:1042FC00019308BD2802030008B5024B1B68DB695B
:10430C00019308BD2802030008B5024B1B681B6A09
:10431C00019308BD2802030008B5024B1B685B6AB9
:10432C00019308BD2802030008B5024B1B689B6A69
:10433C00019308BD2802030008B5024B1B68DB6A19
:10434C00019308BD2802030008B5024B1B681B6BC8
:10435C00019308BD2802030008B5024B1B681B6CB7
:10436C00019308BD2802030008B5024B1B685B696A
:10437C00019308BD6402030008B5024B1B689B68DF
:10438C00019308BD6802030008B5024B1B68DB688B
:10439C00019308BD6802030008B5024B1B68DB697A
:1043AC00019308BD3002030008B5024B1B681B6863
:1043BC00019308BD3C02030008B5024B1B68DB6887
:1043CC00019308BD3C02030008B5024B1B681B6936
:1043DC00019308BD3C02030008B5024B1B685B69E6
:1043EC00019308BD3C02030008B5024B1B689B6996
:1043FC00019308BD3C02030008B5024B1B68DB6946
:10440C00019308BD3C02030008B5024B1B689B6A74
:10441C00019308BD3C02030008B5024B1B681B68E6
:10442C00019308BD4C02030008B5024B1B685B6886
:10443C00019308BD4C02030008B5024B1B681B69B5
:10444C00019308BD4C02030008B5024B1B685B6965
:10445C00019308BD4C02030008B5024B1B689B6915
:10446C00019308BD4C02030008B5024B1B68DB69C5
:10447C00019308BD4C02030008B5024B1B681B6A74
:10448C00019308BD4C02030008B5024B1B685B6826
:10449C00019308BD2002030008B5024B1B685B6941
:1044AC00019308BD2002030008B5034B1B68D3F829
:1044BC008830019308BD00002002030008B5034BAF
:1044CC001B68D3F89430019308BD00002002030050
:1044DC0008B5024B1B68DB6B019308BD440203005B
:1044EC0008B5024B1B685B68019308BD40020300D2
:1044FC0008B5024B1B689B68019308BD4002030082
:10450C0008B5024B1B68DB68019308BD4002030031
:10451C0008B5024B1B681B69019308BD40020300E0
:10452C0008B5024B1B685B69019308BD4002030090
:10453C0008B5024B1B689B69019308BD4002030040
:10454C0008B5024B1B68DB69019308BD40020300F0
:10455C0008B5024B1B681B6A019308BD400203009F
:10456C0008B5024B1B681B6B019308BD400203008E
:10457C0008B5024B1B685B6B019308BD400203003E
:10458C0008B5024B1B681B68019308BD1C02030095
:10459C0008B5024B1B685B68019308BD1C02030045
:1045AC000021FFF779BF0000024800230360FFF7EA
:1045BC006BBE00BFC8E3032010B58368044613B17B
:1045CC00032201469847204610BD00221146406840
:1045DC00FFF7BEBF002211464068FFF7C9BF00229B
:1045EC004068FFF7BDBF002281F001014068FFF772
:1045FC00A7BF00231A4619464068FFF799BF00234E
:10460C001A4619464068FFF78BBF002211464068D6
:10461C00FFF77EBF002211464068FFF769BF0022FA
:10462C0002214068FFF76CBF00231A464068FFF771
:10463C0057BF0000024B03225A60024A1A607047AF
:10464C00CCE303202C540D007047F8B506461546F4
:10465C000C468F18BC4206D0336814F8011B9B68BB
:10466C0030469847F6E72846F8BD0022007CFFF755
:10467C004BBE0021007CFFF74FBE0021007CFFF7F2
:10468C0053BE0021007CFFF757BE0021007CFFF7D2
:10469C005BBE10B51421044600F0DBFC204610BDB7
:1046AC0010B504464FF47A730846A3600021044BFE
:1046BC00207461602360FFF74FFE204610BD00BFE1
:1046CC0060540D0000231A461946007CFFF7FCBD10
:1046DC0013B50024007C0094FFF7FEFDC0B202B0BD
:1046EC0010BD0123FFF7F4BF0022007CFFF7FCBDD7
:1046FC000022007CFFF700BE0121FFF7F9BF7047D5
:10470C0010B51821044600F0A4FC204610BDF0B5ED
:10471C00037D062B8DB00E4600F104074FF000040C
:10472C0002D000F1080518E00CAD394605F8304D03
:10473C002F232A460A20FFF717FE284600F01EFEFC
:10474C0033680246DB682946304698470FE024B1AF
:10475C002E21304600F0CEF9044415F8011D0A2232
:10476C00304600F00DFABD420444F0D120460DB0A5
:10477C00F0BD000010B5054B0446112240F8043B77
:10478C00002100F0CAFD204610BD00BF88540D006A
:10479C000346074A10B543F8042B01F1100251F8F7
:1047AC00044B43F8044B9142F9D10A781A7010BDAE
:1047BC0088540D0010B59DF8084044EA032343EAE1
:1047CC00024242EA016104234160037510BD37B512
:1047DC000D788B784A78C97800912946FFF7EAFF63
:1047EC0003B030BD014B024A1A607047D4E303207A
:1047FC0007550D00002211464068FFF7A9BE0022A4
:10480C0011464068FFF7B4BE00224068FFF7A8BE0F
:10481C00002281F001014068FFF792BE00231A4686
:10482C0001214068FFF784BE00231A4619464068F0
:10483C00FFF776BE002211464068FFF769BE0022E2
:10484C0011464068FFF754BE002202214068FFF772
:10485C0057BE00231A464068FFF742BE38B50546DE
:10486C0088B104684CB1A3681BB1032221462046D1
:10487C0098471021204600F0ECFB28461421BDE897
:10488C00384000F0E6BB38BD10B103685B681847D0
:10489C00704710B503680446BBB15868FFF7D4FCE9
:1048AC0078B923685A7C12B95868FFF7D5FC23688D
:1048BC005868FFF7D9FC20680023236028B1FFF764
:1048CC00CDFF206808B1FFF7C9FF204610BD0000DE
:1048DC0038B50C4B03600446D0F8CC0108B1FFF797
:1048EC00D6FBD4F8C45135B12846FFF7D2FF0421CA
:1048FC00284600F0AEFBA06808B1FFF7C5FF2046C4
:10490C0038BD00BF80550D0038B50E4C0E4B2360E2
:10491C000025022304F5E4706360A560C4F8C4515B
:10492C00C4F8C851FFF7B0FC084BC4F8CC5184F85C
:10493C00D05123602046064A0649BDE8384000F0B5
:10494C0083BB00BFD8E30320B4550D0080550D0088
:10495C00BCE30320DD480D0000231A464068FFF736
:10496C00BFBD002202214068FFF7CABD00221146DC
:10497C004068FFF7BDBD002211464068FFF7C8BD77
:10498C0000231A4619464068FFF7CABD00231A4691
:10499C0019464068FFF7CCBD002281F00101406848
:1049AC00FFF7CEBD00224068FFF7DABD00221146AA
:1049BC004068FFF7DDBD002211464068FFF7C8BD17
:1049CC002DE9F043002495B016460D460746FFF737
:1049DC00D1FE214620220CA8009400F09EFC40231E
:1049EC000C9321466B460CAA3046FFF7CDFC0446CF
:1049FC00002844D1024601216868FFF789FD022195
:104A0C00804622466868FFF783FD009E814621465A
:104A1C00002E34D0002932D17368022B02D00A2B1D
:104A2C0009D02AE0B8F1000F27D07169384604315B
:104A3C00FFF7CDFE20E0B9F1000F1ED074691122F2
:104A4C0001A800F06AFC06238DF8143001AD04F1C6
:104A5C0008031834186859682A4603C20833A3425D
:104A6C001546F7D101A906A807ADFFF791FE0FCDAA
:104A7C003C1D0FC42B6823700121F669C8E7009810
:104A8C00FFF77AFC384615B0BDE8F083024B034AB9
:104A9C001A6000225A607047ACE50320B4550D0033
:104AAC00F8B506460D468F180024BD420CD033686D
:104ABC0015F8011B9B6830469847002801DB04441D
:104ACC00F3E7002C08BF04462046F8BD70B5054638
:104ADC000C46084649B100F051FC2B6802462146B1
:104AEC002846DB68BDE87040184770BD08B5FFF775
:104AFC00EDFF08BD03689B68184738B50D210546C6
:104B0C00FFF7F8FF0A2104462846FFF7F3FF20447D
:104B1C0038BD38B50546FFF7D9FF04462846FFF7E0
:104B2C00ECFF204438BD30B58BB00B4600218DF81E
:104B3C002410012A98BF0A220DF12304B3FBF2F5CD
:104B4C0005FB123303F0FF03092B94BF30333733CB
:104B5C00DBB2214604F801392B46002DEED1FFF7CC
:104B6C00B5FF0BB030BD10B42AB903685DF8044B27
:104B7C009B68C9B21847D2B25DF8044BFFF7D3BF9C
:104B8C00FFF7F1BF2DE9F04107460E4615462AB94D
:104B9C000368C9B29B68BDE8F04118470A2A02D1E4
:104BAC00002901DA04E0D2B2BDE8F041FFF7BBBF47
:104BBC002D21FFF79FFF2A46044671423846FFF726
:104BCC00B2FF2044BDE8F08138B50546FFF7DAFFA7
:104BDC0004462846FFF791FF204438BD10B5044623
:104BEC00FFF7EAFC204610BD0348044A04490023A1
:104BFC00836000F029BA00BFB4E50320BCE30320B6
:104C0C00E94B0D00704710B51021044600F021FA55
:104C1C00204610BD70B5084B0360044600250E46B7
:104C2C0040F80C5FFFF728FB30462671FFF7B4FB0A
:104C3C00A560204670BD00BFE8550D00044B002058
:104C4C004FF6FF72187058809A80FFF71DBC00BF9A
:104C5C00C4E50320024B1A68024B1A60704700BF70
:104C6C0054E30320CCE5032070474174704708B52A
:104C7C00007CFFF7C9FB20EAE07008BD08B5007C9A
:104C8C00FFF7A2FB20EAE07008BD08B5007CFFF737
:104C9C00ABFB30EA200028BF4FF0FF3008BD08B551
:104CAC00007CFFF799FB30EA200028BF4FF0FF3063
:104CBC0008BD007CFFF7A0BB10B51421044600F022
:104CCC00C8F9204610BD70B5457C04460E4625B982
:104CDC00007CFFF799FB002805DD3146207CBDE800
:104CEC007040FFF769BB284670BD000010B5044644
:104CFC0008461146002262604FF47A72A260054A9F
:104D0C0022600122207462741A46FFF74DFB204684
:104D1C0010BD00BF24560D0038B50C4D296811F09C
:104D2C00010411D12846FFF7B4F968B1084A094BC0
:104D3C0009482146FFF7DAFF2846FFF7AFF9074A83
:104D4C000749054800F080F9034838BD68E60320A0
:104D5C006CE60320E4E50320D0E50320BCE303204C
:104D6C00754C0D0041747047704708B50021007CEC
:104D7C00FFF772FB30EA200028BF4FF0FF3008BD70
:104D8C0008B50121007CFFF767FB30EA200028BF43
:104D9C004FF0FF3008BD08B5007CFFF755FB20EA4B
:104DAC00E07008BD08B5007CFFF746FB20EAE07018
:104DBC0008BD007CFFF760BB10B51421044600F061
:104DCC0048F9204610BD38B50446007C0D46FFF767
:104DDC003BFB002801DC607C28B12946207CFFF7D6
:104DEC0043FB20EAE07038BD10B504460023636035
:104DFC004FF47A73A360054B23600123084621749A
:104E0C0063741146FFF708FB204610BD54560D0085
:104E1C000022007CFFF708BB10B5142204460021C9
:104E2C0000F07BFA204610BD30B50E4D87B001A8BE
:104E3C00FFF7F2FF296811F0010410D12846FFF7A3
:104E4C0028F960B101AA21460748FFF7CDFF284693
:104E5C00FFF724F9054A0649034800F0F5F8024823
:104E6C0007B030BDF0E60320F4E60320BCE30320DA
:104E7C00754D0D00002211464068FFF749BB00221A
:104E8C0011464068FFF764BB002211464068FFF7EB
:104E9C006FBB00224068FFF763BB002281F0010169
:104EAC004068FFF74DBB00231A4619464068FFF7D0
:104EBC003FBB00231A4619464068FFF731BB00225E
:104ECC0011464068FFF714BB002202214068FFF72F
:104EDC0017BB00231A464068FFF702BB024B0422A3
:104EEC005A60024A1A60704708E7032084560D0086
:104EFC0008B50C4B33B1FFF797FF03681B69984754
:104F0C00002809DC084B63B1FFF706FF03681B6937
:104F1C009847002803DC08BDAFF30080F2E7AFF33D
:104F2C00008008BD000000000000000008B5FFF77D
:104F3C00DFFFFFF7B9F9014B186008BD14E7032038
:104F4C0007B5002300931A466FF07701FFF7B6FA06
:104F5C0003B05DF804FB000007B543880A2B08D0AA
:104F6C00502B09D1094B1B683BB103B05DF804EB26
:104F7C001847FFF7E5FF06E0002300931A466FF091
:104F8C007701FFF79BFA03B05DF804FB10E70320F1
:104F9C0010B5FFF781F9044600F0C8F9074B13B1BF
:104FAC002046AFF3008000210448FFF791FA00215E
:104FBC000348BDE81040FFF777BA00BF00000000BF
:104FCC00654F0D0038B50B4D296811F001040FD158
:104FDC002846FFF75EF858B121460748FFF760FBFB
:104FEC002846FFF75BF8054A0549034800F02CF802
:104FFC00014838BD18E703201CE70320BCE303205D
:10500C0055460D0070B50C4C0C4E0D4D0021204634
:10501C00FFF700FE20460B4C3246294600F014F8F0
:10502C0001212046FFF7F6FD324629462046BDE811
:10503C00704000F009B800BF30E70320BCE3032048
:10504C00114C0D0040E703200B460146184600F0BA
:10505C004BB9FFF71AB80000244B1A68D0075CBF95
:10506C0001221A60224B1A68D1075CBF01221A6018
:10507C00204B1A68D2075CBF01221A601E4B1A68BB
:10508C00D0075CBF01221A601C4B1A68D1075CBFA9
:10509C0001221A601A4B1A68D2075CBF01221A60EF
:1050AC00184B1A68D0075CBF01221A60164B1A689D
:1050BC00D1075CBF01221A60144B1A68D2075CBF7F
:1050CC0001221A60124B1A68D0075CBF01221A60C9
:1050DC00104B1A68D1075CBF01221A600E4B1A687C
:1050EC00D2075CBF01221A60704700BF7CE7032027
:1050FC0078E7032074E7032070E703206CE70320B4
:10510C0068E7032064E7032060E703205CE70320E3
:10511C0058E7032054E7032050E70320184B1A6884
:10512C00D1075CBF01221A60164B1A68D2075CBF0C
:10513C0001221A60144B1A68D0075CBF01221A6056
:10514C00124B1A68D1075CBF01221A60104B1A6807
:10515C00D2075CBF01221A600E4B1A68D0075CBFE5
:10516C0001221A600C4B1A68D1075CBF01221A602D
:10517C000A4B1A68D2075CBF01221A60704700BF45
:10518C009CE7032098E7032094E7032090E7032093
:10519C008CE7032088E7032084E7032080E70320C3
:1051AC00184B1A68D1075CBF01221A60164B1A689B
:1051BC00D2075CBF01221A60144B1A68D0075CBF7F
:1051CC0001221A60124B1A68D1075CBF01221A60C7
:1051DC00104B1A68D2075CBF01221A600E4B1A687A
:1051EC00D0075CBF01221A600C4B1A68D1075CBF58
:1051FC0001221A600A4B1A68D2075CBF01221A609E
:10520C00704700BFBCE70320B8E70320B4E70320D6
:10521C00B0E70320ACE70320A8E70320A4E70320B2
:10522C00A0E70320244B1A68D0075CBF01221A6048
:10523C00224B1A68D1075CBF01221A60204B1A68F6
:10524C00D2075CBF01221A601E4B1A68D0075CBFE4
:10525C0001221A601C4B1A68D1075CBF01221A602C
:10526C001A4B1A68D2075CBF01221A60184B1A68D5
:10527C00D0075CBF01221A60164B1A68D1075CBFBD
:10528C0001221A60144B1A68D2075CBF01221A6003
:10529C00124B1A68D0075CBF01221A60104B1A68B7
:1052AC00D1075CBF01221A600E4B1A68D2075CBF93
:1052BC0001221A60704700BFECE70320E8E70320E7
:1052CC00E4E70320E0E70320DCE70320D8E7032032
:1052DC00D4E70320D0E70320CCE70320C8E7032062
:1052EC00C4E70320C0E7032010B5054C13462CB1CE
:1052FC000A4601460220AFF3008010BD204610BDC7
:10530C000000000010B5431E0A44914204D011F86D
:10531C00014B03F8014FF8E710BD024403469342DA
:10532C0002D003F8011BFAE77047000038B5124BA6
:10533C001C68A36B0546D3B91820FFF721F943F27B
:10534C000E33A06303804AF6CD33438041F23423FD
:10535C0083804EF26D63C3804DF6EC6303810523AD
:10536C0043810B23838101220023C0E90423A36B17
:10537C0000221D615A6138BDB8E30320034613F8BF
:10538C00012B002AFBD1181A013870471D400D0063
:10539C0059400D0085400D0089400D0000000000B3
:1053AC0048656C6C6F210047657474696E67207377
:1053BC00696E676C652D656E6465642072656164E9
:1053CC00696E67732066726F6D2041494E302E2EC8
:1053DC0033004144432052616E67653A202B2F2DD8
:1053EC0020362E3134345620283120626974203D09
:1053FC0020336D562F414453313031352C20302E13
:10540C00313837356D562F41445331313135290000
:10541C0041494E313A20000000000000000000001D
:10542C0035460D002B460D0021460D0017460D008C
:10543C000B460D00FF450D00F3450D00EB450D002F
:10544C00E1450D00D7450D00CD490D0000000000D1
:10545C000000000055460D009F460D0077460D00DC
:10546C0057460D007F460D0087460D008F460D00F8
:10547C0097460D0000000000000000001B470D00C7
:10548C000B470D000D470D0062617564005365728A
:10549C0069616C0053657269616C31007479706577
:1054AC0000706172616D00636D6400696400686E08
:1054BC0064007374726D0066696C74006C766C00B9
:1054CC0061646448616E646C65720072656D6F76C0
:1054DC006548616E646C657200656E756D48616ED1
:1054EC00646C657273004A534F4E53747265616DF0
:1054FC004C6F6748616E646C65720061707000255A
:10550C003031307520005D20002564002C200028EF
:10551C00293A2000205B00636F6465203D20002544
:10552C00690064657461696C73203D20000D0A008C
:10553C0066006C6E00666E00636F64650064657473
:10554C0061696C006E6F6E650074726163650069F1
:10555C006E666F007761726E006572726F720070AA
:10556C00616E696300616C6C00000000000000005B
:10557C00000000005F480D0055480D004B480D0021
:10558C0041480D0035480D0029480D001D480D00FF
:10559C0015480D000B480D0001480D00CD490D00BC
:1055AC00000000000000000065490D006F490D006F
:1055BC0079490D0083490D008D490D0099490D0065
:1055CC00A5490D00B1490D00B9490D00C3490D00A5
:1055DC00CD490D000000000000000000114C0D0032
:1055EC00134C0D005A00252B3033643A253032759C
:1055FC000025592D256D2D25645425483A254D3A05
:10560C002553257A0061736374696D650000000091
:10561C000000000000000000754C0D00C54C0D0092
:10562C00D34C0D00AD4A0D00894C0D00AB4C0D0058
:10563C00974C0D00BF4C0D00774C0D007B4C0D00B2
:10564C000000000000000000754D0D00C54D0D0060
:10565C00D34D0D00AD4A0D00B14D0D00774D0D0031
:10566C008D4D0D00BF4D0D00A34D0D00714D0D0066
:10567C000000000000000000DF4E0D00D54E0D00B4
:10568C00CB4E0D00814E0D00BF4E0D00B34E0D00E4
:10569C00A74E0D009F4E0D00954E0D008B4E0D002C
:1056AC00CD490D00000000000000000000000000CB
:1056BC0000000000000000000000000000000000DE
:1056CC0000000000000000000000000000000000CE
:1056DC0000000000000000000000000000000000BE
:1056EC0000000000000000000000000000000000AE
:1056FC00000000000000000000000000000000009E
:10570C00000000004300000039410D0051420D0023
:10571C00B5450D0041460D00F1470D0015490D0032
:10572C00994A0D00F54B0D00494C0D00614C0D00D4
:10573C00E94E0D0011500D0065500D0029510D0062
:10574C00AD510D0031520D000000000000000000B2
:04575C000000000049
:1057600011560D0000000000B0560D00D0560D007F
:10577000F0560D00000000000000000000000000D6
:105780000000000010570D000000000000000000A5
:105790000000000000000000000000000000000009
:1057A00000000000000000000000000000000000F9
:1057B00000000000000000000000000000000000E9
:0857C0000000000058E3032083
:1057C800FFFFFFFF00000102030405060708090A9E
:1057D8000B0C0D0E0F101112131415161718191A99
:0857E8001B1C1D1E1F202800E0
:0457F00078563412A1
:04000003D000401CCD
:00000001FF
