:02000002D0002C
:1040000000400D0080840D00000006000C0005013A
:084010000401DB0700000000C1
:044018002C7F0D00EC
:1040200009480A49884208B505D0094A824202D0A7
:10403000121A03F0DFFE0748074A0021121A03F0A4
:10404000E7FE014808BD00BFE8E30320E4830D005C
:104050005CE403205CE40320F0E7032070B5074E26
:10406000074C03F02FF8A41BA4080025A54200D19B
:1040700070BD56F8043B98470135F7E7AC830D0057
:10408000D4830D0000F0D4BF08B500F097FDBDE863
:10409000084002F0D9BF01F0FDBE01F0FBBE01F007
:1040A00001BF0078B0FA80F0400970470123037027
:1040B000704710B40446084611461A4623681C6827
:1040C00024B1A4469B685DF8044B604702205DF86C
:1040D000044B704710B40446084611461A4623683C
:1040E0005C6824B1A4469B685DF8044B60470220DD
:1040F0005DF8044B7047032907B50BD809018DF80B
:10410000071001230DF107027F21FFF7D2FF03B053
:104110005DF804FB0320FAE72DE9F04385B01D4666
:104120009DF834608DF80620002E14BF6FF07F03D9
:104130000023194304468DF807100321FFF7DBFF26
:1041400001230DF1070213212046FFF7B2FF0028DB
:1041500068D103212046FFF7CEFF01230DF10602AF
:1041600014212046FFF7A5FF00285BD19DF83820D9
:104170009DF8309082F00102520162F07F028DF8CA
:10418000082007461FFA89F9BBB299454AD9002E83
:104190003CD003212046FFF7AEFF012302AA1521E0
:1041A0002046FFF786FF00283CD1804600212046AC
:1041B000FFF7A1FF012303AA17212046FFF78AFF7B
:1041C0009DF80C3040F2E7311A46C3F3801388455E
:1041D00088BF43F00103DB0708F10108E6D5C2F30D
:1041E0000013884594BF984643F0010818F0010F6A
:1041F0001BD14EB103212046FFF77DFF0123EA19B1
:1042000017212046FFF766FF0137BDE7032120464F
:10421000FFF771FF0123EA1916212046FFF749FF36
:104220000028B6D005B0BDE8F0830120FAE730B52C
:1042300085B001240025CDE901540094FFF76CFFFF
:1042400005B030BD1FB50124CDE901440094FFF74E
:1042500063FF04B010BD13B504460021FFF74BFF08
:10426000012301AA06212046FFF734FF58B99DF823
:10427000043043F080038DF8043001AA01230621A5
:104280002046FFF716FF02B010BD37B504460D46B5
:104290000021FFF730FF012301AA06212046FFF786
:1042A00019FF58B99DF8043065F386138DF8043072
:1042B00001AA012306212046FFF7FBFE03B030BD13
:1042C00037B504460D460021FFF715FF012301AA6B
:1042D00006212046FFF7FEFE58B99DF8043065F32D
:1042E00045138DF8043001AA012306212046FFF76B
:1042F000E0FE03B030BD70B505460C4651B100215B
:10430000FFF7F9FE224628460123BDE87040002150
:10431000FFF7E0BE032070BD07B500230DF10701D4
:104320008DF80730FFF7E7FF20B99DF80730EA2B3B
:1043300018BF042003B05DF804FB11F0130F73B530
:1043400006460C4615462AD00021FFF7D4FE20BBB6
:10435000012301AA05213046FFF7BCFEE8B9E107B9
:1043600042BF9DF8043065F345138DF80430A20771
:1043700042BF9DF8043065F304138DF80430E30662
:1043800042BF9DF8043065F386138DF8043001AA0E
:10439000012305213046FFF78CFE02B070BD0720D7
:1043A000FBE711F0030F2DE9F34106468846174657
:1043B00041D011F0010419D00221FFF79CFE012326
:1043C000054601AA14213046FFF784FE9DF804300B
:1043D000284367F34203C4B28DF8043001AA0123D5
:1043E00014213046FFF765FE0443E4B218F0020FD3
:1043F0001DD002213046FFF77EFE012319460546F7
:1044000001AA3046FFF766FE9DF80430C7F3810726
:1044100067F3420328438DF804300123044301AAC3
:1044200019463046FFF745FEE4B20443E4B22046A5
:1044300002B0BDE8F0810724F9E7F0B585B0064683
:10444000ADF804208A070F4642D011F001041CD0B9
:104450000221FFF750FE0123054603AA142130462E
:10446000FFF738FE9DF80C309DF8042062F3C50379
:1044700005438DF80C3003AA012314213046FFF7C1
:1044800018FEEDB245EA0004E4B2BB071DD50221D7
:104490003046FFF730FE01231946054603AA304691
:1044A000FFF718FE9DF80C309DF8052062F3C50358
:1044B00028438DF80C300123044303AA19463046E3
:1044C000FFF7F7FDE4B20443E4B2204605B0F0BDC7
:1044D0000724FAE711F0030F2DE9F3410646884659
:1044E00017463FD011F0010419D00221FFF703FE57
:1044F0000123054601AA14213046FFF7EBFD9DF884
:104500000430284367F30003C4B28DF8043001AAD5
:10451000012314213046FFF7CCFD0443E4B218F028
:10452000020F1BD002213046FFF7E5FD012319469B
:10453000054601AA3046FFF7CDFD9DF8043067F32C
:10454000000328438DF804300123044301AA1946CF
:104550003046FFF7AEFDE4B20443E4B2204602B0B9
:10456000BDE8F0810724F9E737B50D460021044680
:10457000FFF7C1FD90B9012301AA0F212046FFF7E3
:10458000A9FD58B99DF8043065F341038DF8043056
:1045900001AA01230F212046FFF78BFD03B030BD98
:1045A00037B50D4600210446FFF7DEFF90BB03211F
:1045B0002046FFF7A0FD68BB01236A461946204646
:1045C000FFF788FD30BB9DF8003023F01F0343F058
:1045D00017038DF8003001236A4619462046FFF77D
:1045E00068FDB8B901462046FFF785FD90B9012363
:1045F00001AA03212046FFF76DFD58B99DF804304C
:1046000065F345138DF8043001AA012303212046E8
:10461000FFF74FFD03B030BD13B500210446FFF78F
:104620006AFD90B9012301AA03212046FFF752FD3C
:1046300058B99DF8043043F002038DF8043001AA04
:10464000012303212046FFF734FD02B010BD2DE900
:10465000FF4103299DF82C8005460C4617461E464F
:1046600047D80321FFF747FD00283FD19DF80430CC
:1046700067F306038DF80430B8F1000F04D0DBB205
:1046800043F080038DF80430A400E4B2E11C012360
:1046900001AAC9B22846FFF70CFD38BB211D012332
:1046A00002AA01F0FC0128468DF80860FFF701FD21
:1046B000E0B99DF828309DF8382003F00F0343EA55
:1046C00002139DF8342043EA42139DF83C2043EA4C
:1046D00082139DF83020611D43EAC2138DF80C301F
:1046E00003AA0123C9B22846FFF7E3FC04B0BDE8E2
:1046F000F0810320FAE72DE9D04180468BB00F46C8
:10470000002900F08F800021FFF7F5FC17230646F3
:1047100004AA2D214046FFF7DDFC9DF810209DF8EE
:10472000113043EA02233B809DF812209DF813309C
:1047300043EA02237B809DF814209DF8153043EA5C
:104740000223BB809DF816209DF8173043EA022310
:10475000FB809DF818209DF8193043EA02233B8125
:104760009DF81A209DF81B3043EA02237B819DF8B7
:104770001C209DF81D3043EA02237B829DF81E30E9
:104780009DF820207B759DF81F3043EA0223BB81F2
:104790009DF822209DF8213043EA0223FB819DF8F9
:1047A00024209DF8233043EA022330433B829DF8C6
:1047B0002630BB75C4B202214046FFF79CFC204363
:1047C000C6B2012301AA14214046FFF783FC9DF8DD
:1047D00004303A7DC3F3410363F301023043C6B2B0
:1047E0003A7502214046FFF786FC0123194606432D
:1047F00002AA4046FFF76EFC9DF808303A7DC3F3ED
:10480000410363F38302F4B204433A75012303AA1C
:1048100015214046FFF75EFCE4B22043C0B20BB066
:10482000BDE8D0810320FAE7014B1860704700BF54
:1048300060E50320704700002DE9F04F7449DFF870
:104840004092744FDFF83C827348744C744B0A6892
:104850001B68744D744E92FBF3F20A60D9F8002085
:1048600092FBF3F2C9F800203A6892FBF3F23A6047
:10487000D8F8002092FBF3F2C8F80020026892FBFF
:10488000F3F20260226892FBF3F22260674C684800
:10489000226892FBF3F222602A6892FBF3F22A600C
:1048A000326892FBF3F33360624B634ADFF8D8A1BE
:1048B000DFF8D8B1126819461B6893FBF2F30B605E
:1048C0005E490268DAF8003093FBF2F39FB02120D2
:1048D0000A68CAF80030DBF8003093FBF2F3CBF83B
:1048E000003002F089FC564B1B68189302F0A8FFB9
:1048F00045A3D3E9002303F00DF803F01DFA02F0FD
:10490000B1FF504B002202F04DFE4F4B002203F04E
:104910002BF900224D4B02F0FDFF03F00DFA02F0DF
:10492000A1FFCDE916014A4B186802F09BFFCDE9C3
:104930001401484B48481B681293484B484A1B686F
:104940001193484B48491B681093484B1B680F93C1
:1049500003680E93464B47481B680D9313680C93EE
:104960000B680B9303680A93336809932B680893C9
:1049700023682A4C07932368274806930368059306
:10498000D8F8003004933B680393DBF800300293BF
:10499000DAF800300193274AD9F800301C49009317
:1049A0000DF1680C13680A683349324C2E4F2C4EB7
:1049B0002F4D604602F030F90DF1680C61462F482A
:1049C00002F0AEF80DF1680C604602F013F8002317
:1049D0002360134A204C3B6033602B6023601360DC
:1049E000224F204E1D4D164C134A114813493B606F
:1049F00033602B602360136003600B601FB0BDE861
:104A0000F08F00BFAFF300809402C1D2AF63523F7A
:104A1000D4E40320B4E40320BCE40320C8E403206E
:104A2000E4E40320D0E40320C0E40320CCE403202A
:104A30008CE50320DCE4032084E5032018E5032053
:104A40003CE50320000008400000F23F0000594010
:104A500028E5032060E5032034E5032048E5032032
:104A60002CE5032044E5032058E5032040E503201E
:104A700030E5032054E50320407F0D0068E5032066
:104A8000D8E40320B8E40320E0E40320C4E40320D6
:104A90002D4A036811680B4413602C4B0268196897
:104AA0008A422B49C8BF1A600A6843681A440A60E0
:104AB000284A11688B422849C8BF13600A68836876
:104AC0001A440A60254A11688B422549C8BF136001
:104AD0000A68C3681A440A60224A11688B42224954
:104AE000C8BF136003690A681A440A601F4A116844
:104AF0008B421F49C8BF136043690A681A440A60A1
:104B00001C4A11688B421C49C8BF136083690A683C
:104B10001A440A60194A11688B421949C8BF1360C8
:104B2000C3690A681A440A60164A11688B4216491A
:104B3000C8BF1360036A0A681A440A60134A1168FE
:104B40008B42C8BF13607047D4E403204CE50320B8
:104B5000D8E4032050E50320B4E403202CE503202F
:104B6000B8E4032030E50320BCE4032034E503204F
:104B7000C8E4032040E50320CCE4032044E50320FF
:104B8000D0E4032048E50320C0E4032038E50320F7
:104B900038B5046805467CB16368013B63605BB966
:104BA000236820469B689847A368013BA3601BB914
:104BB00023682046DB689847284638BD2DE9F04F2A
:104BC0002DED028BB44C91B000F086FF2678012EBB
:104BD000054629D1B14F00F07FFF3B68C01A13286A
:104BE00022D900F079FF3860AD48AE4F00F00CFBE1
:104BF000AD49386007A801F088FF0A22396803A888
:104C000001F0A8FF03A907A801F0DBFF202101F0B4
:104C1000F9FF0146A44801F069FF03A801F0EAFE8C
:104C200007A801F0E7FE2670122002F0E5FA9F4A7D
:104C3000DFF800B31060112002F0DEFA9C49CBF8D7
:104C4000000007A800F0C6FC99489FED9A8ADFF89B
:104C5000E8A2DFF8E892DFF8E882974F974E984C89
:104C600000F024FD20EE080A9148BDEEC00A8AED4E
:104C7000000A00F01FFD20EE080A8D48BDEEC00AB4
:104C800089ED000A00F01AFD20EE080A8848BDEE02
:104C9000C00A88ED000A00F05DFD20EE080A844895
:104CA000BDEEC00A87ED000A00F058FD20EE080AAC
:104CB0007F48BDEEC00A86ED000A00F053FD20EEED
:104CC000080A7B48BDEEC00A84ED000A00F050FDE2
:104CD000764A7C4912680792DBF800200892DAF8DD
:104CE0000020099220EE080AD9F800200A92D8F88C
:104CF00000200B92FDEEC07A3A680C9232680D9259
:104D000017EE903A2268C1ED007ACDE90E236E4A83
:104D10006E4C136807A801331360FFF7B9FE6C48A7
:104D200000F0E8FB00F0D0FE2368C01A40F2DC532C
:104D300098421FD900F0C8FE2060664C2378022BF1
:104D400040D0032B53D0012B14D16348002100F035
:104D500032FA624A624B1860136803441360614B75
:104D60001A689042604AC8BF186013680133136024
:104D7000022323705D4C00F0AFFE2368C01AB0F52B
:104D80007A7F08D900F0A8FE2060594C2378012BC7
:104D900042D0032B67D002F07BF8564901F0B8FDF2
:104DA00002F076F8044600F097FE0A22411B2046E6
:104DB00001F0CFFD204601F0B6FD11B0BDEC028B35
:104DC000BDE8F08F4448012100F0F5F94A4A4B4B09
:104DD0001860136803441360494B1A689042494AAB
:104DE000C8BF18601368013313600323C1E73A4852
:104DF000022100F0E0F9444A444B18601368034470
:104E00001360434B1A689042424AC8BF1860136847
:104E1000013313600123ACE700F0D4FFE0B1224E70
:104E200003A8314601F071FE3B4903A801F0D5FE0D
:104E30000146304601F05AFE03A801F0DBFD374B76
:104E400037491B788DF8003003A832683C2301F005
:104E5000D5F904A8FFF79CFE3249134801F068FE1B
:104E60000323237097E7FFF7E7FC00F0ABFF68B17F
:104E70002A4B2D4A1B788DF8003003A812682B4965
:104E80003C2301F0BBF904A8FFF782FE284926481D
:104E900001F04EFE0123E4E7E8E3032010E50320E0
:104EA000A8E40320ECE40320F0E4032078E50320E9
:104EB00064E403200000C8421CE5032020E5032031
:104EC00024E50320E8E40320E4E403205CE5032078
:104ED00090E50320E9E30320AEE40320DCE40320B3
:104EE00080E5032054E5032084E5032064E50320E6
:104EF000EAE303203B810D00E0E4032088E5032082
:104F000058E503208CE50320C4E4032014E50320C6
:104F10003CE5032018E5032019810D0098E40320E7
:104F20001C810D0021810D0068E503202D810D00FD
:104F30006E810D007CE503209CE40320A0E40320A7
:104F4000A4E4032070B5184B184D194E194C0122DA
:104F50001A702946304601F098FD3046164E174A21
:104F6000214602F00FFB2946304601F08EFD304607
:104F7000134E124A214602F005FB2946304601F045
:104F800084FD21460D4A304602F0FCFA0D4800F03F
:104F9000A3FC48210C4800F0FEF8BDE870400B4827
:104FA000492100F0F8B800BF98E403206E810D009D
:104FB000F0E40320F5690D0000E503205CE4032024
:104FC00068E5032060E40320AEE40320A8E40320A6
:104FD000F8B5144D144E2F1D02F03EF9FF230022A8
:104FE0000146104800F022FD01F052FF314601F069
:104FF00096FC01F04DFF08210446384600F0DAFB2C
:105000000146204601F09BFC95F820304BB101F0A1
:105010003FFF064901F093FC4FF4FA7000F072FF75
:10502000DAE7F8BD60E4032047810D006F810D00D1
:1050300038B501F02DFF4FF4E13101F01DFF02F012
:105040000BF901F0D1FA02F007F92749274D284C56
:1050500001F0C6FAFFF7BCFF0021122002F0A2F80F
:105060000021112002F09EF80121052002F09AF89B
:105070000121042002F096F80121072002F092F8A5
:105080000121082002F08EF80121052002F09BF892
:105090000121042002F097F80021284600F089F849
:1050A0004FF40071204600F084F8284600F07AF8AA
:1050B000204600F077F80121072002F084F80F2144
:1050C0000C4800F00BF90B4800F010F900F004FD5B
:1050D000094B186000F000FD084B186000F0F4FC6C
:1050E000074B186038BD00BF801A0600AEE40320ED
:1050F000A8E4032090E5032064E5032010E50320E5
:105100005CE5032007B5019002F0A6F80368019959
:105110009B6803B05DF804EB184708B502F09CF8F3
:1051200003685B699847C0B208BD70B5064614466F
:105130000D4602F091F8314601F088FA2846FFF753
:10514000E1FF200AFFF7DEFFE0B2FFF7DBFF02F02E
:1051500083F8BDE8704001F081BA13B5019002F008
:105160007BF8019901F072FA0020FFF7CBFF02F003
:1051700073F801F073FA02F06FF80199022201F05E
:1051800062FAFFF7CAFF0446FFF7C7FF40EA0420B0
:1051900080B202B010BD00220170022182804170F5
:1051A0008270704708B502F057F8BDE8084001F07A
:1051B0001BBA81807047032910B5044622D8022902
:1051C000828819D003291AD0012914BF42F48342DE
:1051D00042F4A34242F0030242F40042012120784B
:1051E000FFF7A3FF607800F08DFE2078FFF7B5FF92
:1051F000A378184180B210BD42F4C342EAE742F4FA
:10520000E342E7E70020F6E710B58288044642F45F
:10521000014242F0830201210078FFF786FF6078A7
:1052200000F070FE2078FFF798FFA37818410BB9C3
:1052300000B210BD80B2B0F5006F28BF40F47040DE
:10524000F6E70000F0B5214C214985B00546012262
:105250001B2001F006FA00264FF040731D4A02A9F8
:105260002046CDE9023602F047F8204602F01EF94A
:10527000204602F035F92368D3F810354FF47A72DE
:10528000DBB202FB05F0020FC3F120070001A3F11E
:10529000200120FA03F402FA07F73C4322FA01F155
:1052A00022FA03F50C43012D08BF002C04D30A4A4F
:1052B00031460A2000F04AFD0123044800932246AB
:1052C000002102F03EF905B0F0BD00BFECE3032081
:1052D00071750D00E9540D00B95A0D0003680133D2
:1052E00008BF01600220FFF7ADBF000010B50368E2
:1052F0000133044602D00C4802F0BAF84FF40072B1
:10530000C4E9062240F20D216422C4E908124FF4D8
:1053100016720023E2604FF48072C4E904332285E0
:10532000E36284F8303010BDECE30320F8B5037974
:10533000044613B3684D2B68B3F5FA7F0CD3642091
:1053400001F025FB01280BDC4FF0FF33A3600123A4
:1053500084F8303000232B602B6801332B60F8BDBC
:1053600040F24C4140F2023001F01CFBE060E26888
:105370004EF66023B3FBF2F3E8E7584E008800F0E6
:10538000D3FB57493368052541F823000133B3FBAC
:10539000F5F202EB82029B1A3360D1E9003213442A
:1053A0008A6820691344CA6813440A69616913440E
:1053B000E268B3FBF5F3B2FBF5F2256A0230AB42CB
:1053C0002061A0EB010102EB420222DA914204D9F2
:1053D000E2699A42D4BFE261E36194F82820FAB10D
:1053E000D4E90625521B02EBD27605EB6605C4E92B
:1053F00006552562B2F5967F4FF00005626225855D
:1054000002DD012284F8302040F6C41291420ED809
:10541000A5E7A6699E42ACBFA661A361FA291ED882
:1054200040F6C41291429AD994F829202AB94FF033
:10543000FF32A260012284F83020D4E90621C4E9B9
:1054400006330123521A032584F8293092FBF5F222
:10545000214B60610A44226200221A607FE7AB425E
:10546000DEDD94F82850002DDAD19142D8D91A4EB9
:10547000E160012284F828203268DFF868C0D4F89F
:105480000CE060610A27B2FBF7F507FB1525013236
:10549000022A4CF825E032607FF661AF032A01BF93
:1054A000DCE90156AD196D08CCF800500D4F0A2A01
:1054B0004FF0000528BF0A222E4657F804CB0136CC
:1054C000B2426544F9DCB5FBF2F24EF66025B5FB5D
:1054D000F2F2A260A4E700BF04E60320C4E50320C3
:1054E000C8E50320DCE503200148FFF71FBF00BF2C
:1054F00090E5032010B590F8303004464BB1836836
:10550000002B07DB8068E168FFF78EF9002384F841
:10551000303010BDFFF78EF9F8E70000034B4FF075
:10552000FF321A6000221A71704700BF90E5032015
:1055300073B506460D460192BBB15C6AACB193F8F7
:105540002810204601F082F8236831469B682046E7
:1055500098472368019ADB682946204698472046E9
:1055600001F07CF8002002B070BD0320FBE72DE9BC
:10557000F04107460E4615462BB35C6A1CB393F800
:1055800028802046414601F061F8236839469B682F
:10559000204698470021204601F05CF82A46414603
:1055A000204601F050F8854210D100275FFA87F8B5
:1055B000454507F101070BD9236820465B699847E9
:1055C00006F80800F2E70320BDE8F0810620FBE7BB
:1055D0000020F9E770B50C460D1D06462946204609
:1055E000FFF789F804F81C0F2B4635461A4603CA04
:1055F000A24228606960134605F10805F6D13046DD
:1056000070BD00000000000008B5037E03F0030336
:1056100007EE901A032B31D8DFE803F002121C26A4
:10562000F8EEE77A17EE900A02F01CF917A3D3E917
:10563000002302F099FA02F07FFB00EE100A08BD89
:10564000F8EEE77A17EE900A02F00CF911A3D3E90D
:105650000023EEE7F8EEE77A17EE900A02F002F97F
:105660000EA3D3E90023E4E7F8EEE77A17EE900AF9
:1056700002F0F8F80BA3D3E90023DAE79FED020A62
:10568000DDE700BFAFF3008000000000FCA9F1D20D
:105690004D623040FCA9F1D24D622040FCA9F1D20C
:1056A0004D621040FCA9F1D24D620040B0F90410E7
:1056B000FFF7AABFB0F90610FFF7A6BFB0F90810B0
:1056C000FFF7A2BF0000000008B5037EC3F381030B
:1056D00007EE901A032B29D8DFE803F002090E1E0B
:1056E000F8EEE77A9FED187A87EE870A08BDF8EEA4
:1056F000E77A9FED167AF7E7F8EEE77A17EE900A69
:1057000002F0B0F80CA3D3E9002302F02DFA02F066
:1057100013FB00EE100AE9E7F8EEE77A17EE900ABD
:1057200002F0A0F806A3D3E90023EEE79FED080AF4
:10573000DCE700BFAFF300806666666666664040E1
:10574000666666666666304000000343000083427A
:1057500000000000B0F90A10FFF7B6BFB0F90C1056
:10576000FFF7B2BFB0F90E10FFF7AEBF00000000A8
:1057700008B5B0F9160007EE900AF8EEE77A17EED2
:10578000900A02F06FF809A3D3E9002302F0ECF9C4
:10579000054B002201F008FF02F0CEFA00EE100ADD
:1057A00008BD00BFAFF300800000354052B81E8531
:1057B000EBDD7440082908BF017F07299ABF024B1F
:1057C00053F821000148704708820D007F810D00C9
:1057D00010B50446FEF73FFD207710BD10B5044616
:1057E000FEF753FD207710BD10B50446FEF768FDA7
:1057F000207710BD10B50446FEF78EFD207710BD52
:1058000010B50446FEF799FD207710BD10B504468B
:10581000FEF7C7FD207710BD13B5ADF80420019A3F
:105820000446FEF70AFE207702B010BD10B504460C
:10583000FEF750FE207710BD10B50446FEF794FE2B
:10584000207710BD10B50446FEF7AAFE207710BDE4
:1058500010B50446FEF7E0FE207710BD30B587B0E6
:1058600004469DF83C5005959DF8385004959DF8E8
:10587000345003959DF8305002959DF82C500195B9
:105880009DF828500095FEF7E2FE207707B030BD66
:1058900013B58DF807300DF107030446FEF7C7FC7A
:1058A000207702B010BD13B50DF107030446FEF7D3
:1058B000C9FC20779DF8070002B010BD0A460C21F4
:1058C000FFF7F1BF10B513780A460C210446FFF725
:1058D000DFFF207710BD0000014B0360704700BF61
:1058E00030820D0038B500210446FFF7E7FF0121A3
:1058F00005462046FFF7E2FF482D04D1092802D1D2
:105900000020207738BD0420FBE730B5002189B0A6
:105910000446FFF791FF01212046FFF793FF05257D
:105920002046FFF7DFFF58B12046013DFFF790FF0B
:1059300015F0FF05F4D104201FE0207F09B030BD31
:105940009DF81C30082262F30403312107AA204687
:105950008DF81C30FFF7B6FF78B90123CDE901338C
:105960000923CDE9040003900093014610230C2283
:105970002046FFF773FF0028DFD02077DEE737B53A
:105980000546FFF737FF044618B12C77204603B0D1
:1059900030BD2846FFF71CFF04460028F5D1322011
:1059A00000F0B0FA21462846FFF718FF0446002809
:1059B000EBD101462846FFF717FF04460028E4D143
:1059C000024603212846FFF71BFF04460028DCD1CE
:1059D0004FF0000203212846FFF718FF0446002875
:1059E000D3D140F20773ADF80430019A0321284661
:1059F000FFF712FF04460028C7D1024601212846BE
:105A0000FFF714FF04460028BFD1024602212846B2
:105A1000FFF70CFF04460028B7D12846FFF775FFB3
:105A200004460028B1D12C7FB0E7000010B5044631
:105A3000184684F82930616284F82A20F2B9682275
:105A4000FF2884F8282002D0012101F0ABFB94F854
:105A50002900FF2803D094F82A1001F0B4FB084B6A
:105A6000E362084B2046C4E90C3404F12C0340F8EF
:105A7000043FFFF784FF84F8200010BD6922DFE7B0
:105A800031550D006F550D0008B5024B1B685B6C5E
:105A9000019308BD4802030008B5024B1B689B6CCC
:105AA000019308BD4802030008B5024B1B685B6800
:105AB000019308BD1802030008B5024B1B68DB68A0
:105AC000019308BD1802030008B5024B1B681B694F
:105AD000019308BD1802030008B5024B1B685B69FF
:105AE000019308BD1802030008B5024B1B685B68F0
:105AF000019308BD2C02030008B5024B1B689B688C
:105B0000019308BD2C02030008B5024B1B68DB683B
:105B1000019308BD2C02030008B5024B1B681B69EA
:105B2000019308BD2C02030008B5024B1B681B6BD8
:105B3000019308BD2C02030008B5034B1B68D3F882
:105B40009030019308BD00002C02030008B5024B01
:105B50001B681B68019308BD2802030008B5024BAF
:105B60001B68DB68019308BD2802030008B5024BDF
:105B70001B689B69019308BD2802030008B5024B0E
:105B80001B68DB69019308BD2802030008B5024BBE
:105B90001B681B6A019308BD2802030008B5024B6D
:105BA0001B685B6A019308BD2802030008B5024B1D
:105BB0001B689B6A019308BD2802030008B5024BCD
:105BC0001B68DB6A019308BD2802030008B5024B7D
:105BD0001B681B6B019308BD2802030008B5024B2C
:105BE0001B685B6B019308BD2802030008B5024BDC
:105BF0001B681B6C019308BD2802030008B5024B0B
:105C00001B681B6D019308BD2802030008B5024BF9
:105C10001B685B69019308BD6402030008B5024B71
:105C20001B689B68019308BD6802030008B5024B1E
:105C30001B68DB68019308BD6802030008B5024BCE
:105C40001B68DB69019308BD3002030008B5024BF5
:105C50001B681B6A019308BD3002030008B5024BA4
:105C60001B681B68019308BD3C02030008B5024B8A
:105C70001B68DB68019308BD3C02030008B5024BBA
:105C80001B681B69019308BD3C02030008B5024B69
:105C90001B685B69019308BD3C02030008B5024B19
:105CA0001B689B69019308BD3C02030008B5024BC9
:105CB0001B68DB69019308BD3C02030008B5024B79
:105CC0001B681B6A019308BD3C02030008B5024B28
:105CD0001B689B6A019308BD3C02030008B5024B98
:105CE0001B681B68019308BD4C02030008B5024BFA
:105CF0001B685B68019308BD4C02030008B5024BAA
:105D00001B681B69019308BD4C02030008B5024BD8
:105D10001B685B69019308BD4C02030008B5024B88
:105D20001B689B69019308BD4C02030008B5024B38
:105D30001B68DB69019308BD4C02030008B5024BE8
:105D40001B681B6A019308BD4C02030008B5024B97
:105D50001B685B6B019308BD6002030008B5024B32
:105D60001B685B68019308BD2002030008B5024B65
:105D70001B685B69019308BD2002030008B5024B54
:105D80001B68DB6C019308BD2002030008B5024BC1
:105D90001B685B6D019308BD2002030008B5034B2F
:105DA0001B68D3F88830019308BD0000200203006F
:105DB00008B5034B1B68D3F89430019308BD00006D
:105DC0002002030008B5024B1B685B69019308BD04
:105DD0004402030008B5024B1B681B6A019308BD0F
:105DE0004402030008B5024B1B68DB6B019308BD3E
:105DF0004402030008B5024B1B685B68019308BDB1
:105E00004002030008B5024B1B689B68019308BD64
:105E10004002030008B5024B1B68DB68019308BD14
:105E20004002030008B5024B1B681B69019308BDC3
:105E30004002030008B5024B1B685B69019308BD73
:105E40004002030008B5024B1B689B69019308BD23
:105E50004002030008B5024B1B68DB69019308BDD3
:105E60004002030008B5024B1B681B6A019308BD82
:105E70004002030008B5024B1B681B6B019308BD71
:105E80004002030008B5024B1B685B6B019308BD21
:105E90004002030008B5024B1B681B68019308BD54
:105EA0001C02030008B5024B1B685B68019308BD28
:105EB0001C02030008B5024B1B689B68019308BDD8
:105EC0001C02030008B5024B1B685B6A019308BD06
:105ED0001C02030008B5024B1B68DB6A019308BD76
:105EE0001C02030008B5024B1B681B6B019308BD25
:105EF0001C02030008B5024B1B685B6C019308BDD4
:105F00001C0203000021FFF731BF10B5836804466F
:105F10000BB901F040FBC3689847A3681BB103228B
:105F200021462046984720461021BDE8104001F048
:105F30002EBB10B50446006808B1FFF7ADFD204642
:105F400010BD0B68036013B15A6801325A60704784
:105F500010B5064C002320462360FFF795FD204630
:105F6000034A0449BDE8104001F00CBB08E60320D9
:105F70005CE40320335F0D0070470020704710B5CC
:105F80001021044601F003FB204610BD08B5FFF7C1
:105F9000F6FF08BD10B58368044613B1032201461D
:105FA0009847204610BD30B500224FF69C74026021
:105FB00084808D888C800C68858004600A6030BD88
:105FC00010B504460068FFF76DFF204610BD38B5D8
:105FD000C468F4B12378022B03D104F10C00FFF75D
:105FE000EFFF656835B12846FFF7D4FF102128463A
:105FF00001F0CDFAA56835B12846FFF7CBFF102197
:10600000284601F0C4FA20461421BDE8384001F0CA
:10601000BEBA38BD73B50E46044656F8043B00932D
:106020000D4601A83146FFF78CFF019A009B626084
:10603000236001A8002301930093FEF7A9FD3046D9
:10604000FEF7A6FD2846082101F0A1FA204602B07D
:1060500070BD13B50B460246D0E900016C4684E8DA
:10606000030093E8030082E8030094E8030083E858
:10607000030002B010BD826810B50AB901F08BFAB6
:10608000BDE81040C368184708B5006800F110016A
:10609000FFF7F1FF08BD826810B50AB901F07BFA7D
:1060A000BDE81040C368184708B5006800F110014A
:1060B000FFF7F1FF08BD000038B500230446036078
:1060C00010200D46FDF7E7FF28B10123C0E9013399
:1060D000024B0360C5602060204638BD3C820D0045
:1060E00038B5002383608B6804460D462BB102222D
:1060F0009847EB68E360AB68A360204638BD0000BA
:10610000F0B589B004686846FFF74DFF4FF0020311
:10611000D4E84F2F002A03D1C4E8413F0029F7D12A
:1061200025D104F10C0569462846FFF73CFFBFF373
:106130005B8F01236370002004F10803BFF35B8FC2
:1061400053E8006F43E80002002AF9D1BFF35B8FE8
:106150006EB1FFF713FE78B129463046FFF78BFF8B
:106160003046FFF717FF1021304601F010FA68465D
:10617000FFF726FF09B0F0BD314602A8FFF7B0FFD8
:10618000E068B4F9105008B101F0AAFE06901020A2
:10619000ADF81C50FDF77FFF0546E8B1002787608A
:1061A0001820FDF778FF044688B10146876002A8F1
:1061B000FFF74FFF049BA268A360059B049206A90A
:1061C000E268E36004F110000592FFF7ECFE084B73
:1061D000EB60084B2C60AB6006A8FFF7F1FE02A84D
:1061E000FFF7D8FE002229460348FFF7CFFDB7E7A7
:1061F00089600D0021630D000B5F0D002DE9F04754
:106200008AB005469DF848900C4617469846FFF719
:10621000D9FD07AE824638BB4FF62E73059005A90F
:106220003046ADF81830FFF7BEFE1420FDF733FFFF
:10623000044648B1022303700123C0E901AA437058
:1062400031460C30FFF7AFFE2846214640F8044B9C
:10625000FFF732FF3046FFF7B3FE05A8FFF7B0FEA9
:1062600028460AB0BDE8F0870C234FF0000A14203E
:10627000CDE908AA0793FDF70EFF014628B1C0E952
:1062800001AA80F800A080F801A004A80391FFF7FC
:1062900013FF224B08930820FDF7FDFE824628B12C
:1062A000039B40F8043B04A9FFF74BFE00965FFAFE
:1062B00089F3424639462046CDF824A0FFF78AFDEF
:1062C000B8B9039B5B7803F0FF0293B94FF69C7358
:1062D00005A903A80592ADF81830FFF711FF05A82E
:1062E000FFF76EFE05A80999FFF794FE06A8FEF7D2
:1062F0004FFC039B059304A906A8FFF722FE059B0C
:10630000069A2B606A60002306A806930593FEF7A1
:106310003FFC04A8FEF73CFCA2E700BFE5630D00CC
:10632000022AF8B5054607D0032A18D0012A01D160
:106330000B6803600020F8BD18200E68FDF7ABFE67
:10634000044650B13146FFF7CBFE3069B6F9147000
:1063500008B101F0C5FD2061A7822C60EAE704685E
:10636000002CE7D004F11000FFF72AFE2046FFF7CB
:1063700011FE1821204601F00AF9DBE738B50023A9
:1063800083608B6804460D462BB102229847EB6868
:10639000E360AB68A360204638BD022A70B50446AE
:1063A00007D0032A12D0012A01D10B680360002014
:1063B00070BD14200E68FDF76EFE054620B1314613
:1063C000FFF7DCFF337C2B742560F0E70468002CBA
:1063D000EDD02046FFF7DEFD1421204601F0D7F86E
:1063E000E5E70000F0B589B004460D4601A8114666
:1063F000FFF710FEA4B124B21DB1284601F070FDD4
:10640000054601A803A90395ADF81040FFF778FEF3
:1064100003A8FFF7D5FD02A8FEF7BAFB09B0F0BD4F
:10642000019D0123D5E84F2F002A03D1C5E8413F44
:106430000029F7D1EFD12B73BFF35B8F6B702B1D4E
:10644000BFF35B8F53E8006F43E80042002AF9D1A5
:10645000BFF35B8F002EDED02046FFF78FFC074690
:1064600060B105F10C013046FFF715FE3046FFF72D
:1064700091FD1021304601F08AF8CCE7314603A89F
:10648000FFF77CFF2B7B8DF81C301020FDF703FEFF
:106490000546D0B187601420FDF7FDFD044678B1B4
:1064A0008760014603A8FFF7D4FD059BA268A3609F
:1064B000069B0592E268E3609DF81C300692237407
:1064C000064BEB60064B2C60AB6003A8FFF762FD48
:1064D000002229460348FFF759FCC7E7A9600D00D1
:1064E0009B630D000B5F0D00002240681146FFF713
:1064F000B9BC002240681146FFF7C4BC40680022C6
:10650000FFF7B8BC4068002281F00101FFF7A2BC90
:10651000002340681A461946FFF794BC00234068E0
:106520001A461946FFF786BC002240681146FFF75D
:1065300079BC002240681146FFF764BC4068002225
:106540000221FFF767BC002340681A46FFF752BCE0
:10655000024B03225A60024A1A6070470CE603207D
:1065600058820D007047F8B5064615460C468F1840
:10657000BC4206D0336814F8011B9B68304698472C
:10658000F6E72846F8BD007C0022FFF7FFBA007C42
:106590000021FFF703BB007C0021FFF707BB007C55
:1065A0000021FFF70BBB007C0021FFF70FBB10B5EC
:1065B0001421044600F0EBFF204610BD10B54FF447
:1065C0007A73044608460021C4E90113034B236093
:1065D00020741146FFF70AFB204610BD8C820D0087
:1065E000007C0022FFF7B2BA0023007C1A4619464D
:1065F000FFF7B4BA7FB500221423CDE90122ADF82C
:1066000004300B788DF808304B680393CB68049303
:10661000007C0B7A059301A9FFF7F0FA07B05DF84B
:1066200004FB1FB5003B8DF800104FF0640103918F
:1066300018BF0123694601928DF80830FFF7DAFF91
:1066400005B05DF804FB0123FFF7EBBF007C0022DF
:10665000FFF78CBA007C0022FFF790BA0121FFF708
:10666000F9BF002A08B54FF0000314BF04221A46F0
:10667000FFF762FAB0FA80F0400908BD704710B524
:106680001821044600F083FF204610BDF0B5037DBD
:10669000062B8DB00E4600F104074FF0000412D017
:1066A00000F1080515F8011D0A22304600F051F9E5
:1066B000AF42044419D0002CF4D02E21304600F013
:1066C0002BF90444EEE72F236A4639460A208DF859
:1066D0000040FFF79BFA684601F01FFC3368024652
:1066E000DB68694630469847044620460DB0F0BD49
:1066F00010B5054B0446112240F8043B002101F07F
:1067000087FB204610BD00BFB4820D000346074A38
:1067100010B543F8042B01F1100251F8044B43F873
:10672000044B9142F9D10A781A7010BDB4820D0061
:1067300010B59DF8084044EA032343EA024242EAC6
:10674000016104234160037510BD13B5CB7800933C
:106750008B784A780978FFF7EBFF02B010BD000094
:10676000014B024A1A60704714E60320C0820D00F4
:10677000002340681A46FFF73DBB40680022022113
:10678000FFF748BB002240681146FFF73BBB0022E1
:1067900040681146FFF746BB002340681A46194679
:1067A000FFF748BB002340681A461946FFF74ABB6B
:1067B0004068002281F00101FFF74CBB40680022D5
:1067C000FFF758BB002240681146FFF75BBB002271
:1067D00040681146FFF746BB2DE9F043002495B011
:1067E00016460D460746FFF783FF214618220EA8DE
:1067F000009401F00DFB4023CDE90C3421466B469B
:106800000CAA3046FFF712FA0446002846D1024689
:1068100001216868FFF706FB02218046224668686E
:10682000FFF700FB009E81462146002E36D000294E
:1068300034D17368022B03D00A2B0BD0F669F4E72E
:10684000B8F1000F04D0716938460431FFF77DFFBD
:106850004146F3E7B9F1000F01D14946EEE774690B
:10686000102201A801F0D4FA06238DF8143001ADEE
:1068700004F108031834186859682A4603C208331B
:10688000A3421546F7D101A906A807ADFFF73EFFC1
:106890000FCD3C1D0FC42B682370DEE70098FFF777
:1068A000BDF9384615B0BDE8F0830000024B034A3D
:1068B0001A6000225A60704718E60320CC820D004F
:1068C000F8B506460D468F180024BD420CD033683B
:1068D00015F8011B9B6830469847031E01DB1C44DA
:1068E000F3E7002C08BF1C462046F8BD13B504464C
:1068F000084659B1019101F010FB23680199DB684A
:106900000246204602B0BDE81040184702B010BD54
:1069100008B5FFF7EBFF08BD03689B68184708B58B
:10692000FFF7E4FF08BD38B50D210546FFF7F4FF7A
:106930000A2104462846FFF7EFFF204438BD38B54A
:106940000546FFF7D3FF04462846FFF7ECFF204437
:1069500038BD30B58BB000238DF82430012A98BFA4
:106960000A2209AC0D46B1FBF2F101FB125303F010
:10697000FF03092B94BF30333733DBB2AA4204F84C
:10698000013DEFD92146FFF7B1FF0BB030BD10B587
:10699000044628B101F068FA90FBF4F303FB1404F9
:1069A000204610BD884210B5044603DA081AFFF7E6
:1069B000EEFF0444204610BD10B50446FFF7EAFA86
:1069C000204610BD0348044A04490023836000F0B8
:1069D000D9BD00BF20E603205CE40320B9690D00A7
:1069E00010B5044608462170FFF728F900236360BC
:1069F000204610BD10B504460068FFF753FA204644
:106A000010BD10B50446006808B1FFF74BFA00232B
:106A1000C4E90133236010BD38B504460D46006853
:106A20000131FFF747FA10B1C4E90005012038BD74
:106A300010B50368044623B143688B4201D301209B
:106A400010BD2046FFF7E8FF0028F9D0A368002B0F
:106A5000F5D122681370F2E737B50D461146019261
:106A60000446FFF7E5FF019A28B92046FFF7C9FF62
:106A7000204603B030BDA2602946206801F0BAF973
:106A80002268A3680021D154F2E7002313B5C0E9BE
:106A9000003304468360037341B10846019101F05D
:106AA0003CFA019902462046FFF7D6FF204602B085
:106AB00010BD38B5054600680C4668B16A688B6839
:106AC0009A4207D3096801F003FAA368AB60002378
:106AD000A36038BDFFF7E6F923682B6063686B603D
:106AE000A368AB600023C4E90033F1E7884210B526
:106AF000044605D00B682BB18A681946FFF7ACFF36
:106B0000204610BDFFF77DFFFAE710B500230446CD
:106B1000C0E9003383600373FFF7E8FF204610BD30
:106B2000884210B5044601D0FFF7C3FF204610BDD0
:106B300013B5044659B10846019101F0EEF90199E7
:106B400002462046FFF788FF204602B010BDFFF73F
:106B500058FFF9E710B504468AB00023C4E90033B2
:106B6000A3602373084601A900F036FA01A9204664
:106B7000FFF7DEFF20460AB010BD70B505460E4691
:106B800009B9002070BD6AB1846814442146FFF73A
:106B90004FFF0028F5D02868AB683146184401F053
:106BA00097F9AC600120EDE707B500238DF80410DC
:106BB000012201A98DF80530FFF7DFFF03B05DF872
:106BC00004FB10B58A6809680446FFF7D6FF10B9C0
:106BD0002046FFF716FF204610BD13B5044629B91D
:106BE0002046FFF70EFF204602B010BD0846019177
:106BF00001F093F9019902462046FFF7BEFF0028F5
:106C0000EED0F0E710B50446FFF7CEFF10B92046EE
:106C1000FFF7F7FE204610BD0EB470B587B00BAD80
:106C2000044655F8042B01922B46052104A8039530
:106C3000FFF748F90B4906462046FFF726FF314685
:106C40002046FFF7F5FE206830B1019A03952B46E8
:106C5000711CFFF737F9A060204607B0BDE870400F
:106C600003B070476E810D0010B50446006818B17E
:106C7000FFF718F90023236010BD10B50446FFF795
:106C8000F3FF204610BD000010B5094B094C02224D
:106C900000201A60084B2060A080A071A360FFF75D
:106CA0005DF82046054A0649BDE8104000F06ABC80
:106CB0003CE6032030E603200000FFFF5CE40320F5
:106CC0007B6C0D00024B1A68024B1A60704700BFC4
:106CD000F4E3032040E6032070474174704708B591
:106CE000007CFEF7F3FF20EAE07008BD08B5007CE9
:106CF000FEF7C4FF20EAE07008BD08B5007CFEF78F
:106D0000CDFF40EAE07008BD08B5007CFEF7BEFF8D
:106D100040EAE07008BD007CFEF7C8BF37B5457C8F
:106D200004462DB1207C03B0BDE83040FEF79EBF85
:106D3000007C0191FEF7CAFF00280199F2DC284689
:106D400003B030BD10B51421044600F020FC2046ED
:106D500010BD000010B54FF0000C04460846114667
:106D60004FF47A72C4E901C2044A226001222074FD
:106D700062741A46FEF772FF204610BD1C830D0098
:106D800013B50E4C2178BFF35B8F11F0010112D1C6
:106D900020460191FDF785F9019960B1084A094B38
:106DA0000948FFF7D7FF2046FDF780F9074A084951
:106DB000054800F0E7FB044802B010BD44E603209C
:106DC00048E60320CCE6032050E703205CE40320E0
:106DD000D96C0D0041747047704708B50021007CE4
:106DE000FEF79CFF40EAE07008BD08B50121007C79
:106DF000FEF794FF40EAE07008BD08B5007CFEF79E
:106E000085FF20EAE07008BD08B5007CFEF776FF3C
:106E100020EAE07008BD13B50446007C0191FEF73E
:106E200075FF0028019901DC607C20B1207CFEF711
:106E30007DFF20EAE07002B010BD007CFEF77EBF4F
:106E400010B51421044600F0A2FB204610BD00003E
:106E500010B54FF47A73044608460021C4E90113C3
:106E6000044B23600123207463741146FEF736FF40
:106E7000204610BD4C830D00007C0022FEF736BF7B
:106E800010B514220446002100F0C2FF204610BDB8
:106E900010B5104C88B003A8FFF7F2FF2178BFF3BC
:106EA0005B8F11F0010111D120460191FDF7F9F836
:106EB000019958B103AA0848FFF7CAFF2046FDF719
:106EC000F5F8064A0649044800F05CFB024808B0A1
:106ED00010BD00BF64E7032068E703205CE40320E3
:106EE000D96D0D00002240681146FEF79BBF0022BD
:106EF00040681146FEF7B6BF002240681146FEF713
:106F0000C1BF40680022FEF7B5BF4068002281F093
:106F10000101FEF79FBF002340681A461946FEF79D
:106F200091BF002340681A461946FEF783BF00222E
:106F300040681146FEF766BF406800220221FEF756
:106F400069BF002340681A46FEF754BF024B042273
:106F50005A60024A1A6070477CE703207C830D0068
:106F600010B5044600F0D9FF0138231820468342AB
:106F700006D90278197800F8011B03F80129F6E711
:106F800010BD70B50C46911E2229054622D8204618
:106F90006DB1B5FBF2F602FB1655E9B2092D94BFAF
:106FA00030315731C9B200F8011B3546F0E70246CF
:106FB00023443021934202D902F8011BFAE71A1A3E
:106FC000834238BF0022002383542046FFF7C8FFC6
:106FD000204670BD0020FCE738B5031E0C46154660
:106FE0000EDAB3F1004F4FF02D0214BF584218468D
:106FF00001230A702A461944FFF7C3FF204638BD13
:107000000123F9E7014B1860704700BFF8E3032044
:1070100008B50B4B43B1FFF73BFF03681B6998476B
:10702000002801DDAFF30080064B43B1FFF7A8FE57
:1070300003681B699847002801DDAFF3008008BD95
:10704000000000000000000008B5FFF7E1FFFEF7B8
:1070500043FD014B186008BD98E703200248034A2E
:107060000349121A00F0C6BE00F4032004F4032002
:10707000E0830D0007B5002300931A466FF07701F7
:10708000FEF796FE03B05DF804FB000007B54388E9
:107090000A2B08D0502B0BD1094B1B684BB103B006
:1070A0005DF804EB1847FFF7E5FF03B05DF804FB5C
:1070B000002300931A466FF07701FEF779FEF4E79C
:1070C00088E7032038B5124C1248134D0021FEF713
:1070D00011FF2368AB42114B0CBF012200221A7032
:1070E00002D0FFF7BBFF2560FEF7DEFC044600F090
:1070F00097FE0B4B13B12046AFF3008000210848E8
:10710000FEF770FEBDE8384006480021FEF746BE97
:1071100000F4032005700D001E1C279A84E703204D
:10712000000000008D700D00232813B502D9002047
:1071300002B010BDA0F10B03022B1AD8174C217816
:10714000BFF35B8F11F001010BD120460191FCF7D9
:10715000A8FF019928B11248FFF742FC2046FCF72E
:10716000A5FF0F4B1878FEF771FD0028DFD1012035
:10717000DEE7012809D800F06FF80021007CFEF757
:107180002DFD80F00100C0B2D2E709380128EED809
:10719000FFF7F6FD007CFEF791FDF2E78CE7032098
:1071A00090E70320232838B504460D460AD8FF2966
:1071B00008D0FFF7B9FF28B129462046BDE838407E
:1071C000FEF79ABC38BD38B504460D46FEF79CFC68
:1071D000FF2810D0062804D84D2323FA00F0C30757
:1071E00009D42046FFF7A0FF28B129462046BDE874
:1071F0003840FEF791BC38BD0D2810B504469CBF41
:107200000E34A4B22046FFF78FFF50B10321204671
:10721000FEF76AFC032804D12046BDE81040FEF7C3
:1072200083BC002010BD000038B50023202543801A
:10723000142304460380856005610649284600F052
:10724000A8F904496060284600F0A3F9E0602046F0
:1072500038BD00BFA8830D0030B50F4D2978BFF3AE
:107260005B8F11F0010487B013D12846FCF719FF9A
:1072700078B101A8FFF7D8FF01AA21460748FFF718
:107280009DF92846FCF712FF054A0649034800F01D
:1072900079F9024807B030BD9CE70320A0E703203E
:1072A0005CE4032065650D002DE9F34700240646E4
:1072B0000F46904600F5A0754FF48039A246A00015
:1072C00000F5A07398B22B686BB1D6F8043309FAB5
:1072D00004F21A4207D0C5F800A02B680193019B65
:1072E000D7E9003198470134A04505F10405E6D1FE
:1072F00002B0BDE8F08700002DE9F347574B07794E
:10730000164602689A4204460D4604D1544A0021AA
:107310000A20FEF71BFD25B9514A29460A20FEF72F
:1073200015FD26B94E4A31460A20FEF70FFD4D4A9B
:107330000C2303FB072390461B7A002B40F08C8024
:107340002368464A93420FD002F5805293420BD0F5
:1073500002F58052934207D002F58032934203D067
:1073600002F58052934202D1AB78032B04D93C4AF8
:1073700000210A20FEF7EAFC0C237B4308EB030202
:1073800048F8036000216B6853600E4660792268FC
:10739000CBB2984257D8EE78B31E012B4FEA123980
:1073A00042F3073A07D9731F022B04D92C4A002154
:1073B0000A20FEF7CBFCBAF1000FACBF0AF1604324
:1073C000294B2A484FEA4616B8BF09F00F09F6B212
:1073D000AABF03F5614303F8096083F800632368DB
:1073E00043F3073149090122C3F3043302FA03F3DB
:1073F00040F8213020686B78D0F8041503F00303BF
:1074000021F003010B43C0F804352068AB78D0F8B5
:10741000081503F0030321F003010B43C0F80835FE
:1074200020682B78D0F8101503F00F0321F00F011E
:107430000B43C0F810350C2303FB078700203A727A
:1074400002B0BDE8F0879B0003F5A0730131D65070
:10745000D3580193019B99E70820F1E70080004091
:10746000B95A0D00B4E7032014ED00E000E100E09C
:1074700038B50C4D02790C2101FB02520446127AF8
:10748000012A04D0084A00210A20FEF75FFC236885
:1074900001221A6023790C2202FB035302221A7282
:1074A00038BD00BFB4E70320B95A0D0038B50A4D06
:1074B00002790C2101FB02520446117A19B9074ADC
:1074C0000A20FEF743FC236801221A6123790C216C
:1074D00001FB03531A7238BDB4E70320B95A0D00FB
:1074E00010B5084A03790C2101FB03230446197ADD
:1074F00019B9054A0A20FEF729FC23680122DA603F
:1075000010BD00BFB4E70320B95A0D0073B54FF4A6
:10751000803405688C408BB101F150039B0000263C
:10752000EE50EB580193019B0368C3F804430368D2
:1075300001F5A87143F8212002B070BDC5F80843D9
:10754000F5E7F0B4076840F20116D7F800528E4014
:1075500025EA0605C7F800520468D4F800522B4308
:10756000C4F800329DF81030F0BCFFF7CFBF000028
:10757000024903480622FFF797BE00BFE4E7032055
:1075800000B001400B460146184600F025BCFCF750
:1075900086BDFCF782BD08B5FEF79CFC81F000417A
:1075A00002E000BF83F0004330B54FEA41044FEAE8
:1075B000430594EA050F08BF90EA020F1FBF54EA83
:1075C000000C55EA020C7FEA645C7FEA655C00F01F
:1075D000E2804FEA5454D4EB5555B8BF6D420CDDF0
:1075E0002C4480EA020281EA030382EA000083EA73
:1075F000010180EA020281EA0303362D88BF30BD13
:1076000011F0004F4FEA01314FF4801C4CEA113168
:1076100002D0404261EB410113F0004F4FEA0333C7
:107620004CEA133302D0524263EB430394EA050F52
:1076300000F0A780A4F10104D5F1200E0DDB02FAC1
:107640000EFC22FA05F2801841F1000103FA0EF255
:10765000801843FA05F359410EE0A5F120050EF11B
:10766000200E012A03FA0EFC28BF4CF0020C43FA4C
:1076700005F3C01851EBE37101F0004507D54FF059
:10768000000EDCF1000C7EEB00006EEB0101B1F5A9
:10769000801F1BD3B1F5001F0CD349085FEA3000EF
:1076A0004FEA3C0C04F101044FEA445212F5800FFA
:1076B00080F09A80BCF1004F08BF5FEA500C50F197
:1076C000000041EB045141EA050130BD5FEA4C0C7A
:1076D000404141EB0101013C28BFB1F5801FE9D2D7
:1076E00091F0000F04BF01460020B1FA81F308BFFA
:1076F0002033A3F10B03B3F120020CDA0C3208DDC6
:1077000002F1140CC2F10C0201FA0CF021FA02F1A0
:107710000CE002F11402D8BFC2F1200C01FA02F110
:1077200020FA0CFCDCBF41EA0C019040E41AA2BF35
:1077300001EB0451294330BD6FEA04041F3C1CDAFD
:107740000C340EDC04F11404C4F1200220FA04F01D
:1077500001FA02F340EA030021FA04F345EA0301C7
:1077600030BDC4F10C04C4F1200220FA02F001FA89
:1077700004F340EA0300294630BD21FA04F029460B
:1077800030BD94F0000F83F4801306BF81F48011A4
:107790000134013D4EE77FEA645C18BF7FEA655C17
:1077A00029D094EA050F08BF90EA020F05D054EAE9
:1077B000000C04BF1946104630BD91EA030F1EBFEE
:1077C0000021002030BD5FEA545C05D140004941F2
:1077D00028BF41F0004130BD14F580043CBF01F5E5
:1077E000801130BD01F0004545F0FE4141F47001CB
:1077F0004FF0000030BD7FEA645C1ABF19461046A6
:107800007FEA655C1CBF0B46024650EA013406BFA6
:1078100052EA033591EA030F41F4002130BD00BF65
:1078200090F0000F04BF0021704730B54FF4806422
:1078300004F132044FF000054FF0000150E700BFA3
:1078400090F0000F04BF0021704730B54FF4806402
:1078500004F1320410F0004548BF40424FF00001EF
:107860003EE700BF42004FEAE2014FEA31014FEA32
:1078700002701FBF12F07F4393F07F4F81F0605181
:10788000704732F07F4208BF704793F07F4F04BFCC
:1078900041F40021704730B54FF4607401F00045A9
:1078A00021F000411CE700BF50EA010208BF704709
:1078B00030B54FF000050AE050EA010208BF7047FA
:1078C00030B511F0004502D5404261EB41014FF463
:1078D000806404F132045FEA915C3FF4D8AE4FF06B
:1078E00003025FEADC0C18BF03325FEADC0C18BF4E
:1078F000033202EBDC02C2F1200300FA03FC20FA9F
:1079000002F001FA03FE40EA0E0021FA02F11444EB
:10791000BDE600BF70B54FF0FF0C4CF4E06C1CEA04
:1079200011541DBF1CEA135594EA0C0F95EA0C0F75
:1079300000F0DEF82C4481EA030621EA4C5123EAE8
:107940004C5350EA013518BF52EA033541F4801117
:1079500043F4801338D0A0FB02CE4FF00005E1FBCA
:1079600002E506F00042E0FB03E54FF00006E1FB14
:1079700003569CF0000F18BF4EF0010EA4F1FF0457
:10798000B6F5007F64F5407404D25FEA4E0E6D4197
:1079900046EB060642EAC62141EA55514FEAC520A8
:1079A00040EA5E504FEACE2EB4F1FD0C88BFBCF524
:1079B000E06F1ED8BEF1004F08BF5FEA500E50F1D5
:1079C000000041EB045170BD06F0004646EA01019B
:1079D00040EA020081EA0301B4EB5C04C2BFD4EBCD
:1079E0000C0541EA045170BD41F480114FF0000EC6
:1079F000013C00F3AB8014F1360FDEBF002001F034
:107A0000004170BDC4F10004203C35DA0C341BDCAD
:107A100004F11404C4F1200500FA05F320FA04F07F
:107A200001FA05F240EA020001F0004221F00041B3
:107A300010EBD37021FA04F642EB06015EEA430E26
:107A400008BF20EAD37070BDC4F10C04C4F1200556
:107A500000FA04F320FA05F001FA04F240EA020009
:107A600001F0004110EBD37041F100015EEA430EDA
:107A700008BF20EAD37070BDC4F1200500FA05F2FA
:107A80004EEA020E20FA04F301FA05F243EA020379
:107A900021FA04F001F0004121FA04F220EA020088
:107AA00000EBD3705EEA430E08BF20EAD37070BDCE
:107AB00094F0000F0FD101F00046400041EB0101AE
:107AC00011F4801F08BF013CF7D041EA060195F090
:107AD000000F18BF704703F00046520043EB03034A
:107AE00013F4801F08BF013DF7D043EA0603704737
:107AF00094EA0C0F0CEA135518BF95EA0C0F0CD042
:107B000050EA410618BF52EA4306D1D181EA030187
:107B100001F000414FF0000070BD50EA410606BF81
:107B20001046194652EA430619D094EA0C0F02D1C6
:107B300050EA013613D195EA0C0F05D152EA03360B
:107B40001CBF104619460AD181EA030101F0004129
:107B500041F0FE4141F470014FF0000070BD41F072
:107B6000FE4141F4780170BD70B54FF0FF0C4CF44C
:107B7000E06C1CEA11541DBF1CEA135594EA0C0F6B
:107B800095EA0C0F00F0A7F8A4EB050481EA030EB8
:107B900052EA03354FEA013100F088804FEA03339F
:107BA0004FF0805545EA131343EA12634FEA02226D
:107BB00045EA111545EA10654FEA00260EF000412E
:107BC0009D4208BF964244F1FD0404F5407402D280
:107BD0005B084FEA3202B61A65EB03055B084FEA11
:107BE00032024FF480104FF4002CB6EB020E75EB0E
:107BF000030E22BFB61A754640EA0C005B084FEA36
:107C00003202B6EB020E75EB030E22BFB61A7546B2
:107C100040EA5C005B084FEA3202B6EB020E75EBFD
:107C2000030E22BFB61A754640EA9C005B084FEA75
:107C30003202B6EB020E75EB030E22BFB61A754682
:107C400040EADC0055EA060E18D04FEA051545EA71
:107C500016754FEA06164FEAC30343EA52734FEA1A
:107C6000C2025FEA1C1CC0D111F4801F0BD141EA93
:107C700000014FF000004FF0004CB6E711F4801FF8
:107C800004BF01430020B4F1FD0C88BFBCF5E06FD8
:107C90003FF6AFAEB5EB030C04BFB6EB020C5FEAE8
:107CA000500C50F1000041EB045170BD0EF0004E3D
:107CB0004EEA113114EB5C04C2BFD4EB0C0541EA6F
:107CC000045170BD41F480114FF0000E013C90E66C
:107CD00045EA060E8DE60CEA135594EA0C0F08BF30
:107CE00095EA0C0F3FF43BAF94EA0C0F0AD150EA2F
:107CF00001347FF434AF95EA0C0F7FF425AF1046C2
:107D000019462CE795EA0C0F06D152EA03353FF4E9
:107D1000FDAE1046194622E750EA410618BF52EA66
:107D200043067FF4C5AE50EA41047FF40DAF52EA3A
:107D300043057FF4EBAE12E74FEA4102B2F1E043B4
:107D400024BFB3F5001CDCF1FE5C0DD901F0004C42
:107D50004FEAC0024CEA5070B2F1004F40EB830092
:107D600008BF20F00100704711F0804F21D113F1BE
:107D70003872BCBF01F00040704741F480114FEAF7
:107D80005252C2F11802C2F1200C10FA0CF320FA80
:107D900002F018BF40F001004FEAC1234FEAD3239D
:107DA00003FA0CFC40EA0C0023FA02F34FEA430307
:107DB000CCE77FEA625307D150EA01331EBF4FF090
:107DC000FE4040F44000704701F0004040F0FE40AB
:107DD00040F40000704700BF10B5054C13462CB1AD
:107DE0000A4601460220AFF3008010BD2046FCE7A2
:107DF000000000000A44914200F1FF3300D17047B7
:107E000010B511F8014B03F8014F9142F9D110BDA3
:107E100002440346934200D1704703F8011BF9E77F
:107E200038B50D4B1D68AB6B04467BB91820FEF7C7
:107E300031F80A4A0A4BA863C0E90023094B836062
:107E40000B23838101220023C0E90423AB6B0022B2
:107E50001C615A6138BD00BFF8E303200E33CDAB7F
:107E600034126DE6ECDE0500134B10B51C68A36BF5
:107E70007BB91820FEF70EF8104A114BA063C0E939
:107E80000023104B83600B23838101220023C0E970
:107E90000423A16B0C480A694B690C4C504304FB4A
:107EA0000300A2FB04345A1C044444F10000C1E95D
:107EB000042020F0004010BDF8E303200E33CDABCA
:107EC00034126DE6ECDE05002DF451582D7F954CF3
:107ED000034611F8012B03F8012B002AF9D1704752
:107EE000024B0146186800F003B800BFF8E3032016
:107EF00037B5044608460D4600F00FF8421C1146FF
:107F000020460192FDF7EEFF044618B1019A29467A
:107F1000FFF770FF204603B030BD034613F8012B76
:107F2000002AFBD1181A01387047000021400D00CB
:107F30005D400D0085400D0089400D0000000000EF
:107F40007B202241544331223A2025642C202241B7
:107F5000545031223A2025642C20224154433222AD
:107F60003A2025642C202241545032223A202564A4
:107F70002C202241465352223A20256420202020E2
:107F800020202020202020202020202020202020F1
:107F90002020202020202020202020202020202CD5
:107FA00020224141636358223A2025642C2022413B
:107FB00041636359223A2025642C202241416363A6
:107FC0005A223A2025642C20224147797258223ABD
:107FD0002025642C20224147797259223A202564B9
:107FE0002020202020202020202020202020202091
:107FF0002020202020202020202020202020202081
:108000002020202C2022414779725A223A202564D0
:108010002C2022414254223A2025642C20224D5407
:108020005031223A202564202020202020202020AA
:108030002020202020202020202020202020202040
:10804000202020202020202020202C20224D545091
:1080500032223A2025642C20224D41636358223A73
:108060002025642C20224D41636359223A20256447
:108070002C20224D4163635A223A2025642C202271
:108080004D47797258223A20256420202020202054
:1080900020202020202020202020202020202020E0
:1080A000202020202020202020202020202C2022C2
:1080B0004D47797259223A2025642C20224D477968
:1080C000725A223A2025642C20224852223A202536
:1080D000642C2022485256223A2025662020202057
:1080E0002020202020202020202020202020202090
:1080F0002020202020202020202020202020202C74
:10810000202242617474223A2025662C20224D469A
:108110005352223A2025647D00227D00454441319E
:10812000007B202245444131223A20220053756DC4
:108130006D6172795265706F7274004C6F6F702050
:1081400054696D653A2000496E697469616C697A99
:108150006174696F6E206F66207468652073656E48
:10816000736F722072657475726E65643A20005484
:108170007279696E6720616761696E2E2E2E0055D7
:108180006E6B6E6F776E2053746174757300416C03
:108190006C2069732077656C6C2E0047656E657284
:1081A000616C204572726F72004E6F7420496D7061
:1081B0006C656D656E74656400506172616D6574A7
:1081C0006572204572726F720057726F6E67204938
:1081D0004400496E76616C69642053656E736F72FA
:1081E000004461746120556E646572666C6F77003F
:1081F00053656E736F72204E6F7420537570706F7D
:1082000072746564000000008E810D009B810D007A
:10821000A9810D00B9810D00C9810D00D2810D0029
:10822000E1810D00F0810D00000000000000000061
:108230002D5A0D000000000000000000795F0D00C5
:108240007F5F0D00CF5F0D008D5F0D007B5F0D0028
:10825000000000000000000047650D003D650D00B6
:1082600033650D0029650D001D650D0011650D00BC
:1082700005650D00FD640D00F3640D00E9640D005B
:10828000D9670D00000000000000000065650D00CA
:10829000AF650D0087650D0067650D008F650D00EA
:1082A00097650D009F650D00A7650D00000000009B
:1082B000000000008D660D007D660D007F660D00DC
:1082C00061707000000000000000000071670D0088
:1082D0007B670D0085670D008F670D0099670D00A6
:1082E000A5670D00B1670D00BD670D00C5670D00E6
:1082F000CF670D00D9670D0025592D256D2D2564FB
:108300005425483A254D3A2553257A006173637404
:10831000696D65000000000000000000D96C0D00D0
:10832000456D0D001D6D0D00C1680D00ED6C0D005B
:10833000096D0D00FB6C0D00176D0D00DB6C0D0061
:10834000DF6C0D000000000000000000D96D0D0082
:10835000416E0D00176E0D00C1680D00096E0D0015
:10836000DB6D0D00EB6D0D003B6E0D00FB6D0D0028
:10837000D56D0D000000000000000000436F0D00EF
:10838000396F0D002F6F0D00E56E0D00236F0D008E
:10839000176F0D000B6F0D00036F0D00F96E0D00D0
:1083A000EF6E0D00D9670D0000000000454F0D0075
:1083B0001D550D00515F0D0051650D0061670D00E9
:1083C000AD680D00C5690D00896C0D00C56C0D0010
:1083D0004D6F0D00000000000000000000000000D4
:0483E0000000000099
:1083E4000101010000B00140040600000C830D00EF
:1083F400FCE3032000000000000000000000000077
:108404000000000000000000000000000000000068
:108414000000000000000000000000000000000058
:108424000000000000000000000000000000000048
:108434000000000000000000000000000000000038
:108444000000000000000000000000000000000028
:048454000000000024
:10845800FFFFFFFF00000102030405060708090AE1
:108468000B0C0D0E0F101112131415161718191ADC
:088478001B1C1D1E1F20280023
:0484800078563412E4
:04000003D0004020C9
:00000001FF
