:02000002D0002C
:1040000000400D00D4980D00000006000C000501D2
:084010000401D80700000000C4
:0440180010930D00F4
:1040200009480A49884208B505D0094A824202D0A7
:10403000121A05F0D1F80748074A0021121A05F0B4
:10404000D9F8014808BD00BFC8E3032034980D002B
:1040500040E4032040E40320F0E7032070B5074E5E
:10406000074C02F0E3FFA41BA4080025A54200D1E1
:1040700070BD56F8043B98470135F7E708980D00E6
:1040800030980D0001F062B808B500F005FEBDE8FB
:10409000084002F08DBF01F0A7BE01F0A5BE01F0FF
:1040A000ABBE0078B0FA80F040097047012303707E
:1040B000704710B40446084611461A4623681C6827
:1040C00024B1A4469B685DF8044B604702205DF86C
:1040D000044B704710B40446084611461A4623683C
:1040E0005C6824B1A4469B685DF8044B60470220DD
:1040F0005DF8044B7047032907B50BD809018DF80B
:10410000071001230DF107027F21FFF7D2FF03B053
:104110005DF804FB0320FAE72DE9F04385B01D4666
:104120009DF834608DF80620002E14BF6FF07F03D9
:104130000023194304468DF807100321FFF7DBFF26
:1041400001230DF1070213212046FFF7B2FF0028DB
:1041500068D103212046FFF7CEFF01230DF10602AF
:1041600014212046FFF7A5FF00285BD19DF83820D9
:104170009DF8309082F00102520162F07F028DF8CA
:10418000082007461FFA89F9BBB299454AD9002E83
:104190003CD003212046FFF7AEFF012302AA1521E0
:1041A0002046FFF786FF00283CD1804600212046AC
:1041B000FFF7A1FF012303AA17212046FFF78AFF7B
:1041C0009DF80C3040F2E7311A46C3F3801388455E
:1041D00088BF43F00103DB0708F10108E6D5C2F30D
:1041E0000013884594BF984643F0010818F0010F6A
:1041F0001BD14EB103212046FFF77DFF0123EA19B1
:1042000017212046FFF766FF0137BDE7032120464F
:10421000FFF771FF0123EA1916212046FFF749FF36
:104220000028B6D005B0BDE8F0830120FAE730B52C
:1042300085B001240025CDE901540094FFF76CFFFF
:1042400005B030BD1FB50124CDE901440094FFF74E
:1042500063FF04B010BD13B504460021FFF74BFF08
:10426000012301AA06212046FFF734FF58B99DF823
:10427000043043F080038DF8043001AA01230621A5
:104280002046FFF716FF02B010BD37B504460D46B5
:104290000021FFF730FF012301AA06212046FFF786
:1042A00019FF58B99DF8043065F386138DF8043072
:1042B00001AA012306212046FFF7FBFE03B030BD13
:1042C00037B504460D460021FFF715FF012301AA6B
:1042D00006212046FFF7FEFE58B99DF8043065F32D
:1042E00045138DF8043001AA012306212046FFF76B
:1042F000E0FE03B030BD70B505460C4651B100215B
:10430000FFF7F9FE224628460123BDE87040002150
:10431000FFF7E0BE032070BD07B500230DF10701D4
:104320008DF80730FFF7E7FF20B99DF80730EA2B3B
:1043300018BF042003B05DF804FB11F0130F73B530
:1043400006460C4615462AD00021FFF7D4FE20BBB6
:10435000012301AA05213046FFF7BCFEE8B9E107B9
:1043600042BF9DF8043065F345138DF80430A20771
:1043700042BF9DF8043065F304138DF80430E30662
:1043800042BF9DF8043065F386138DF8043001AA0E
:10439000012305213046FFF78CFE02B070BD0720D7
:1043A000FBE711F0030F2DE9F34106468846174657
:1043B00041D011F0010419D00221FFF79CFE012326
:1043C000054601AA14213046FFF784FE9DF804300B
:1043D000284367F34203C4B28DF8043001AA0123D5
:1043E00014213046FFF765FE0443E4B218F0020FD3
:1043F0001DD002213046FFF77EFE012319460546F7
:1044000001AA3046FFF766FE9DF80430C7F3810726
:1044100067F3420328438DF804300123044301AAC3
:1044200019463046FFF745FEE4B20443E4B22046A5
:1044300002B0BDE8F0810724F9E7F0B585B0064683
:10444000ADF804208A070F4642D011F001041CD0B9
:104450000221FFF750FE0123054603AA142130462E
:10446000FFF738FE9DF80C309DF8042062F3C50379
:1044700005438DF80C3003AA012314213046FFF7C1
:1044800018FEEDB245EA0004E4B2BB071DD50221D7
:104490003046FFF730FE01231946054603AA304691
:1044A000FFF718FE9DF80C309DF8052062F3C50358
:1044B00028438DF80C300123044303AA19463046E3
:1044C000FFF7F7FDE4B20443E4B2204605B0F0BDC7
:1044D0000724FAE711F0030F2DE9F3410646884659
:1044E00017463FD011F0010419D00221FFF703FE57
:1044F0000123054601AA14213046FFF7EBFD9DF884
:104500000430284367F30003C4B28DF8043001AAD5
:10451000012314213046FFF7CCFD0443E4B218F028
:10452000020F1BD002213046FFF7E5FD012319469B
:10453000054601AA3046FFF7CDFD9DF8043067F32C
:10454000000328438DF804300123044301AA1946CF
:104550003046FFF7AEFDE4B20443E4B2204602B0B9
:10456000BDE8F0810724F9E737B50D460021044680
:10457000FFF7C1FD90B9012301AA0F212046FFF7E3
:10458000A9FD58B99DF8043065F341038DF8043056
:1045900001AA01230F212046FFF78BFD03B030BD98
:1045A00037B50D4600210446FFF7DEFF90BB03211F
:1045B0002046FFF7A0FD68BB01236A461946204646
:1045C000FFF788FD30BB9DF8003023F01F0343F058
:1045D00017038DF8003001236A4619462046FFF77D
:1045E00068FDB8B901462046FFF785FD90B9012363
:1045F00001AA03212046FFF76DFD58B99DF804304C
:1046000065F345138DF8043001AA012303212046E8
:10461000FFF74FFD03B030BD13B500210446FFF78F
:104620006AFD90B9012301AA03212046FFF752FD3C
:1046300058B99DF8043043F002038DF8043001AA04
:10464000012303212046FFF734FD02B010BD2DE900
:10465000FF4103299DF82C8005460C4617461E464F
:1046600047D80321FFF747FD00283FD19DF80430CC
:1046700067F306038DF80430B8F1000F04D0DBB205
:1046800043F080038DF80430A400E4B2E11C012360
:1046900001AAC9B22846FFF70CFD38BB211D012332
:1046A00002AA01F0FC0128468DF80860FFF701FD21
:1046B000E0B99DF828309DF8382003F00F0343EA55
:1046C00002139DF8342043EA42139DF83C2043EA4C
:1046D00082139DF83020611D43EAC2138DF80C301F
:1046E00003AA0123C9B22846FFF7E3FC04B0BDE8E2
:1046F000F0810320FAE72DE9D04180468BB00F46C8
:10470000002900F08F800021FFF7F5FC17230646F3
:1047100004AA2D214046FFF7DDFC9DF810209DF8EE
:10472000113043EA02233B809DF812209DF813309C
:1047300043EA02237B809DF814209DF8153043EA5C
:104740000223BB809DF816209DF8173043EA022310
:10475000FB809DF818209DF8193043EA02233B8125
:104760009DF81A209DF81B3043EA02237B819DF8B7
:104770001C209DF81D3043EA02237B829DF81E30E9
:104780009DF820207B759DF81F3043EA0223BB81F2
:104790009DF822209DF8213043EA0223FB819DF8F9
:1047A00024209DF8233043EA022330433B829DF8C6
:1047B0002630BB75C4B202214046FFF79CFC204363
:1047C000C6B2012301AA14214046FFF783FC9DF8DD
:1047D00004303A7DC3F3410363F301023043C6B2B0
:1047E0003A7502214046FFF786FC0123194606432D
:1047F00002AA4046FFF76EFC9DF808303A7DC3F3ED
:10480000410363F38302F4B204433A75012303AA1C
:1048100015214046FFF75EFCE4B22043C0B20BB066
:10482000BDE8D0810320FAE7014B1860704700BF54
:1048300060E5032000000000F8B52DED028B2E4A44
:104840002E4913782D4D41F823000133DBB2042BA0
:1048500088BF0023DFED2A8A137029460022052035
:1048600051F8043BB3FBF0F307EE903A0132F8EE57
:10487000E77A052A78EEA78AF2D19FED218A0024F3
:10488000F5EC017AF8EE677A013477EEE87A17EE04
:10489000900A04F03BF902460B4604F08FF90646F5
:1048A00018EE100A0F4604F031F902460B46304666
:1048B000394603F0CDFF04F031FC052C08EE100A58
:1048C000DED1F1EE047AC8EE277A17EE900A04F0F2
:1048D0001DF99FED071B41EC100B02F015FE51EC8A
:1048E000100B04F01BFC074B1860BDEC028BF8BDED
:1048F000000000000000E03F14E5032018E503205D
:104900000000000010E5032008B502F075FABDE8CC
:104910000840014901F0C1BF24930D0000000000D0
:104920002DE9F04F6E496F4D6F4E704FDFF82C82BE
:10493000DFF82C92DFF82CA2DFF82CB26C486D4B1C
:104940000A681B686C4C92FBF3F20A60026892FBE7
:10495000F3F202602A6892FBF3F22A60326892FB5B
:10496000F3F232603A6892FBF3F23A60D8F8002032
:1049700092FBF3F2C8F80020D9F8002092FBF3F282
:10498000C9F80020DAF8002092FBF3F2CAF8002000
:10499000DBF8002092FBF3F3584ACBF800301268A2
:1049A000236893FBF2F32360554B5648564C02683C
:1049B00019461B6893FBF2F30B60544923680A689D
:1049C00093FBF2F3A1B02120236002F0C9FB504B0E
:1049D0001B681A9304F088F83FA3D3E9002304F07E
:1049E000EDF804F09BFB04F091F84A4B002203F031
:1049F0002DFF494B4FF0333204F00AFA0022474BA7
:104A000004F0DCF804F08AFB04F080F8CDE918012A
:104A1000434B186804F07AF8CDE91601414B384A47
:104A20001B681593404B32481B6814933F4B2C492D
:104A30001B6813933E4B1B6812933E4B1B681193EC
:104A40003D4B1B6810933D4B1B680F933C4B1B6801
:104A50000E933C4B1B680D933B4B1B680C933B4BDD
:104A60001B680B933A4B1B680A93DBF800300993E1
:104A7000DAF800300893D9F800300793D8F80030FE
:104A800006933B680593336804932B68039323686C
:104A90000293136801930368174C009323680A6814
:104AA0002C491CAC20461CAC02F064F821462A4874
:104AB0001CAC01F0E3FF204601F04AFF0D4A11480B
:104AC0001249002313600D4A036013600B6021B08C
:104AD000BDE8F08FAFF300809402C1D2AF63523FC4
:104AE000B8E4032098E403209CE40320A0E403201E
:104AF000BCE40320C8E40320C0E4032084E50320D1
:104B0000C4E403208CE50320A8E4032000E503208F
:104B10003CE50320000008403333F33F00005940D8
:104B200010E5032060E5032038E5032048E5032075
:104B300044E5032040E5032034E5032030E503206D
:104B40002CE5032058E5032050E5032054E503201D
:104B50004CE503202F930D0068E50320ACE403200F
:104B6000B0E40320B4E40320A4E403202D4A036846
:104B700011680B4413602C4B026819688A422B4958
:104B8000C8BF1A600A6843681A440A60284A116854
:104B90008B422849C8BF13600A6883681A440A60B8
:104BA000254A11688B422549C8BF13600A68C3684B
:104BB0001A440A60224A11688B422249C8BF136016
:104BC00003690A681A440A601F4A11688B421F4928
:104BD000C8BF136043690A681A440A601C4A116816
:104BE0008B421C49C8BF136083690A681A440A6073
:104BF000194A11688B421949C8BF1360C3690A6812
:104C00001A440A60164A11688B421649C8BF1360DD
:104C1000036A0A681A440A60134A11688B42C8BFC3
:104C200013607047B8E403204CE50320BCE4032084
:104C300050E5032098E403202CE503209CE40320A6
:104C400030E50320A0E4032034E50320ACE4032096
:104C500040E50320B0E4032044E50320B4E403204E
:104C600048E50320A4E4032038E5032038B50468B0
:104C700005467CB16368013B63605BB923682046ED
:104C80009B689847A368013BA3601BB92368204633
:104C9000DB689847284638BD2DE9F043B54C91B004
:104CA00000F0BCFE2378012B254640F0E180B24E97
:104CB00000F0B4FE3368C01A0E2840F2D98000F02C
:104CC000ADFE00213060AD48AD4D00F006FBAD49B2
:104CD000286007A801F0C7FE0A22296803A801F08E
:104CE000E7FE03A907A801F01AFF202101F038FF11
:104CF0000146A44801F0A8FE03A801F029FE07A878
:104D000001F026FE02232370122002F029FADFF8B8
:104D100004939D4CC9F80000112002F021FADFF83D
:104D2000F882211DC8F8000007A800F0CDFC974BC1
:104D3000B4F908701F60964BB4F90A601E60954B79
:104D4000B4F90C501D60944BB4F90E001860934BED
:104D5000B4F910101960924BB4F912201A60B4F92A
:104D60001A30904CCDE90E238F4A23601368D9F88E
:104D700000400794D8F800400133CDE90C0107A8A2
:104D80001360CDE90847CDE90A65884CFFF7EEFED0
:104D9000874800F029FC00F039FE2368C01A40F271
:104DA000DC53984221D900F031FE2060814C2378F9
:104DB000022B00F08F80032B00F0A180012B14D177
:104DC0007D48002100F089FA7C4A7D4B1860136809
:104DD000034413607B4B1A6890427B4AC8BF18603B
:104DE00013680133136002232370784C00F016FE21
:104DF0002368C01AB0F57A7F37D900F00FFE206023
:104E0000734C2378022B00F08F80032B00F0068177
:104E1000012B2AD100F080FF08B35A4D03A8294680
:104E200001F021FE6B4903A801F085FE01462846EA
:104E300001F00AFE03A801F08BFD674B67491B7860
:104E40008DF800302A683C2303A801F089F904A8F2
:104E5000FFF70CFF01F0D0FF296801F01EFD60494B
:104E6000484801F013FE0223237011B0BDE8F0831F
:104E70002C78022C7FF448AF3F4E00F0CFFD336812
:104E8000C01A0E287FF640AF00F0C8FD2146306002
:104E90003A48544C00F021FA5349206007A801F029
:104EA000E2FD0A22216803A801F002FE03A907A877
:104EB00001F035FE202101F053FE01464A4801F081
:104EC000C3FD03A801F044FD07A801F041FD012343
:104ED0002B7019E73848012100F0FFF9434A444B91
:104EE0001860136803441360424B1A689042424AA8
:104EF000C8BF1860136801331360032374E72E489A
:104F0000022100F0EAF93D4A3D4B18601368034462
:104F100013603C4B1A6890423B4AC8BF1860136844
:104F20000133136001235FE700F0F6FEE0B12E4D80
:104F300003A8294601F097FD264903A801F0FBFDCF
:104F40000146284601F080FD03A801F001FD224B37
:104F50002E491B788DF8003003A82A683C2301F005
:104F6000FFF804A8FFF782FE29491F4801F08EFDD3
:104F7000032379E7C8E30320F8E403208CE403204B
:104F8000D0E40320D4E4032044E4032080E403209D
:104F900084E4032088E4032004E5032008E50320DB
:104FA0000CE50320CCE40320C8E403205CE50320E7
:104FB00090E50320C9E3032092E40320C0E403202A
:104FC00080E5032054E5032084E5032064E5032005
:104FD000CAE303205B950D007CE403205E950D0081
:104FE00063950D00E4E40320E8E40320C4E4032017
:104FF00088E5032058E503208CE50320A8E403207E
:10500000FCE403203CE5032000E503206F950D0040
:1050100074950D0078E503207CE50320FFF780FC04
:1050200000F07AFE68B10A4B0A4A1B788DF800300E
:1050300003A8126808493C2301F092F804A8FFF77E
:1050400015FE0649034801F021FD01230CE700BFCE
:105050007CE4032068E5032080950D00B5950D00E4
:1050600070B5184B184D194E194C01221A7029466B
:10507000304601F0B8FC3046164E174A214602F081
:1050800035FA2946304601F0AEFC3046134E124A3E
:10509000214602F02BFA2946304601F0A4FC2146B5
:1050A0000D4A304602F022FA0D4800F0B7FB4821C5
:1050B0000C4800F002F9BDE870400B48492100F0AF
:1050C000FCB800BF7CE40320B5950D00D4E40320B8
:1050D00051690D00E8E4032040E4032068E5032063
:1050E00044E4032092E403208CE40320F8B5144D3B
:1050F000144E2F1D02F064F8FF23002201461048D1
:1051000000F036FC01F078FE314601F0B6FB01F00C
:1051100073FE08210446384600F0EEFA01462046A8
:1051200001F0BBFB95F820304BB101F065FE06495C
:1051300001F0B3FB4FF4FA7000F096FEDAE7F8BD29
:1051400044E403208E950D00B6950D0008B501F0DE
:1051500053FE4FF4E13101F03DFE01F04DFE01F050
:1051600040FE0028F9D002F02BF801F0EFF902F030
:1051700027F8264901F0E6F9FFF7B8FF00211220D1
:1051800001F0C4FF0021112001F0C0FF0121052022
:1051900001F0BCFF0121042001F0B8FF012107202C
:1051A00001F0B4FF0121082001F0B0FF012105202A
:1051B00001F0BDFF0121042001F0B9FF14480021D6
:1051C00000F089F84FF40071124800F084F810489C
:1051D00000F07AF80F4800F077F80121072001F07D
:1051E000A6FF0F210C4800F0EDF80B4800F0F2F894
:1051F00000F014FC094B186000F010FC084B18601C
:1052000000F004FC074B186008BD00BF801A0600C0
:1052100092E403208CE4032090E5032064E503205E
:10522000F8E403205CE5032007B5019001F0C8FF16
:10523000036801999B6803B05DF804EB184708B553
:1052400001F0BEFF03685B699847C0B208BD70B546
:10525000064614460D4601F0B3FF314601F0A8F9A9
:105260002846FFF7E1FF200AFFF7DEFFE0B2FFF775
:10527000DBFF01F0A5FFBDE8704001F0A1B913B557
:10528000019001F09DFF019901F092F90020FFF7D4
:10529000CBFF01F095FF01F093F901F091FF019927
:1052A000022201F082F9FFF7CAFF0446FFF7C7FFA9
:1052B00040EA042080B202B010BD00220170022139
:1052C000828041708270704708B501F079FFBDE8B7
:1052D000084001F03BB981807047032910B50446AE
:1052E00022D80229828819D003291AD0012914BF93
:1052F00042F4834242F4A34242F0430242F40042A9
:1053000001212078FFF7A3FF607800F0ADFD207841
:10531000FFF7B5FFA378184180B210BD42F4C34235
:10532000EAE742F4E342E7E70020F6E7F0B5214C74
:10533000214985B0054601221B2001F044F90026D1
:105340004FF040731D4A02A92046CDE9023601F014
:1053500087FF204602F05EF8204602F075F82368C9
:10536000D3F810354FF47A72DBB202FB05F0020F6E
:10537000C3F120070001A3F1200120FA03F402FA8F
:1053800007F73C4322FA01F122FA03F50C43012D01
:1053900008BF002C04D30A4A31460A2000F080FCE2
:1053A0000123044800932246002102F07EF805B054
:1053B000F0BD00BFCCE30320D9740D00DD550D0016
:1053C000FD590D000368013308BF01600220FFF79B
:1053D000ADBF000010B503680133044602D00C488D
:1053E00001F0FAFF4FF40072C4E9062240F20D21E9
:1053F0006422C4E908124FF416720023E2604FF4ED
:105400008072C4E904332285E36284F8303010BD31
:10541000CCE30320F8B50379044613B36B4D2B6836
:10542000B3F5FA7F0CD3642001F05FFA01280BDC9E
:105430004FF0FF33A360012384F8303000232B604A
:105440002B6801332B60F8BD40F24C4140F2023032
:1054500001F056FAE060E2684EF66023B3FBF2F327
:10546000E8E75B4D008800F001FB5A4A2B6826698B
:1054700042F8230005210133B3FBF1F000EB80007B
:105480001B1A2B60D2E900351D4493681D44D36874
:105490001D441369226A1D446369B5FBF1F50236A8
:1054A00095422661A6EB0306E368B3FBF1F303EB39
:1054B000430323DA9E4204D9E369AB42D4BFE361DC
:1054C000E56194F82830002B5FD0D4E906329B1AAE
:1054D00003EBD37102EB6102C4E906222262B3F549
:1054E000967F4FF000026362228502DD012384F87B
:1054F000303040F6C4139E424FD8A4E7A169A942B8
:10550000ACBFA161A561FA2E9DD995423DDD94F80D
:105510002820002A36D19E4234D90123E660E06873
:1055200084F82830FFF788F92849236963610B68FC
:10553000294FD4F80CC00A20B3FBF0F200FB123262
:105540000133022B47F822C00B607FF67CAF032BA0
:1055500001BFD7E90121521852083A601E480A2BB0
:105560004FF0000228BF0A23114650F8047B013196
:105570008B423A44F9DCB2FBF3F34EF66022B2FB05
:10558000F3F3A360236A9D429BDB40F6C4139E4263
:105590007FF659AF94F829302BB94FF0FF33A36051
:1055A000012384F83030D4E9063203219B1A93FB9F
:1055B000F1F31344236223696361012384F82930E2
:1055C000024B0022C4E906551A603CE704E60320BA
:1055D000C4E50320C8E50320DCE503200148FFF70C
:1055E00019BF00BF90E5032010B590F83030044695
:1055F0004BB18368002B07DB8068E168FFF714F983
:10560000002384F8303010BDFFF77EF9F8E7000082
:10561000034B4FF0FF321A6000221A71704700BF2F
:1056200090E5032073B506460D460192BBB15C6A56
:10563000ACB193F82810204600F0BAFF2368314639
:105640009B68204698472368019ADB6829462046D4
:105650009847204600F0B4FF002002B070BD032040
:10566000FBE72DE9F04107460E4615462BB35C6A71
:105670001CB393F828802046414600F099FF236828
:1056800039469B68204698470021204600F094FF49
:105690002A464146204600F088FF854210D1002767
:1056A0005FFA87F8454507F101070BD923682046C3
:1056B0005B69984706F80800F2E70320BDE8F0812F
:1056C0000620FBE70020F9E770B50C460D1D0646E5
:1056D00029462046FFF70FF804F81C0F2B463546E5
:1056E0001A4603CAA24228606960134605F10805FC
:1056F000F6D1304670BD0000082908BF017F072998
:105700009ABF024B53F82100014870474C960D0098
:10571000C6950D0010B50446FEF79DFD207710BD1F
:1057200010B50446FEF7B1FD207710BD10B5044654
:10573000FEF7C6FD207710BD10B50446FEF7ECFD60
:10574000207710BD10B50446FEF7F7FD207710BD99
:1057500010B50446FEF725FE207710BD13B5ADF851
:105760000420019A0446FEF768FE207702B010BDBF
:1057700010B50446FEF7AEFE207710BD10B5044606
:10578000FEF7F2FE207710BD10B50446FEF708FFC5
:10579000207710BD10B50446FEF73EFF207710BD00
:1057A00030B587B004469DF83C5005959DF83850BB
:1057B00004959DF8345003959DF8305002959DF85E
:1057C0002C5001959DF828500095FEF740FF20775A
:1057D00007B030BD13B58DF807300DF1070304464F
:1057E000FEF725FD207702B010BD13B50DF10703BC
:1057F0000446FEF727FD20779DF8070002B010BD94
:105800000A460C21FFF7F1BF10B513780A460C21A8
:105810000446FFF7DFFF207710BD0000014B036057
:10582000704700BF74960D0038B500210446FFF79D
:10583000E7FF012105462046FFF7E2FF482D04D18E
:10584000092802D10020207738BD0420FBE730B5BD
:10585000002189B00446FFF791FF01212046FFF7A0
:1058600093FF05252046FFF7DFFF58B12046013D95
:10587000FFF790FF15F0FF05F4D104201FE0207F13
:1058800009B030BD9DF81C30082262F304033121B9
:1058900007AA20468DF81C30FFF7B6FF78B9012320
:1058A000CDE901330923CDE90400039000930146BB
:1058B00010230C222046FFF773FF0028DFD020774B
:1058C000DEE737B50546FFF737FF044618B12C77FA
:1058D000204603B030BD2846FFF71CFF04460028D1
:1058E000F5D1322000F0C0FA21462846FFF718FF14
:1058F00004460028EBD101462846FFF717FF04466F
:105900000028E4D1024603212846FFF71BFF044686
:105910000028DCD14FF0000203212846FFF718FFD2
:1059200004460028D3D140F20773ADF80430019A41
:1059300003212846FFF712FF04460028C7D102467C
:1059400001212846FFF714FF04460028BFD1024674
:1059500002212846FFF70CFF04460028B7D128464D
:10596000FFF775FF04460028B1D12C7FB0E7000097
:1059700010B50446184684F82930616284F82A205C
:10598000F2B96822FF2884F8282002D0012101F012
:10599000BDFB94F82900FF2803D094F82A1001F0E9
:1059A000C6FB084BE362084B2046C4E90C3404F103
:1059B0002C0340F8043FFFF784FF84F8200010BD5B
:1059C0006922DFE725560D0063560D0008B5024B2E
:1059D0001B685B6C019308BD4802030008B5024BCD
:1059E0001B689B6C019308BD4802030008B5024B7D
:1059F0001B685B68019308BD1802030008B5024BE1
:105A00001B68DB68019308BD1802030008B5024B50
:105A10001B681B69019308BD1802030008B5024BFF
:105A20001B685B69019308BD1802030008B5024BAF
:105A30001B685B68019308BD2C02030008B5024B8C
:105A40001B689B68019308BD2C02030008B5024B3C
:105A50001B68DB68019308BD2C02030008B5024BEC
:105A60001B681B69019308BD2C02030008B5024B9B
:105A70001B681B6B019308BD2C02030008B5034B88
:105A80001B68D3F89030019308BD00002C0203007E
:105A900008B5024B1B681B68019308BD2802030070
:105AA00008B5024B1B68DB68019308BD28020300A0
:105AB00008B5024B1B689B69019308BD28020300CF
:105AC00008B5024B1B68DB69019308BD280203007F
:105AD00008B5024B1B681B6A019308BD280203002E
:105AE00008B5024B1B685B6A019308BD28020300DE
:105AF00008B5024B1B689B6A019308BD280203008E
:105B000008B5024B1B68DB6A019308BD280203003D
:105B100008B5024B1B681B6B019308BD28020300EC
:105B200008B5024B1B685B6B019308BD280203009C
:105B300008B5024B1B681B6C019308BD28020300CB
:105B400008B5024B1B681B6D019308BD28020300BA
:105B500008B5024B1B685B69019308BD6402030032
:105B600008B5024B1B689B68019308BD68020300DF
:105B700008B5024B1B68DB68019308BD680203008F
:105B800008B5024B1B68DB69019308BD30020300B6
:105B900008B5024B1B681B6A019308BD3002030065
:105BA00008B5024B1B681B68019308BD3C0203004B
:105BB00008B5024B1B68DB68019308BD3C0203007B
:105BC00008B5024B1B681B69019308BD3C0203002A
:105BD00008B5024B1B685B69019308BD3C020300DA
:105BE00008B5024B1B689B69019308BD3C0203008A
:105BF00008B5024B1B68DB69019308BD3C0203003A
:105C000008B5024B1B681B6A019308BD3C020300E8
:105C100008B5024B1B689B6A019308BD3C02030058
:105C200008B5024B1B681B68019308BD4C020300BA
:105C300008B5024B1B685B68019308BD4C0203006A
:105C400008B5024B1B681B69019308BD4C02030099
:105C500008B5024B1B685B69019308BD4C02030049
:105C600008B5024B1B689B69019308BD4C020300F9
:105C700008B5024B1B68DB69019308BD4C020300A9
:105C800008B5024B1B681B6A019308BD4C02030058
:105C900008B5024B1B685B6A019308BD4C02030008
:105CA00008B5024B1B685B6B019308BD60020300E3
:105CB00008B5024B1B685B68019308BD2002030016
:105CC00008B5024B1B685B69019308BD2002030005
:105CD00008B5024B1B68DB6C019308BD2002030072
:105CE00008B5024B1B685B6D019308BD20020300E1
:105CF00008B5034B1B68D3F88830019308BD00003A
:105D00002002030008B5034B1B68D3F894300193BD
:105D100008BD00002002030008B5024B1B685B6948
:105D2000019308BD4402030008B5024B1B681B6ABF
:105D3000019308BD4402030008B5024B1B68DB6BEE
:105D4000019308BD4402030008B5024B1B685B6861
:105D5000019308BD4002030008B5024B1B689B6815
:105D6000019308BD4002030008B5024B1B68DB68C5
:105D7000019308BD4002030008B5024B1B681B6974
:105D8000019308BD4002030008B5024B1B685B6924
:105D9000019308BD4002030008B5024B1B689B69D4
:105DA000019308BD4002030008B5024B1B68DB6984
:105DB000019308BD4002030008B5024B1B681B6A33
:105DC000019308BD4002030008B5024B1B681B6B22
:105DD000019308BD4002030008B5024B1B685B6BD2
:105DE000019308BD4002030008B5024B1B681B6805
:105DF000019308BD1C02030008B5024B1B685B68D9
:105E0000019308BD1C02030008B5024B1B689B6888
:105E1000019308BD1C02030008B5024B1B685B6AB6
:105E2000019308BD1C02030008B5024B1B68DB6A26
:105E3000019308BD1C02030008B5024B1B681B6BD5
:105E4000019308BD1C02030008B5024B1B68DB6B05
:105E5000019308BD1C02030008B5024B1B685B6C74
:105E6000019308BD1C0203000021FFF729BF10B5F4
:105E7000836804460BB901F042FBC3689847A368E6
:105E80001BB1032221462046984720461021BDE839
:105E9000104001F030BB10B50446006808B1FFF7B0
:105EA0009DFD204610BD0B68036013B15A68013296
:105EB0005A60704710B5064C002320462360FFF758
:105EC00085FD2046034A0449BDE8104001F00EBBA1
:105ED00008E6032040E40320975E0D007047002091
:105EE000704710B51021044601F005FB204610BD97
:105EF00008B5FFF7F6FF08BD10B58368044613B177
:105F0000032201469847204610BD30B500224FF6C7
:105F10009C74026084808D888C800C68858004600D
:105F20000A6030BD10B504460068FFF765FF2046E3
:105F300010BD38B5C468F4B12378022B03D104F145
:105F40000C00FFF7EFFF656835B12846FFF7D4FF77
:105F50001021284601F0CFFAA56835B12846FFF791
:105F6000CBFF1021284601F0C6FA20461421BDE8D7
:105F7000384001F0C0BA38BD73B50E46044656F835
:105F8000043B00930D4601A83146FFF78CFF019AB0
:105F9000009B6260236001A8002301930093FEF739
:105FA00065FE3046FEF762FE2846082101F0A3FA9E
:105FB000204602B070BD13B50B460246D0E9000181
:105FC0006C4684E8030093E8030082E8030094E849
:105FD000030083E8030002B010BD826810B50AB95F
:105FE00001F08DFABDE81040C368184708B5006895
:105FF00000F11001FFF7F1FF08BD826810B50AB982
:1060000001F07DFABDE81040C368184708B5006884
:1060100000F11001FFF7F1FF08BD000038B50023C3
:106020000446036010200D46FEF735F828B1012321
:10603000C0E90133024B0360C5602060204638BDD3
:1060400080960D0038B5002383608B6804460D46AA
:106050002BB102229847EB68E360AB68A36020464F
:1060600038BD0000F0B589B004686846FFF74DFF01
:106070004FF00203D4E84F2F002A03D1C4E8413F78
:106080000029F7D125D104F10C0569462846FFF710
:106090003CFFBFF35B8F01236370002004F1080312
:1060A000BFF35B8F53E8006F43E80002002AF9D189
:1060B000BFF35B8F6EB1FFF70BFE78B12946304618
:1060C000FFF78BFF3046FFF717FF1021304601F036
:1060D00012FA6846FFF726FF09B0F0BD314602A864
:1060E000FFF7B0FFE068B4F9105008B103F0EAF828
:1060F00006901020ADF81C50FDF7CDFF0546E8B125
:10610000002787601820FDF7C6FF044688B10146C6
:10611000876002A8FFF74FFF049BA268A360059B5E
:10612000049206A9E268E36004F110000592FFF70B
:10613000ECFE084BEB60084B2C60AB6006A8FFF749
:10614000F1FE02A8FFF7D8FE002229460348FFF718
:10615000C7FDB7E7ED5F0D0085620D006F5E0D00B6
:106160002DE9F0478AB005469DF848900C46174641
:106170009846FFF7D1FD07AE824638BB4FF62E7327
:10618000059005A93046ADF81830FFF7BEFE142083
:10619000FDF781FF044648B1022303700123C0E9E3
:1061A00001AA437031460C30FFF7AFFE2846214666
:1061B00040F8044BFFF732FF3046FFF7B3FE05A867
:1061C000FFF7B0FE28460AB0BDE8F0870C234FF079
:1061D000000A1420CDE908AA0793FDF75CFF0146E9
:1061E00028B1C0E901AA80F800A080F801A004A8A5
:1061F0000391FFF713FF224B08930820FDF74BFF95
:10620000824628B1039B40F8043B04A9FFF74BFEEC
:1062100000965FFA89F3424639462046CDF824A01D
:10622000FFF782FDB8B9039B5B7803F0FF0293B9D7
:106230004FF69C7305A903A80592ADF81830FFF737
:1062400011FF05A8FFF76EFE05A80999FFF794FE58
:1062500006A8FEF70BFD039B059304A906A8FFF70C
:1062600022FE059B069A2B606A60002306A806930F
:106270000593FEF7FBFC04A8FEF7F8FCA2E700BFBD
:1062800049630D00022AF8B5054607D0032A18D045
:10629000012A01D10B6803600020F8BD18200E68A8
:1062A000FDF7F9FE044650B13146FFF7CBFE3069E9
:1062B000B6F9147008B103F005F82061A7822C60CC
:1062C000EAE70468002CE7D004F11000FFF72AFE8B
:1062D0002046FFF711FE1821204601F00CF9DBE7FC
:1062E00038B5002383608B6804460D462BB102222B
:1062F0009847EB68E360AB68A360204638BD022A8C
:1063000070B5044607D0032A12D0012A01D10B68C8
:106310000360002070BD14200E68FDF7BCFE05462A
:1063200020B13146FFF7DCFF337C2B742560F0E7AA
:106330000468002CEDD02046FFF7DEFD1421204636
:1063400001F0D9F8E5E70000F0B589B004460D4644
:1063500001A81146FFF710FEA4B124B21DB12846D2
:1063600002F0B0FF054601A803A90395ADF810405F
:10637000FFF778FE03A8FFF7D5FD02A8FEF776FC2D
:1063800009B0F0BD019D0123D5E84F2F002A03D1AC
:10639000C5E8413F0029F7D1EFD12B73BFF35B8FE5
:1063A0006B702B1DBFF35B8F53E8006F43E8004217
:1063B000002AF9D1BFF35B8F002EDED02046FFF715
:1063C00087FC074660B105F10C013046FFF715FE6A
:1063D0003046FFF791FD1021304601F08CF8CCE7F4
:1063E000314603A8FFF77CFF2B7B8DF81C30102073
:1063F000FDF751FE0546D0B187601420FDF74BFE36
:10640000044678B18760014603A8FFF7D4FD059BD9
:10641000A268A360069B0592E268E3609DF81C30C9
:1064200006922374064BEB60064B2C60AB6003A80E
:10643000FFF762FD002229460348FFF751FCC7E73A
:106440000D600D00FF620D006F5E0D0000224068C0
:106450001146FFF7B1BC002240681146FFF7BCBCF3
:1064600040680022FFF7B0BC4068002281F00101C3
:10647000FFF79ABC002340681A461946FFF78CBC08
:10648000002340681A461946FFF77EBC0022406888
:106490001146FFF771BC002240681146FFF75CBC53
:1064A000406800220221FFF75FBC002340681A46C3
:1064B000FFF74ABC024B03225A60024A1A60704737
:1064C0000CE603209C960D007047F8B5064615466D
:1064D0000C468F18BC4206D0336814F8011B9B6829
:1064E00030469847F6E72846F8BD007C0022FFF7C3
:1064F000EFBA007C0021FFF7F3BA007C0021FFF720
:10650000F7BA007C0021FFF7FBBA007C0021FFF7FF
:10651000FFBA10B51421044600F0EDFF204610BD6F
:1065200010B54FF47A73044608460021C4E90113FC
:10653000034B236020741146FFF7FAFA204610BD82
:10654000D0960D00007C0022FFF7A2BA0023007C49
:106550001A461946FFF7A4BA7FB500221423CDE9E5
:106560000122ADF804300B788DF808304B680393A6
:10657000CB680493007C0B7A059301A9FFF7E0FA3E
:1065800007B05DF804FB1FB5003B8DF800104FF01D
:106590006401039118BF0123694601928DF8083008
:1065A000FFF7DAFF05B05DF804FB0123FFF7EBBF4F
:1065B000007C0022FFF77CBA007C0022FFF780BA43
:1065C0000121FFF7F9BF002A08B54FF0000314BFFF
:1065D00004221A46FFF752FAB0FA80F0400908BDCB
:1065E000704710B51821044600F085FF204610BD05
:1065F000F0B5037D062B8DB00E4600F104074FF079
:10660000000412D000F1080515F8011D0A223046D9
:1066100000F04DF9AF42044419D0002CF4D02E21E3
:10662000304600F027F90444EEE72F236A46394646
:106630000A208DF80040FFF78BFA684602F05FFEF3
:1066400033680246DB686946304698470446204670
:106650000DB0F0BD10B5054B0446112240F8043BC7
:10666000002102F0C7FD204610BD00BFF8960D00C6
:106670000346074A10B543F8042B01F1100251F804
:10668000044B43F8044B9142F9D10A781A7010BDBB
:10669000F8960D0010B59DF8084044EA032343EA3C
:1066A000024242EA016104234160037510BD13B543
:1066B000CB7800938B784A780978FFF7EBFF02B02C
:1066C00010BD0000014B024A1A60704714E6032017
:1066D00004970D00002340681A46FFF735BB406859
:1066E00000220221FFF740BB002240681146FFF75D
:1066F00033BB002240681146FFF73EBB00234068D1
:106700001A461946FFF740BB002340681A4619464F
:10671000FFF742BB4068002281F00101FFF744BB54
:1067200040680022FFF750BB002240681146FFF787
:1067300053BB002240681146FFF73EBB2DE9F043F2
:10674000002495B016460D460746FFF783FF214605
:1067500018220EA8009402F04DFD4023CDE90C3420
:1067600021466B460CAA3046FFF702FA0446002881
:1067700046D1024601216868FFF7FEFA02218046F1
:1067800022466868FFF7F8FA009E81462146002EEF
:1067900036D0002934D17368022B03D00A2B0BD0DA
:1067A000F669F4E7B8F1000F04D071693846043196
:1067B000FFF77DFF4146F3E7B9F1000F01D14946EC
:1067C000EEE77469102201A802F014FD06238DF88B
:1067D000143001AD04F108031834186859682A46CA
:1067E00003C20833A3421546F7D101A906A807AD95
:1067F000FFF73EFF0FCD3C1D0FC42B682370DEE773
:106800000098FFF7ADF9384615B0BDE8F0830000F9
:10681000024B034A1A6000225A60704718E60320B0
:1068200010970D00F8B506460D468F180024BD429E
:106830000CD0336815F8011B9B6830469847031E3F
:1068400001DB1C44F3E7002C08BF1C462046F8BDC2
:1068500013B50446084659B1019102F050FD236872
:106860000199DB680246204602B0BDE81040184797
:1068700002B010BD03689B68184708B5FFF7E8FF32
:1068800008BD38B50D210546FFF7F4FF0A2104467F
:106890002846FFF7EFFF204438BD38B50546FFF71F
:1068A000D7FF04462846FFF7ECFF204438BD30B53B
:1068B0008BB000238DF82430012A98BF0A2209AC3E
:1068C0000D46B1FBF2F101FB125303F0FF03092B5C
:1068D00094BF30333733DBB2AA4204F8013DEFD91D
:1068E0002146FFF7B5FF0BB030BD10B5044628B107
:1068F00002F0ACFC90FBF4F303FB1404204610BD43
:10690000884210B5044603DA081AFFF7EEFF044484
:10691000204610BD10B50446FFF7EEFA204610BD24
:106920000348044A04490023836000F0DFBD00BF30
:1069300020E6032040E4032015690D0010B504464D
:1069400008462170FFF71CF900236360204610BD44
:1069500010B504460068FFF74FFA204610BD10B589
:106960000446006808B1FFF747FA0023C4E9013381
:10697000236010BD38B504460D4600680131FFF7AD
:1069800043FA10B1C4E90005012038BD10B5036811
:10699000044623B143688B4201D3012010BD204639
:1069A000FFF7E8FF0028F9D0A368002BF5D1226893
:1069B0001370F2E737B50D46114601920446FFF712
:1069C000E5FF019A28B92046FFF7C9FF204603B02A
:1069D00030BDA2602946206802F0FEFB2268A36851
:1069E0000021D154F2E7002313B5C0E90033044677
:1069F0008360037341B10846019102F080FC019964
:106A000002462046FFF7D6FF204602B010BD38B53B
:106A1000054600680C4668B16A688B689A4207D3DD
:106A2000096802F047FCA368AB600023A36038BD8F
:106A3000FFF7E2F923682B6063686B60A368AB60C3
:106A40000023C4E90033F1E7884210B5044605D0BD
:106A50000B682BB18A681946FFF7ACFF204610BDC2
:106A6000FFF77DFFFAE710B500230446C0E90033C5
:106A700083600373FFF7E8FF204610BD884210B51E
:106A8000044601D0FFF7C3FF204610BD13B50446EE
:106A900059B10846019102F032FC019902462046A4
:106AA000FFF788FF204602B010BDFFF758FFF9E757
:106AB00010B504468AB00023C4E90033A3602373F1
:106AC000084601A900F03CFA01A92046FFF7DEFFC5
:106AD00020460AB010BD70B505460E4609B9002023
:106AE00070BD6AB1846814442146FFF74FFF002847
:106AF000F5D02868AB683146184402F0DBFBAC6087
:106B00000120EDE707B500238DF80410012201A94B
:106B10008DF80530FFF7DFFF03B05DF804FB10B51B
:106B20008A6809680446FFF7D6FF10B92046FFF7C8
:106B300016FF204610BD13B5044629B92046FFF7BD
:106B40000EFF204602B010BD0846019102F0D7FBAF
:106B5000019902462046FFF7BEFF0028EED0F0E77D
:106B600010B50446FFF7CEFF10B92046FFF7F7FE39
:106B7000204610BD0EB470B587B00BAD044655F875
:106B8000042B01922B46052104A80395FFF744F935
:106B90000B4906462046FFF726FF31462046FFF701
:106BA000F5FE206830B1019A03952B46711CFFF762
:106BB00033F9A060204607B0BDE8704003B07047CD
:106BC000B5950D0010B50446006818B1FFF714F92B
:106BD0000023236010BD10B50446FFF7F3FF2046E5
:106BE00010BD000010B5094B094C022200201A60AC
:106BF000084B2060A080A071A360FFF759F82046E1
:106C0000054A0649BDE8104000F070BC3CE6032090
:106C100030E603200000FFFF40E40320D76B0D00A7
:106C2000024B1A68024B1A60704700BFD4E303207E
:106C300040E6032070474174704708B5007CFEF7BA
:106C4000E7FF20EAE07008BD08B5007CFEF7B8FF5A
:106C500020EAE07008BD08B5007CFEF7C1FF40EAFD
:106C6000E07008BD08B5007CFEF7B2FF40EAE070B6
:106C700008BD007CFEF7BCBF37B5457C04462DB18E
:106C8000207C03B0BDE83040FEF792BF007C01914C
:106C9000FEF7BEFF00280199F2DC284603B030BDA4
:106CA00010B51421044600F026FC204610BD00005B
:106CB00010B54FF0000C0446084611464FF47A72A6
:106CC000C4E901C2044A22600122207462741A4697
:106CD000FEF766FF204610BD60970D0013B50E4C01
:106CE0002178BFF35B8F11F0010112D12046019191
:106CF000FDF7D7F9019960B1084A094B0948FFF738
:106D0000D7FF2046FDF7D2F9074A0849054800F0A9
:106D1000EDFB044802B010BD44E6032048E6032022
:106D2000CCE6032050E7032040E40320356C0D003F
:106D300041747047704708B50021007CFEF790FF52
:106D400040EAE07008BD08B50121007CFEF788FF2D
:106D500040EAE07008BD08B5007CFEF779FF20EA44
:106D6000E07008BD08B5007CFEF76AFF20EAE0701D
:106D700008BD13B50446007C0191FEF769FF0028A9
:106D8000019901DC607C20B1207CFEF771FF20EAD4
:106D9000E07002B010BD007CFEF772BF10B5142188
:106DA000044600F0A8FB204610BD000010B54FF4CB
:106DB0007A73044608460021C4E90113044B23609A
:106DC0000123207463741146FEF72AFF204610BD8C
:106DD00090970D00007C0022FEF72ABF007CFEF792
:106DE00057BFFFF7FBBF10B514220446002102F085
:106DF00001FA204610BD000010B5104C88B003A861
:106E0000FFF7F1FF2178BFF35B8F11F0010111D182
:106E100020460191FDF745F9019958B103AA0848A8
:106E2000FFF7C4FF2046FDF741F9064A064904482A
:106E300000F05CFB024808B010BD00BF64E703200F
:106E400068E7032040E40320356D0D000022406810
:106E50001146FEF791BF002240681146FEF7ACBF15
:106E6000002240681146FEF7B7BF40680022FEF7D7
:106E7000ABBF4068002281F00101FEF795BF0023FF
:106E800040681A461946FEF787BF002340681A4635
:106E90001946FEF779BF002240681146FEF75CBF35
:106EA000406800220221FEF75FBF002340681A46B7
:106EB000FEF74ABF024B04225A60024A1A6070472A
:106EC0007CE70320C0970D0010B5044602F017FAC6
:106ED000013823182046834206D90278197800F831
:106EE000011B03F80129F6E710BD70B50C46911E91
:106EF0002229054622D820466DB1B5FBF2F602FBE9
:106F00001655E9B2092D94BF30315731C9B200F896
:106F1000011B3546F0E7024623443021934202D953
:106F200002F8011BFAE71A1A834238BF0022002335
:106F300083542046FFF7C8FF204670BD0020FCE7C1
:106F400038B5031E0C4615460EDAB3F1004F4FF06C
:106F50002D0214BF5842184601230A702A461944CC
:106F6000FFF7C3FF204638BD0123F9E7014B186046
:106F7000704700BFDCE3032008B50B4B43B1FFF7BC
:106F80003BFF03681B699847002801DDAFF30080D1
:106F9000064B43B1FFF7A2FE03681B699847002820
:106FA00001DDAFF3008008BD00000000000000001C
:106FB00008B5FFF7E1FFFEF731FD014B186008BD92
:106FC00098E703200248034A0349121A02F004B961
:106FD00000F4032004F4032030980D0007B50023CB
:106FE00000931A466FF07701FEF78CFE03B05DF850
:106FF00004FB000007B543880A2B08D0502B0BD1A7
:10700000094B1B684BB103B05DF804EB1847FFF761
:10701000E5FF03B05DF804FB002300931A466FF010
:107020007701FEF76FFEF4E788E7032038B5124CCE
:107030001248134D0021FEF70FFF2368AB42114B9E
:107040000CBF012200221A7002D0FFF7BBFF25609F
:10705000FEF7CCFC044602F0D5F80B4B13B12046EA
:10706000AFF3008000210848FEF766FEBDE8384017
:1070700006480021FEF73CBE00F403206D6F0D00B2
:107080001E1C279A84E7032000000000F56F0D0006
:10709000232813B502D9002002B010BDA0F10B03C4
:1070A000022B1AD8174C2178BFF35B8F11F0010126
:1070B0000BD120460191FCF7F4FF019928B1124849
:1070C000FFF73CFC2046FCF7F1FF0F4B1878FEF76A
:1070D0005FFD0028DFD10120DEE7012809D800F09C
:1070E0006FF80021007CFEF71BFD80F00100C0B2AC
:1070F000D2E709380128EED8FFF7F0FD007CFEF753
:107100007FFDF2E78CE7032090E70320232838B5C2
:1071100004460D460AD8FF2908D0FFF7B9FF28B169
:1071200029462046BDE83840FEF788BC38BD38B552
:1071300004460D46FEF78AFCFF2810D0062804D826
:107140004D2323FA00F0C30709D42046FFF7A0FF20
:1071500028B129462046BDE83840FEF77FBC38BD3F
:107160000D2810B504469CBF0E34A4B22046FFF78C
:107170008FFF50B103212046FEF758FC032804D1AD
:107180002046BDE81040FEF771BC002010BD000095
:1071900038B50023202543801423044603808560EE
:1071A00005610649284600F0A8F9044960602846B0
:1071B00000F0A3F9E060204638BD00BFEC970D0059
:1071C00030B50F4D2978BFF35B8F11F0010487B004
:1071D00013D12846FCF765FF78B101A8FFF7D8FF67
:1071E00001AA21460748FFF79BF92846FCF75EFFF6
:1071F000054A0649034800F079F9024807B030BD56
:107200009CE70320A0E7032040E40320C9640D00AD
:107210002DE9F347002406460F46904600F5A07579
:107220004FF48039A246A00000F5A07398B22B68F5
:107230006BB1D6F8043309FA04F21A4207D0C5F844
:1072400000A02B680193019BD7E9003198470134D6
:10725000A04505F10405E6D102B0BDE8F0870000C5
:107260002DE9F347574B0779164602689A420446C0
:107270000D4604D1544A00210A20FEF711FD25B91C
:10728000514A29460A20FEF70BFD26B94E4A3146DF
:107290000A20FEF705FD4D4A0C2303FB0723904609
:1072A0001B7A002B40F08C802368464A93420FD013
:1072B00002F5805293420BD002F58052934207D0E0
:1072C00002F58032934203D002F58052934202D1FC
:1072D000AB78032B04D93C4A00210A20FEF7E0FCDE
:1072E0000C237B4308EB030248F8036000216B6822
:1072F00053600E4660792268CBB2984257D8EE7838
:10730000B31E012B4FEA123942F3073A07D9731F14
:10731000022B04D92C4A00210A20FEF7C1FCBAF145
:10732000000FACBF0AF16043294B2A484FEA4616CA
:10733000B8BF09F00F09F6B2AABF03F5614303F81D
:10734000096083F80063236843F307314909012288
:10735000C3F3043302FA03F340F8213020686B785A
:10736000D0F8041503F0030321F003010B43C0F828
:1073700004352068AB78D0F8081503F0030321F03A
:1073800003010B43C0F8083520682B78D0F810159E
:1073900003F00F0321F00F010B43C0F810350C234D
:1073A00003FB078700203A7202B0BDE8F0879B001C
:1073B00003F5A0730131D650D3580193019B99E78F
:1073C0000820F1E700800040FD590D00B4E70320DC
:1073D00014ED00E000E100E038B50C4D02790C211D
:1073E00001FB02520446127A012A04D0084A002105
:1073F0000A20FEF755FC236801221A6023790C222B
:1074000002FB035302221A7238BD00BFB4E7032007
:10741000FD590D0038B50A4D02790C2101FB0252CD
:107420000446117A19B9074A0A20FEF739FC236885
:1074300001221A6123790C2101FB03531A7238BD12
:10744000B4E70320FD590D0010B5084A03790C215B
:1074500001FB03230446197A19B9054A0A20FEF7ED
:107460001FFC23680122DA6010BD00BFB4E70320CF
:10747000FD590D0073B54FF4803405688C408BB115
:1074800001F150039B000026EE50EB580193019B45
:107490000368C3F80443036801F5A87143F8212089
:1074A00002B070BDC5F80843F5E7F0B4076840F2D4
:1074B0000116D7F800528E4025EA0605C7F800529B
:1074C0000468D4F800522B43C4F800329DF8103001
:1074D000F0BCFFF7CFBF0000024903480622FFF7C8
:1074E00097BE00BFE4E7032000B001400B46014611
:1074F000184601F063BEFCF7D2BDFCF7CEBD08B55F
:10750000FEF792FC000000002DE9F04F2DED028BFC
:107510008DB057EC106B55EC114B00F0ADF9AE4B44
:10752000B0EE408AF0EE608A93F90090B9F1FF3F27
:1075300037D022462B462046294601F0D9FD834606
:1075400078BB32463B463046394601F0D1FD804695
:10755000002840F093804FF0000A4FF0000B3046B7
:10756000394652465B4601F091FD18B352465B46E0
:107570002046294601F08AFD0090002857D0974BFD
:10758000CDF828800122CDE90467CDE90645CDE993
:1075900008AB02920393B9F1000F00F089809FEDD0
:1075A0008A8BB0EE480AF0EE680A0DB0BDEC028B93
:1075B000BDE8F08FB0EE480AF0EE680A01F004F87A
:1075C0008046002800F082804FF000084FF000094C
:1075D00051EC180B42464B4601F058FD0028E0D014
:1075E00047EC106B00F0F0FF0028DAD045EC104BB0
:1075F00000F0EAFF0028D4D0774B784A93F90030A6
:10760000039204210022022BCDE90467CDE906454F
:10761000CDE9088902910A9204D002A800F0E0FFA7
:1076200000284AD1FEF710FC2223036045E045EC18
:10763000104B00F0C9FF0028B3D052465B462046ED
:10764000294601F02DFD0028ABD0634B0099634A19
:1076500093F900300A910121CDE90467CDE906458F
:10766000CDE90212002B6FD1CDE908AB02A800F0E2
:10767000B7FF00286ED00A9B2BB320E00022002326
:107680002046294601F002FD00288AD09FED4E8B4E
:10769000524BCDF828B00122B9F1020FCDE90467B1
:1076A000CDE906458DED088B029203933FF479AF47
:1076B00002A800F095FF002851D00A9B1BB1FEF7ED
:1076C000C3FB0A9B03609DED088B6AE747EC106BD8
:1076D00000F07AFF00283FF477AF45EC104B00F044
:1076E00073FF00283FF470AF53EC182B18EE100A0C
:1076F000194601F0FDFC384B002840F0968093F9C4
:1077000000800A9003230293344B0393CDE904676E
:10771000CDE90645B8F1000F26D1DFF8D0904FF043
:10772000604852465B4630463946CDE9088901F04B
:10773000B7FC48BB02A800F053FF00289BD1FEF71E
:1077400083FB2223036096E725490020022BCDE925
:1077500008018BD1FEF778FB212303608BE7FEF74E
:1077600073FB21230360A8E79FED197B52465B461C
:10777000304639468DED087B01F092FC002837D168
:10778000B8F1020FDBD0D5E7164B00222046294680
:1077900001F014FA02460B4643EC102BCDE900230E
:1077A00000F02AFFDDE9002351EC100B01F06EFC24
:1077B000002836D10C4B08494FF06042CDE9082330
:1077C00091F90080DCE700BF000000000000F03FFE
:1077D000000000000000F07FD8E30320F0970D00C8
:1077E0000000F0FF0000E03FFFFFEFC7FFFFEF47A3
:1077F0001C4B00222046294601F0E0F902460B46C8
:1078000043EC102BCDE9002300F0F6FEDDE9002368
:1078100051EC100B01F03AFC18B9134B0022CDE9E2
:107820000823124B93F90080AAE793F90090104BBC
:10783000CDF828800122CDE90467CDE90645CDE9E0
:107840000223B9F1000F3FF40FAF52465B4650469A
:10785000594601F0DDFAB9F1020FCDE908013FF414
:1078600079AF03E70000E03F0000F0FFD8E303201A
:10787000F0970D00000000002DE9F04F57EC116B60
:107880002DED0A8B27F0004A5AEA060289B03DD056
:1078900055EC104B764925F00048884510EE102A2B
:1078A000A9462CDC11EE103ABB463AD08A4526DCBC
:1078B0006F498A4521D0B9F1000F3DDB00210391CA
:1078C000002B55D16A4B9A4500F0A880694B9A4528
:1078D00000F0B680BBF1804F00F00185664B9B4500
:1078E00046D1B9F1000F43DB45EC104B09B0BDECBC
:1078F0000A8BBDE8F04F00F099BD002BDBD008F1FA
:10790000404808F5801858EA02030DD19FED547BDA
:107910008DED007B9DED000B09B0BDEC0A8BBDE841
:10792000F08F0CB9C245C3DD544809B0BDEC0A8BD9
:10793000BDE8F04F00F058BE51498A4500F38780FA
:10794000A1F154718A450FDD4FEA2A51A1F2FF31AE
:10795000142940F3CE84C1F1340123FA01F000FA76
:1079600001F1994200F0208500210391002BADD058
:1079700045EC104B069200F01DFE069A8DED000BB3
:107980005ABBB8F1000F04D03A4B29F040429A425A
:1079900023D1BBF1000F07DADDE9002335490020D0
:1079A00001F036FACDE90001B9F1000FB2DA039B1C
:1079B00008F1404808F5801858EA030340F0BE84F7
:1079C000DDE900231046194600F040FF02460B4651
:1079D00001F01EFACDE900019CE7039A4FEAD97342
:1079E000013B0693134335D0264B9A454EDD03F1F8
:1079F00004739A45244B40F3ED83984540F36B8321
:107A0000BBF1000F40F36B8317A3D3E900231046AB
:107A1000194601F0D3F8CDE900017BE708F14043B6
:107A200003F5801313433FF471AF174B984540F3B0
:107A30008883BBF1000FC0F25283CDE9006769E78C
:107A4000BBF1000FC0F24184CDE9004562E702219D
:107A5000039135E722462B46B4E700BFAFF3008021
:107A6000000000000000F03F9C7500883CE4377E79
:107A70000000F07F0000F03F0000E03FF4970D00B1
:107A8000FFFF3F430000E041FFFFEF3FE44B09EA07
:107A90000303002B40F01684DDE90001E14B0022D6
:107AA00001F08CF8CDE90001DDF804806FF03400BE
:107AB0004FEA2853DC49C8F31302A3F2FF3342F024
:107AC0007F5818188A42079048F4401840F3E98319
:107AD000D64B9A4240F33E849FEDBB7BB0EE47BA53
:107AE000F0EE67BAB0EE47CAF0EE67CA9FEDB87B1A
:107AF000013054EC173B0790A8F580184FF00009AF
:107B0000DDE900AB44EC183B1A465046234641469B
:107B100000F09CFE53EC182B04460D46504641469F
:107B200000F096FE02460B460020C14901F070F9B4
:107B300045EC1A4B41EC190B51EC1A0B53EC192B79
:107B400001F03CF8C3464FEA680848F0005808F5D1
:107B5000002303EB09050A4600230146CDE9001284
:107B60000093DDE900890024CDE904122B4622466A
:107B70004046494601F022F802460B4651EC1A0BEA
:107B800000F064FE41EC170B53EC182B20462946FD
:107B900055EC174B00F05AFE02460B46504659462C
:107BA00000F054FE42464B4601F008F802460B46F0
:107BB0002046294600F04AFE53EC192B00F0FEFF48
:107BC000DDE904AB04460D4652465B465046594635
:107BD00000F0F4FF80A3D3E9002345EC1A4B0446E0
:107BE0000D4600F0EBFF7EA3D3E9002300F030FE4A
:107BF00022462B4600F0E2FF7BA3D3E9002300F0EE
:107C000027FE22462B4600F0D9FF79A3D3E90023B3
:107C100000F01EFE22462B4600F0D0FF76A3D3E9EB
:107C2000002300F015FE22462B4600F0C7FF74A388
:107C3000D3E9002300F00CFE22462B4604460D46F5
:107C40001046194600F0BAFF02460B462046294668
:107C500000F0B4FF424604460D464B465046594696
:107C6000CDE904AB00F0F4FD53EC1A2B00F0A6FFB5
:107C700022462B4600F0ECFD424604460D464B469C
:107C80004046494600F09AFF45EC194B694B0022EB
:107C900082468B4600F0DCFD53EC192B00F0D8FD3A
:107CA000009C0D4622462B464046494600F086FF82
:107CB000604B8046894600222046294600F0C6FDDA
:107CC00052465B4600F0C2FD02460B4651EC190BD2
:107CD00000F0BCFDDDE9042300F070FF49EC188BD7
:107CE0002246804689462B4651EC1A0B00F066FF6F
:107CF00002460B464046494600F0AAFD82468B46A6
:107D000052465B4651EC180B00F0A2FD009C3EA3CE
:107D1000D3E9002320460D4600F050FF53EC182B0A
:107D2000804689462046294600F090FD02460B46D3
:107D30005046594600F08AFD35A3D3E9002300F0F0
:107D40003DFF49EC198B34A3D3E9002380468946D3
:107D50002046294600F032FF02460B46404649467F
:107D600000F076FD53EC1C2B00F072FD8246079864
:107D70008B4600F0B9FE5246804689465B4651EC80
:107D8000190B00F065FD53EC1B2B00F061FD424622
:107D90004B4600F05DFD009C42464B4620460D469A
:107DA00000F054FD53EC1B2B00F050FD53EC192B4D
:107DB00000F04CFD02460B465046594600F046FD89
:107DC00082468B4638E000BF000000000000000043
:107DD000000000000000F03FEF4E454A287ECA3FF9
:107DE00065DBC9934A86CD3F01411DA96074D13F2F
:107DF0004D268F515555D53FFFAB6FDBB66DDB3F41
:107E0000033333333333E33F000000E009C7EE3F71
:107E1000FD033ADC09C7EE3FF5015B14E02F3EBEDF
:107E20000000F07F000040438E98030079B60B00FD
:107E30000000F03F00000840039B069A013B1343FB
:107E400040F078819FEDC47BB0EE479AF0EE679AE0
:107E50000023CDE900670093DDE900893046424602
:107E600039464B4600F0F2FC22462B4600F0A6FEB7
:107E700032463B4606460F465046594600F09EFEA7
:107E800002460B463046394600F0E2FC4246824646
:107E90008B464B462046294600F090FE06460F468C
:107EA0003B4650465946324600F0D2FCC44B9942FC
:107EB00004460D46884640F3178101F13F4303F520
:107EC000E003034340F02A82A5A3D3E900235046F0
:107ED000594600F0BDFC324641EC180B3B462046AB
:107EE000294600F0B3FC02460B4651EC180B01F09A
:107EF000F5F8002840F01282C8F30A534FF48012BC
:107F0000A3F2FE3342FA03F34344AE49C3F30A52E9
:107F1000A2F2FF3241FA02FCC3F3130523EA0C017B
:107F2000C2F1140445F48015B8F1000F0B4645FA70
:107F300004F103914FF00000B8BF49420246B8BFB8
:107F400003913046394600F081FC06460F463B4619
:107F500050465946324600F07BFC039B1B050093BC
:107F60000D46002480A3D3E900232046294600F0D3
:107F700025FE3246804689463B462046294600F08B
:107F800065FC02460B465046594600F05FFC78A35C
:107F9000D3E9002300F012FE77A3D3E900230646BD
:107FA0000F462046294600F009FE02460B463046A1
:107FB000394600F04DFC06460F4632463B464046E9
:107FC000494600F045FC42464B4604460D4600F04B
:107FD0003DFC02460B463046394600F037FC22464F
:107FE00082468B462B462046294600F0E7FD64A3D7
:107FF000D3E9002306460F4600F0E0FD62A3D3E973
:10800000002300F023FC32463B4600F0D7FD60A37E
:10801000D3E9002300F01CFC32463B4600F0CEFDC5
:108020005DA3D3E9002300F011FC32463B4600F08B
:10803000C5FD5BA3D3E9002300F00AFC32463B46B2
:1080400000F0BCFD02460B462046294600F0FEFB30
:1080500006460F4632463B462046294600F0AEFD16
:108060000022804689464FF080433046394600F072
:10807000EDFB02460B464046494600F0C9FE52461B
:1080800006460F465B462046294600F097FD5246BD
:108090005B4600F0DDFB02460B463046394600F0F9
:1080A000D5FB22462B4600F0D1FB02460B460020B2
:1080B000454900F0CBFB0B4600991944B1F5801FF0
:1080C0000246C0F26981104653EC192B00F076FD90
:1080D000CDE900011EE4BBF1000FFFF695AC9FED6A
:1080E000327B8DED007B15E4DFF8E4C021F0004326
:1080F000634540F30B81354B0B4403430AD13246B1
:108100003B4600F0A3FB52465B4600F0DDFF002833
:108110003FF4F2AE26A3D3E9002351EC190B00F093
:108120004DFD23A3D3E9002300F048FDCDE9000174
:10813000FFF7F0BB9FED207BB0EE479AF0EE679A19
:1081400086E6BBF1000FCADA07F1004300960193FF
:10815000FFF7E0BBAFF30080000000000000F0BFBD
:10816000FE822B654715973C00000000432EE63F3A
:10817000EF39FAFE422EE63F396CA80C615C20BE56
:10818000D0A4BE726937663EF16BD2C541BDBB3E1D
:108190002CDE25AF6A56113F93BDBE166CC1663FFB
:1081A0003E5555555555C53F0000000000000000E4
:1081B00059F3F8C21F6EA501000000000000F03F57
:1081C000FFFF8F40FFFF0F000000F03F00346F3FC4
:1081D000FFCB90409845FFF67EAF914B98453FF717
:1081E0000FAC8F4B0022DDE9000100F02FFB78A3DC
:1081F000D3E9002304460D4600F0E0FC76A3D3E962
:10820000002382468B462046294600F0D7FC854B4A
:108210008046894600222046294600F0CFFC0246CF
:108220000B466FA1D1E9000100F010FB22462B465E
:1082300000F0C4FC02460B4600207B4900F006FB20
:1082400022462B4604460D461046194600F0B6FC61
:1082500002460B462046294600F0B0FC62A3D3E953
:10826000002300F0ABFC02460B464046494600F0B6
:10827000EDFA804689465046594642464B4600F044
:10828000E7FA002452465B4620460D4600F0DEFA2F
:1082900002460B464046494600F0D8FA82468B46D5
:1082A000CAE59FED537BB0EE47BAF0EE67BAB0EE89
:1082B00047CAF0EE67CA9FED507B4FF0000954ECBF
:1082C000173B1DE40020FFF7F3BB554922462B4620
:1082D000002000F09DFDCDE90001FFF71BBB224609
:1082E0002B462046294600F069FCCDE90001FFF746
:1082F00011BB002B42D1C1F114014AFA01F000FA7E
:1083000001F151455AD00393FFF7E0BA464A934230
:108310005BDCDDE900120091039122E638A3D3E98A
:10832000002351EC190B00F049FC35A3D3E90023DD
:1083300000F044FCCDE90001FFF7ECBA039B012BF0
:108340007FF4E8AADDE9002101F10043CDE9002333
:10835000FFF7E0BA9FED2C7BB0EE47BAF0EE67BABC
:108360009FED2B7BB0EE47CAF0EE67CA9FED2A7BEC
:108370004FF4802954EC173BFFF7C2BB45EC104B80
:10838000039200F017F9039A8DED000B002A7FF499
:1083900061AB0392FFF7F5BA039843EC102B00F0A2
:1083A000BFF951EC100B8FE600F00100C0F10201A3
:1083B0000391002B3FF48AAAFFF7DABA00F001001C
:1083C000C0F102030393FFF781BA1B1596E500BFC6
:1083D000000000604715F73F44DF5DF80BAE543EE8
:1083E000555555555555D53FFE822B654715F73FD9
:1083F0000000000000000000000000000000F03F4E
:108400009C7500883CE4377E0000004003B8E23FE2
:1084100006D0CF43EBFD4C3E000000000000F83FCB
:108420000000F03F0000D03F0000E03F2DE9F041A8
:108430005F4A57EC106BBA4300F09880002F10EEA3
:10844000104A3B464EDD39155BD0C3F31303CA0710
:1084500043F48013A1F2FF3E03D45B0003EBD4731B
:108460006400E20F4FF0000C02EB43034FEA6E0E84
:108470006400664616254FF40012B118994202DCDA
:108480005B1A8E1894445B00013D03EBD4734FEAF2
:1084900052024FEA4404F0D12F4620204FF0004210
:1084A00009E03ED0E10F01384FEA520201EB4303ED
:1084B0004FEA44043ED0B34202EB0501F1DD00294E
:1084C00001EB020509DBB0469B1BA14288BF03F10B
:1084D000FF33641A17444646E4E7002DF3DB06F148
:1084E0000108F1E727F00042324336D0002F4DD18A
:1084F0003946E20A153964051346002AF9D0D70235
:1085000051D400205B00DE02054600F10100F9D5E0
:108510001A4623468440C0F12000C3401343491B40
:1085200093E7A142BED8002901EB0205D5DB9846AE
:108530000023CEE7234312D178084FEA6C0101F102
:108540007F511CF0010F01F5001118BF40F00040F1
:1085500001EB0E53024643EC102BBDE8F0817B1C6F
:1085600016BF781C0CF1010C4008E6E710EE102A4B
:1085700010EE100A3B46394600F020FB32463B46DF
:1085800000F066F941EC100BBDE8F08110EE102A06
:108590003046394600F05AF902460B4600F038FCE6
:1085A00041EC100BD9E7234620204FF0FF35B4E70C
:1085B0000000F07F51EC100B10EE102A21F0004368
:1085C00043EC102B704700BF82B08DED000B01987B
:1085D00040F0004000F58010C00F02B0704700BFAF
:1085E00000207047000000009FED010B704700BFA6
:1085F000000000000000F87FF0B553EC102BC3F32F
:108600000A56A6F2FF30132810EE105A83B019460E
:108610004FEAD37431DC00284CDB3E4E064103EABE
:10862000060717432ED003EA56031D434FEA5606AA
:108630000CD04FF48023132821EA060643FA00F1F8
:1086400041EA06010CBF4FF000450025324800EB1F
:10865000C4042A46D4E900450B462046294600F0CA
:10866000F7F8CDE90001DDE9000122462B4600F0D4
:10867000EDF841EC100B03B0F0BD332806DDB0F58A
:10868000806F40D043EC102B03B0F0BDA6F2134630
:108690004FF0FF30F0400242F4D015EA50024FEAAA
:1086A0005003D3D04FF0804225EA030542FA06F684
:1086B0003543CBE723F000401043E3D0C3F313006E
:1086C000104345420543144800EBC400D0E900675D
:1086D000590C2D0B490405F4002545EA01033046E9
:1086E000394600F0B5F8CDE900013B46DDE900016F
:1086F000324600F0ABF821F0004343EAC47141EC8C
:10870000100B03B0F0BD10EE100A00F0A1F841EC20
:10871000100BB9E7FFFF0F00F8970D0000000000F5
:1087200038B553EC102BC3F30A511C46054681BBE8
:1087300010EE101A23F00044214329D019460022DC
:108740003D4B3E4C10EE100A00F038FAA5420246AE
:108750000B4616DB0C46C1F30A513639294440F268
:10876000FE70814221DC002947DC11F1350F34DA3B
:108770004CF250318D4218DC002B27A1D1E90001C9
:1087800044DB25A3D3E9002300F018FA41EC100BD9
:1087900038BD40F2FF708142E0D110EE100A194658
:1087A00000F056F841EC100B38BD002B1CA1D1E9AC
:1087B000000107DB1AA3D3E9002300F0FFF941EC25
:1087C000100B38BD18A1D1E9000115A3D3E900238E
:1087D00000F0F4F941EC100BF3E724F0FF4424F42B
:1087E000E004363144EA0153104619460022144B86
:1087F00000F0E4F941EC100B38BD24F0FF4424F400
:10880000E00444EA015343EC102B38BD08A1D1E940
:108810000001B6E7AFF3008059F3F8C21F6EA5015F
:108820009C7500883CE4377E9C7500883CE437FEEC
:1088300059F3F8C21F6EA58100005043B03CFFFF02
:108840000000903C81F0004102E000BF83F0004353
:1088500030B54FEA41044FEA430594EA050F08BFDB
:1088600090EA020F1FBF54EA000C55EA020C7FEA9F
:10887000645C7FEA655C00F0E2804FEA5454D4EB1C
:108880005555B8BF6D420CDD2C4480EA020281EAE6
:10889000030382EA000083EA010180EA020281EA1E
:1088A0000303362D88BF30BD11F0004F4FEA013170
:1088B0004FF4801C4CEA113102D0404261EB41017F
:1088C00013F0004F4FEA03334CEA133302D0524205
:1088D00063EB430394EA050F00F0A780A4F10104C1
:1088E000D5F1200E0DDB02FA0EFC22FA05F28018FB
:1088F00041F1000103FA0EF2801843FA05F35941E1
:108900000EE0A5F120050EF1200E012A03FA0EFC5F
:1089100028BF4CF0020C43FA05F3C01851EBE37189
:1089200001F0004507D54FF0000EDCF1000C7EEBA6
:1089300000006EEB0101B1F5801F1BD3B1F5001FE4
:108940000CD349085FEA30004FEA3C0C04F1010403
:108950004FEA445212F5800F80F09A80BCF1004F2C
:1089600008BF5FEA500C50F1000041EB045141EAAE
:10897000050130BD5FEA4C0C404141EB0101013C77
:1089800028BFB1F5801FE9D291F0000F04BF014666
:108990000020B1FA81F308BF2033A3F10B03B3F138
:1089A00020020CDA0C3208DD02F1140CC2F10C02C8
:1089B00001FA0CF021FA02F10CE002F11402D8BF26
:1089C000C2F1200C01FA02F120FA0CFCDCBF41EAF2
:1089D0000C019040E41AA2BF01EB0451294330BDC1
:1089E0006FEA04041F3C1CDA0C340EDC04F114049E
:1089F000C4F1200220FA04F001FA02F340EA030075
:108A000021FA04F345EA030130BDC4F10C04C4F1BA
:108A1000200220FA02F001FA04F340EA030029469A
:108A200030BD21FA04F0294630BD94F0000F83F4E4
:108A3000801306BF81F480110134013D4EE77FEAC7
:108A4000645C18BF7FEA655C29D094EA050F08BF13
:108A500090EA020F05D054EA000C04BF19461046F4
:108A600030BD91EA030F1EBF0021002030BD5FEA38
:108A7000545C05D14000494128BF41F0004130BD60
:108A800014F580043CBF01F5801130BD01F00045B4
:108A900045F0FE4141F470014FF0000030BD7FEA27
:108AA000645C1ABF194610467FEA655C1CBF0B4622
:108AB000024650EA013406BF52EA033591EA030F39
:108AC00041F4002130BD00BF90F0000F04BF002131
:108AD000704730B54FF4806404F132044FF0000564
:108AE0004FF0000150E700BF90F0000F04BF0021DD
:108AF000704730B54FF4806404F1320410F0004543
:108B000048BF40424FF000013EE700BF42004FEA3D
:108B1000E2014FEA31014FEA02701FBF12F07F43BA
:108B200093F07F4F81F06051704732F07F4208BF71
:108B3000704793F07F4F04BF41F40021704730B578
:108B40004FF4607401F0004521F000411CE700BFC4
:108B500050EA010208BF704730B54FF000050AE047
:108B600050EA010208BF704730B511F0004502D548
:108B7000404261EB41014FF4806404F132045FEA4A
:108B8000915C3FF4D8AE4FF003025FEADC0C18BFF3
:108B900003325FEADC0C18BF033202EBDC02C2F1E5
:108BA000200300FA03FC20FA02F001FA03FE40EA77
:108BB0000E0021FA02F11444BDE600BF70B54FF07B
:108BC000FF0C4CF4E06C1CEA11541DBF1CEA135559
:108BD00094EA0C0F95EA0C0F00F0DEF82C4481EAC1
:108BE000030621EA4C5123EA4C5350EA013518BFE1
:108BF00052EA033541F4801143F4801338D0A0FBCE
:108C000002CE4FF00005E1FB02E506F00042E0FB7A
:108C100003E54FF00006E1FB03569CF0000F18BF80
:108C20004EF0010EA4F1FF04B6F5007F64F5407428
:108C300004D25FEA4E0E6D4146EB060642EAC621BB
:108C400041EA55514FEAC52040EA5E504FEACE2E28
:108C5000B4F1FD0C88BFBCF5E06F1ED8BEF1004F2B
:108C600008BF5FEA500E50F1000041EB045170BDA7
:108C700006F0004646EA010140EA020081EA0301EB
:108C8000B4EB5C04C2BFD4EB0C0541EA045170BDE7
:108C900041F480114FF0000E013C00F3AB8014F161
:108CA000360FDEBF002001F0004170BDC4F10004AA
:108CB000203C35DA0C341BDC04F11404C4F120052B
:108CC00000FA05F320FA04F001FA05F240EA020086
:108CD00001F0004221F0004110EBD37021FA04F6BC
:108CE00042EB06015EEA430E08BF20EAD37070BD76
:108CF000C4F10C04C4F1200500FA04F320FA05F0D5
:108D000001FA04F240EA020001F0004110EBD370D6
:108D100041F100015EEA430E08BF20EAD37070BD46
:108D2000C4F1200500FA05F24EEA020E20FA04F31F
:108D300001FA05F243EA020321FA04F001F00041CE
:108D400021FA04F220EA020000EBD3705EEA430E3F
:108D500008BF20EAD37070BD94F0000F0FD101F06E
:108D60000046400041EB010111F4801F08BF013CA7
:108D7000F7D041EA060195F0000F18BF704703F0E5
:108D80000046520043EB030313F4801F08BF013D6C
:108D9000F7D043EA0603704794EA0C0F0CEA135528
:108DA00018BF95EA0C0F0CD050EA410618BF52EAE2
:108DB0004306D1D181EA030101F000414FF00000E8
:108DC00070BD50EA410606BF1046194652EA4306F6
:108DD00019D094EA0C0F02D150EA013613D195EA6A
:108DE0000C0F05D152EA03361CBF104619460AD1B2
:108DF00081EA030101F0004141F0FE4141F47001BC
:108E00004FF0000070BD41F0FE4141F4780170BDAB
:108E100070B54FF0FF0C4CF4E06C1CEA11541DBF10
:108E20001CEA135594EA0C0F95EA0C0F00F0A7F812
:108E3000A4EB050481EA030E52EA03354FEA01313F
:108E400000F088804FEA03334FF0805545EA131352
:108E500043EA12634FEA022245EA111545EA10651A
:108E60004FEA00260EF000419D4208BF964244F1B1
:108E7000FD0404F5407402D25B084FEA3202B61AD0
:108E800065EB03055B084FEA32024FF480104FF4A4
:108E9000002CB6EB020E75EB030E22BFB61A754618
:108EA00040EA0C005B084FEA3202B6EB020E75EBAB
:108EB000030E22BFB61A754640EA5C005B084FEA13
:108EC0003202B6EB020E75EB030E22BFB61A7546E0
:108ED00040EA9C005B084FEA3202B6EB020E75EBEB
:108EE000030E22BFB61A754640EADC0055EA060EAC
:108EF00018D04FEA051545EA16754FEA06164FEAEF
:108F0000C30343EA52734FEAC2025FEA1C1CC0D19A
:108F100011F4801F0BD141EA00014FF000004FF027
:108F2000004CB6E711F4801F04BF01430020B4F1E8
:108F3000FD0C88BFBCF5E06F3FF6AFAEB5EB030CA0
:108F400004BFB6EB020C5FEA500C50F1000041EB9D
:108F5000045170BD0EF0004E4EEA113114EB5C046A
:108F6000C2BFD4EB0C0541EA045170BD41F480113D
:108F70004FF0000E013C90E645EA060E8DE60CEA45
:108F8000135594EA0C0F08BF95EA0C0F3FF43BAF62
:108F900094EA0C0F0AD150EA01347FF434AF95EA19
:108FA0000C0F7FF425AF104619462CE795EA0C0FFD
:108FB00006D152EA03353FF4FDAE1046194622E7CA
:108FC00050EA410618BF52EA43067FF4C5AE50EAA4
:108FD00041047FF40DAF52EA43057FF4EBAE12E794
:108FE0004FF0FF3C06E000BF4FF0010C02E000BF75
:108FF0004FF0010C4DF804CD4FEA410C7FEA6C5C58
:109000004FEA430C18BF7FEA6C5C1BD001B050EAFA
:10901000410C0CBF52EA430C91EA030F02BF90EAE5
:10902000020F0020704710F1000F91EA030F58BFA4
:10903000994208BF90422CBFD8176FEAE37040F006
:10904000010070474FEA410C7FEA6C5C02D150EAA4
:10905000013C07D14FEA430C7FEA6C5CD6D152EA5F
:10906000033CD3D05DF8040B704700BF8446104624
:1090700062468C461946634600E000BF01B5FFF723
:10908000B7FF002848BF10F1000F01BD4DF808EDF3
:10909000FFF7F4FF0CBF012000205DF808FB00BFC4
:1090A0004DF808EDFFF7EAFF34BF012000205DF81E
:1090B00008FB00BF4DF808EDFFF7E0FF94BF01206B
:1090C00000205DF808FB00BF4DF808EDFFF7CEFF6C
:1090D00094BF012000205DF808FB00BF4DF808EDAB
:1090E000FFF7C4FF34BF012000205DF808FB00BF7C
:1090F0004FEA410C7FEA6C5C02D150EA013C0AD194
:109100004FEA430C7FEA6C5C02D152EA033C02D185
:109110004FF0000070474FF0010070474FEA4102E6
:10912000B2F1E04324BFB3F5001CDCF1FE5C0DD9C5
:1091300001F0004C4FEAC0024CEA5070B2F1004F0F
:1091400040EB830008BF20F00100704711F0804F12
:1091500021D113F13872BCBF01F00040704741F4D7
:1091600080114FEA5252C2F11802C2F1200C10FADB
:109170000CF320FA02F018BF40F001004FEAC123BF
:109180004FEAD32303FA0CFC40EA0C0023FA02F363
:109190004FEA4303CCE77FEA625307D150EA013339
:1091A0001EBF4FF0FE4040F44000704701F0004009
:1091B00040F0FE4040F40000704700BF10B5054C81
:1091C00013462CB10A4601460220AFF3008010BDC1
:1091D0002046FCE7000000000A44914200F1FF3302
:1091E00000D1704710B511F8014B03F8014F9142BF
:1091F000F9D110BD02440346934200D1704703F8F1
:10920000011BF9E738B50D4B1D68AB6B04467BB904
:109210001820FCF7E9FD0A4A0A4BA863C0E90023BD
:10922000094B83600B23838101220023C0E90423BF
:10923000AB6B00221C615A6138BD00BFDCE3032028
:109240000E33CDAB34126DE6ECDE0500134B10B5DA
:109250001C68A36B7BB91820FCF7C6FD104A114BA4
:10926000A063C0E90023104B83600B23838101229C
:109270000023C0E90423A16B0C480A694B690C4C1C
:10928000504304FB0300A2FB04345A1C044444F181
:109290000000C1E9042020F0004010BDDCE3032001
:1092A0000E33CDAB34126DE6ECDE05002DF45158D3
:1092B0002D7F954C034611F8012B03F8012B002A52
:1092C000F9D17047024B0146186800F003B800BF9F
:1092D000DCE3032037B5044608460D4600F00FF8DE
:1092E000421C114620460192FCF7A6FD044618B127
:1092F000019A2946FFF770FF204603B030BD0346B0
:1093000013F8012B002AFBD1181A0138704700000E
:1093100021400D005D400D0085400D0089400D008D
:109320000000000050756C7365204C6F7374007BF7
:109330002022417667544331223A2025642C202292
:10934000417667545031223A2025642C2022417600
:1093500067544332223A2025642C202241766754F8
:109360005032223A2025642C2022417667465352FF
:10937000223A202564202020202020202020202088
:1093800020202020202020202020202020202020DD
:1093900020202020202020202C202241766741639D
:1093A0006358223A2025642C20224176674163636A
:1093B00059223A2025642C20224176674163635A62
:1093C000223A2025642C2022417667477972582260
:1093D0003A2025642C202241766747797259223A37
:1093E0002025642020202020202020202020202034
:1093F000202020202020202020202020202020206D
:109400002020202020202C20224176674779725A84
:10941000223A2025642C20224176674254223A20A9
:1094200025642C20224D6178544331223A20256452
:109430002C20224D6178545031223A2025642C2072
:10944000224D6178544332223A2025642020202086
:10945000202020202020202020202020202020200C
:109460002020202020202020202020202020202CF0
:1094700020224D6178545032223A2025642C20223B
:109480004D617841636358223A2025642C20224D97
:10949000617841636359223A2025642C20224D6172
:1094A000784163635A223A2025642C20224D61784A
:1094B00047797258223A202564202020202020203D
:1094C000202020202020202020202020202020209C
:1094D0002020202020202020202020202C20224D51
:1094E000617847797259223A2025642C20224D61F7
:1094F000784779725A223A2025642C20224D6178CF
:109500004254223A2025642C20224852223A202517
:10951000642C2022485256223A2025662020202002
:10952000202020202020202020202020202020203B
:109530002020202020202020202020202020202C1F
:10954000202242617474223A2025662C20224D612B
:1095500078465352223A2025647D00227D004544FE
:109560004131007B202245444131223A20220045EE
:10957000444132007B202245444132223A202200DD
:1095800053756D6D6172795265706F727400496EBA
:10959000697469616C697A6174696F6E206F6620A5
:1095A0007468652073656E736F722072657475726E
:1095B0006E65643A2000547279696E672061676154
:1095C000696E2E2E2E00556E6B6E6F776E20537463
:1095D0006174757300416C6C2069732077656C6CE5
:1095E0002E0047656E6572616C204572726F720065
:1095F0004E6F7420496D706C656D656E74656400A6
:10960000506172616D65746572204572726F72008F
:1096100057726F6E6720494400496E76616C6964C9
:109620002053656E736F72004461746120556E64DF
:109630006572666C6F770053656E736F72204E6F44
:109640007420537570706F7274656400D5950D0049
:10965000E2950D00F0950D0000960D0010960D009E
:1096600019960D0028960D0037960D000000000099
:109670000000000071590D00000000000000000013
:10968000DD5E0D00E35E0D00335F0D00F15E0D0049
:10969000DF5E0D000000000000000000AB640D0064
:1096A000A1640D0097640D008D640D0081640D00B0
:1096B00075640D0069640D0061640D0057640D0050
:1096C0004D640D003D670D0000000000000000002B
:1096D000C9640D0013650D00EB640D00CB640D0033
:1096E000F3640D00FB640D0003650D000B650D00B8
:1096F0000000000000000000F1650D00E1650D00B4
:10970000E3650D00617070000000000000000000C3
:10971000D5660D00DF660D00E9660D00F3660D00ED
:10972000FD660D0009670D0015670D0021670D002E
:1097300029670D0033670D003D670D0025592D2564
:109740006D2D25645425483A254D3A2553257A0038
:1097500061736374696D6500000000000000000023
:10976000356C0D00A16C0D00796C0D0025680D00A5
:10977000496C0D00656C0D00576C0D00736C0D008D
:10978000376C0D003B6C0D00000000000000000075
:10979000356D0D009D6D0D00736D0D0025680D007C
:1097A000656D0D00376D0D00476D0D00976D0D0057
:1097B000576D0D00316D0D0000000000000000002D
:1097C000AB6E0D00A16E0D00976E0D004D6E0D007D
:1097D0008B6E0D007F6E0D00736E0D006B6E0D00B5
:1097E000616E0D00576E0D003D670D00000000001A
:1097F000706F7700000000000000000000003043A0
:1098000000000000000030C361500D0011560D0033
:10981000B55E0D00B5640D00C5660D0011680D0044
:1098200021690D00E56B0D00216C0D00B56E0D007A
:049830000000000034
:109834000101010000B001400406000050970D0032
:1098440001000000E0E3032000000000000000002D
:109854000000000000000000000000000000000004
:1098640000000000000000000000000000000000F4
:1098740000000000000000000000000000000000E4
:1098840000000000000000000000000000000000D4
:1098940000000000000000000000000000000000C4
:0898A4000000000000000000BC
:1098AC00FFFFFFFF00000102030405060708090A79
:1098BC000B0C0D0E0F101112131415161718191A74
:0898CC001B1C1D1E1F202800BB
:0498D400785634127C
:04000003D0004020C9
:00000001FF
