:02000002D0002C
:1040000000400D0074510D00000006000C00050179
:084010000401D80700000000C4
:04401800CC4E0D007D
:10401C0009480A49884208B505D0094A824202D0AB
:10402C00121A00F00BFF0748074A0021121A00F081
:10403C0013FF014808BD00BFE4E50320E4500D0068
:10404C004CE603204CE60320F0E7032070B5074E46
:10405C00074C00F069FEA41BA4080025A54200D162
:10406C0070BD56F8043B98470135F7E7B4500D0086
:10407C00D4500D0000F014B808B500F02BF8BDE8D2
:10408C00084000F013BE00F003BA00F009BA007843
:10409C00B0FA80F0400970470123037070470000AC
:1040AC0008B500F08BFE00F0B1FA00F075FD4FF48E
:1040BC00165100F05FFD00F06FFD00F062FD00286E
:1040CC00F9D000F069FDBDE80840014900F00DBCD5
:1040DC00E04E0D002DE9F84300F05EFD2B49DFF8B2
:1040EC00C0802B4FDFF8BC9000F0FFFB01240025B3
:1040FC0000F064FEE1B200F08FFA00F05FFE00F019
:10410C0093FA30BB00F048FD494600F0DBFB0F2C66
:10411C0004D800F041FD394600F0D4FB00F03CFD22
:10412C001022214600F0EBFB00F036FD194900F09F
:10413C00DCFB013501347F2CDAD11DBB00F02CFDEA
:10414C00154900F0D2FBBDE8F8434FF4FA6000F0DB
:10415C00B7B90428EED100F01FFD414600F0B2FBC8
:10416C000F2C04D800F018FD394600F0ABFB00F022
:10417C0013FD10220646214600F0C1FB304600F02C
:10418C00A8FBD7E700F008FD0449DAE7ED4E0D0077
:10419C00184F0D001A4F0D003A4F0D00504F0D00E7
:1041AC001E4F0D00F94E0D0008B5024B1B685B6CE1
:1041BC00019308BD4802030008B5024B1B689B6CB9
:1041CC00019308BD4802030008B5024B1B685B68ED
:1041DC00019308BD1802030008B5024B1B685B690C
:1041EC00019308BD1802030008B5024B1B68DB687D
:1041FC00019308BD2802030008B5024B1B689B699C
:10420C00019308BD2802030008B5024B1B68DB694B
:10421C00019308BD2802030008B5024B1B681B6AFA
:10422C00019308BD2802030008B5024B1B685B6AAA
:10423C00019308BD2802030008B5024B1B689B6A5A
:10424C00019308BD2802030008B5024B1B68DB6A0A
:10425C00019308BD2802030008B5024B1B681B6BB9
:10426C00019308BD2802030008B5024B1B681B6CA8
:10427C00019308BD2802030008B5024B1B685B695B
:10428C00019308BD6402030008B5024B1B689B68D0
:10429C00019308BD6802030008B5024B1B68DB687C
:1042AC00019308BD6802030008B5024B1B681B682C
:1042BC00019308BD3C02030008B5024B1B68DB6888
:1042CC00019308BD3C02030008B5024B1B681B6937
:1042DC00019308BD3C02030008B5024B1B685B69E7
:1042EC00019308BD3C02030008B5024B1B689B6997
:1042FC00019308BD3C02030008B5024B1B68DB6947
:10430C00019308BD3C02030008B5024B1B689B6A75
:10431C00019308BD3C02030008B5024B1B681B68E7
:10432C00019308BD4C02030008B5024B1B685B6887
:10433C00019308BD4C02030008B5024B1B681B69B6
:10434C00019308BD4C02030008B5024B1B685B6966
:10435C00019308BD4C02030008B5024B1B689B6916
:10436C00019308BD4C02030008B5024B1B68DB69C6
:10437C00019308BD4C02030008B5024B1B681B6A75
:10438C00019308BD4C02030008B5024B1B685B6A25
:10439C00019308BD4C02030008B5024B1B685B6817
:1043AC00019308BD2002030008B5024B1B685B6932
:1043BC00019308BD2002030008B5034B1B68D3F81A
:1043CC008830019308BD00002002030008B5034BA0
:1043DC001B68D3F89430019308BD00002002030041
:1043EC0008B5024B1B68DB6B019308BD440203004C
:1043FC0008B5024B1B685B68019308BD40020300C3
:10440C0008B5024B1B689B68019308BD4002030072
:10441C0008B5024B1B68DB68019308BD4002030022
:10442C0008B5024B1B681B69019308BD40020300D1
:10443C0008B5024B1B685B69019308BD4002030081
:10444C0008B5024B1B689B69019308BD4002030031
:10445C0008B5024B1B68DB69019308BD40020300E1
:10446C0008B5024B1B681B6A019308BD4002030090
:10447C0008B5024B1B681B6B019308BD400203007F
:10448C0008B5024B1B685B6B019308BD400203002F
:10449C0008B5024B1B681B68019308BD1C02030086
:1044AC0008B5024B1B685B68019308BD1C02030036
:1044BC0008B5024B1B685B6C019308BD1C02030022
:1044CC000021FFF771BF10B50446006808B1FFF773
:1044DC0073FE204610BD000010B5064C002320468C
:1044EC002360FFF761FE2046034A0449BDE81040F3
:1044FC0000F08CBC50E603204CE60320D3440D00A6
:10450C0010B58368044613B1032201469847204630
:10451C0010BD002240681146FFF7A2BF0022406880
:10452C001146FFF7ADBF40680022FFF7A1BF4068FE
:10453C00002281F00101FFF78BBF002340681A466F
:10454C001946FFF77DBF002340681A461946FFF74E
:10455C006FBF002240681146FFF762BF002240681F
:10456C001146FFF74DBF406800220221FFF750BFF4
:10457C00002340681A46FFF73BBF0000024B0322A2
:10458C005A60024A1A60704754E60320604F0D00CF
:10459C007047F8B5064615460C468F18BC4206D037
:1045AC00336814F8011B9B6830469847F6E7284699
:1045BC00F8BD007C0022FFF72FBE007C0021FFF726
:1045CC0033BE007C0021FFF737BE007C0021FFF7D3
:1045DC003BBE007C0021FFF73FBE10B51421044602
:1045EC0000F019FC204610BD10B54FF47A73044648
:1045FC0008460021C4E90113034B236020741146C3
:10460C00FFF732FE204610BD944F0D000023007CB6
:10461C001A461946FFF7E8BD007C0022FFF7ECBDF7
:10462C00007C0022FFF7F0BD0121FFF7F9BF7047B6
:10463C0010B51821044600F0EEFB204610BDF0B575
:10464C00037D062B8DB00E4600F104074FF00004DD
:10465C0012D000F1080515F8011D0A22304600F0B1
:10466C004EF9AF42044419D0002CF4D02E21304620
:10467C0000F02CF90444EEE72F236A4639460A2051
:10468C008DF80040FFF7F8FD684600F011FC336828
:10469C000246DB68694630469847044620460DB012
:1046AC00F0BD000010B5054B0446112240F8043B48
:1046BC00002100F0D1FB204610BD00BFBC4F0D0007
:1046CC000346074A10B543F8042B01F1100251F8C8
:1046DC00044B43F8044B9142F9D10A781A7010BD7F
:1046EC00BC4F0D0010B59DF8084044EA032343EA83
:1046FC00024242EA016104234160037510BD13B507
:10470C00CB7800938B784A780978FFF7EBFF02B0EF
:10471C0010BD0000014B024A1A6070475CE6032092
:10472C00C84F0D00002340681A46FFF761BE406871
:10473C0000220221FFF76CBE002240681146FFF7F1
:10474C005FBE002240681146FFF76ABE0023406836
:10475C001A461946FFF76CBE002340681A461946E4
:10476C00FFF76EBE4068002281F00101FFF770BEBA
:10477C0040680022FFF77CBE002240681146FFF71C
:10478C007FBE002240681146FFF76ABE2DE9F04358
:10479C00002495B016460D460746FFF783FF2146C9
:1047AC0018220EA8009400F057FB4023CDE90C34DE
:1047BC0021466B460CAA3046FFF76EFD04460028D6
:1047CC0046D1024601216868FFF72AFE0221804685
:1047DC0022466868FFF724FE009E81462146002E83
:1047EC0036D0002934D17368022B03D00A2B0BD09E
:1047FC00F669F4E7B8F1000F04D07169384604315A
:10480C00FFF77DFF4146F3E7B9F1000F01D14946AF
:10481C00EEE77469102201A800F01EFB06238DF848
:10482C00143001AD04F108031834186859682A468D
:10483C0003C20833A3421546F7D101A906A807AD58
:10484C00FFF73EFF0FCD3C1D0FC42B682370DEE736
:10485C000098FFF719FD384615B0BDE8F08300004D
:10486C00024B034A1A6000225A60704760E603202C
:10487C00D44F0D00F8B506460D468F180024BD42E6
:10488C000CD0336815F8011B9B6830469847031E03
:10489C0001DB1C44F3E7002C08BF1C462046F8BD86
:1048AC0013B50446084659B1019100F001FB236889
:1048BC000199DB680246204602B0BDE8104018475B
:1048CC0002B010BD08B5FFF7EBFF08BD03689B688D
:1048DC00184738B50D210546FFF7F8FF0A210446A5
:1048EC002846FFF7F3FF204438BD38B50546FFF7DF
:1048FC00D7FF04462846FFF7ECFF204438BD30B5FF
:10490C008BB000238DF82430012A98BF0A2209AC01
:10491C000D46B1FBF2F101FB125303F0FF03092B1F
:10492C0094BF30333733DBB2AA4204F8013DEFD9E0
:10493C002146FFF7B5FF0BB030BD10B50446FFF7AD
:10494C00DFFD204610BD00000348044A0449002343
:10495C00836000F05BBA00BF68E603204CE60320DE
:10496C0047490D0010B50446006818B1FFF798FDD3
:10497C000023236010BD10B50446FFF7F3FF20465B
:10498C0010BD000010B5094B094C022200201A6022
:10499C00084B2060A080A071A360FFF7FDFC2046AF
:1049AC00054A0649BDE8104000F030BA84E6032001
:1049BC0078E603200000FFFF4CE6032083490D003E
:1049CC00024B1A68024B1A60704700BFE4E50320E3
:1049DC0088E6032070474174704708B5007CFFF7E8
:1049EC0093FC20EAE07008BD08B5007CFFF76CFC76
:1049FC0020EAE07008BD08B5007CFFF775FC40EAC2
:104A0C00E07008BD08B5007CFFF766FC40EAE0707A
:104A1C0008BD007CFFF770BC37B5457C04462DB152
:104A2C00207C03B0BDE83040FFF746BC007C019110
:104A3C00FFF76AFC00280199F2DC284603B030BD70
:104A4C0010B51421044600F0E6F9204610BD000014
:104A5C0010B54FF0000C0446084611464FF47A721C
:104A6C00C4E901C2044A22600122207462741A460D
:104A7C00FFF71AFC204610BD24500D0013B50E4C48
:104A8C002178BFF35B8F11F0010112D12046019107
:104A9C00FFF7FDFA019960B1084A094B0948FFF785
:104AAC00D7FF2046FFF7F8FA074A0849054800F0F7
:104ABC00ADF9044802B010BD8CE6032090E603204B
:104ACC0014E7032098E703204CE60320E1490D008E
:104ADC0041747047704708B50021007CFFF73CFC1F
:104AEC0040EAE07008BD08B50121007CFFF734FCFA
:104AFC0040EAE07008BD08B5007CFFF725FC20EA11
:104B0C00E07008BD08B5007CFFF716FC20EAE070E9
:104B1C0008BD13B50446007C0191FFF715FC002875
:104B2C00019901DC607C20B1207CFFF71DFC20EAA0
:104B3C00E07002B010BD007CFFF71EBC10B5142154
:104B4C00044600F068F9204610BD000010B54FF483
:104B5C007A73044608460021C4E90113044B236010
:104B6C000123207463741146FFF7D6FB204610BD59
:104B7C0054500D00007C0022FFF7D6BB007CFFF7E1
:104B8C0003BCFFF7FBBF10B514220446002100F054
:104B9C0063F9204610BD000010B5104C88B003A876
:104BAC00FFF7F1FF2178BFF35B8F11F0010111D1F9
:104BBC0020460191FFF76BFA019958B103AA0848F6
:104BCC00FFF7C4FF2046FFF767FA064A0649044878
:104BDC0000F01CF9024808B010BD00BFACE7032080
:104BEC00B0E703204CE60320E14A0D0000224068A8
:104BFC001146FFF715BC002240681146FFF730BC88
:104C0C00002240681146FFF73BBC40680022FFF7CA
:104C1C002FBC4068002281F00101FFF719BC002372
:104C2C0040681A461946FFF70BBC002340681A4629
:104C3C001946FFF7FDBB002240681146FFF7E0BBA9
:104C4C00406800220221FFF7E3BB002340681A46AC
:104C5C00FFF7CEBB024B04225A60024A1A6070471F
:104C6C00C4E7032084500D00014B1860704700BF4F
:104C7C00E8E5032008B50B4B43B1FFF78DFF036844
:104C8C001B699847002801DDAFF30080064B43B148
:104C9C00FFF7F4FE03681B699847002801DDAFF3AA
:104CAC00008008BD000000000000000008B5FFF700
:104CBC00E1FFFFF791FA014B186008BDD4E7032020
:104CCC000248034A0349121A00F0B8B800F4032052
:104CDC0004F40320E0500D0007B5002300931A469E
:104CEC006FF07701FFF772FB03B05DF804FB000077
:104CFC0007B543880A2B08D0502B0BD1094B1B68E6
:104D0C004BB103B05DF804EB1847FFF7E5FF03B0B8
:104D1C005DF804FB002300931A466FF07701FFF750
:104D2C0055FBF4E7D0E7032038B5124C1248134D6D
:104D3C000021FFF7BDFB2368AB42114B0CBF0122D6
:104D4C0000221A7002D0FFF7BBFF2560FFF73CFA78
:104D5C00044600F089F80B4B13B12046AFF30080EA
:104D6C0000210848FFF73CFBBDE83840064800210D
:104D7C00FFF722BB00F40320754C0D001E1C279A74
:104D8C00CCE7032000000000FD4C0D0038B50023DB
:104D9C002025438014230446038085600561064961
:104DAC00284600F03AF804496060284600F035F8CF
:104DBC00E060204638BD00BFB0500D0030B50F4D3F
:104DCC002978BFF35B8F11F0010487B013D128460B
:104DDC00FFF75DF978B101A8FFF7D8FF01AA2146CA
:104DEC000748FFF701FC2846FFF756F9054A064924
:104DFC00034800F00BF8024807B030BDD8E7032099
:104E0C00DCE703204CE603209D450D000B460146D4
:104E1C00184600F005B8FFF738B9FFF734B90000B1
:104E2C0010B5054C13462CB10A4601460220AFF3CF
:104E3C00008010BD2046FCE7000000000A449142AF
:104E4C0000F1FF3300D1704710B511F8014B03F896
:104E5C00014F9142F9D110BD02440346934200D157
:104E6C00704703F8011BF9E738B50D4B1D68AB6BA8
:104E7C0004467BB91820FFF70BFB0A4A0A4BA863C0
:104E8C00C0E90023094B83600B238381012200239B
:104E9C00C0E90423AB6B00221C615A6138BD00BF12
:104EAC00E8E503200E33CDAB34126DE6ECDE0500E5
:104EBC00034613F8012B002AFBD1181A013870474E
:104ECC001D400D0059400D0081400D0085400D0026
:104EDC00000000000A493243205363616E6E657214
:104EEC00005363616E6E696E672E2E2E004932433D
:104EFC002064657669636520666F756E64206174E5
:104F0C002061646472657373203078003000202057
:104F1C002100556E6B6E6F776E206572726F72200A
:104F2C0061742061646472657373203078004E6F15
:104F3C0020493243206465766963657320666F751A
:104F4C006E640A00646F6E650A00000000000000C9
:104F5C00000000007D450D0073450D0069450D00F6
:104F6C005F450D0053450D0047450D003B450D00B9
:104F7C0033450D0029450D001F450D0099470D00C7
:104F8C0000000000000000009D450D00E7450D00ED
:104F9C00BF450D009F450D00C7450D00CF450D00C9
:104FAC00D7450D00DF450D0000000000000000009B
:104FBC004B460D003B460D003D460D0061707000E8
:104FCC00000000000000000031470D003B470D00C1
:104FDC0045470D004F470D0059470D0065470D0023
:104FEC0071470D007D470D0085470D008F470D0063
:104FFC0099470D0025592D256D2D25645425483ACA
:10500C00254D3A2553257A0061736374696D6500EB
:10501C000000000000000000E1490D004D4A0D00A9
:10502C00254A0D0081480D00F5490D00114A0D006F
:10503C00034A0D001F4A0D00E3490D00E7490D001E
:10504C000000000000000000E14A0D00494B0D007B
:10505C001F4B0D0081480D00114B0D00E34A0D0054
:10506C00F34A0D00434B0D00034B0D00DD4A0D00C0
:10507C000000000000000000574C0D004D4C0D00CE
:10508C00434C0D00F94B0D00374C0D002B4C0D0013
:10509C001F4C0D00174C0D000D4C0D00034C0D005A
:1050AC0099470D0000000000E5440D0089450D00F6
:1050BC0021470D006D480D0055490D0091490D001B
:1050CC00CD490D00614C0D000000000000000000F7
:0450DC0000000000D0
:0450E00000000000CC
:1050E40014500D00ECE50320000000000000000057
:1050F40000000000000000000000000000000000AC
:10510400000000000000000000000000000000009B
:10511400000000000000000000000000000000008B
:10512400000000000000000000000000000000007B
:10513400000000000000000000000000000000006B
:08514400000000000000000063
:10514C00FFFFFFFF00000102030405060708090A20
:10515C000B0C0D0E0F101112131415161718191A1B
:08516C001B1C1D1E1F20280062
:045174007856341223
:04000003D000401CCD
:00000001FF
